{
	"contracts/TikToken.sol": {
		"TikToken": {
			"abi": [
				{
					"inputs": [],
					"stateMutability": "nonpayable",
					"type": "constructor"
				},
				{
					"anonymous": false,
					"inputs": [
						{
							"indexed": true,
							"internalType": "address",
							"name": "owner",
							"type": "address"
						},
						{
							"indexed": true,
							"internalType": "address",
							"name": "spender",
							"type": "address"
						},
						{
							"indexed": false,
							"internalType": "uint256",
							"name": "value",
							"type": "uint256"
						}
					],
					"name": "Approval",
					"type": "event"
				},
				{
					"anonymous": false,
					"inputs": [
						{
							"indexed": true,
							"internalType": "address",
							"name": "previousOwner",
							"type": "address"
						},
						{
							"indexed": true,
							"internalType": "address",
							"name": "newOwner",
							"type": "address"
						}
					],
					"name": "OwnershipTransferred",
					"type": "event"
				},
				{
					"anonymous": false,
					"inputs": [
						{
							"indexed": true,
							"internalType": "address",
							"name": "from",
							"type": "address"
						},
						{
							"indexed": true,
							"internalType": "address",
							"name": "to",
							"type": "address"
						},
						{
							"indexed": false,
							"internalType": "uint256",
							"name": "value",
							"type": "uint256"
						}
					],
					"name": "Transfer",
					"type": "event"
				},
				{
					"inputs": [
						{
							"internalType": "address",
							"name": "owner",
							"type": "address"
						},
						{
							"internalType": "address",
							"name": "spender",
							"type": "address"
						}
					],
					"name": "allowance",
					"outputs": [
						{
							"internalType": "uint256",
							"name": "",
							"type": "uint256"
						}
					],
					"stateMutability": "view",
					"type": "function"
				},
				{
					"inputs": [
						{
							"internalType": "address",
							"name": "spender",
							"type": "address"
						},
						{
							"internalType": "uint256",
							"name": "amount",
							"type": "uint256"
						}
					],
					"name": "approve",
					"outputs": [
						{
							"internalType": "bool",
							"name": "",
							"type": "bool"
						}
					],
					"stateMutability": "nonpayable",
					"type": "function"
				},
				{
					"inputs": [
						{
							"internalType": "address",
							"name": "account",
							"type": "address"
						}
					],
					"name": "balanceOf",
					"outputs": [
						{
							"internalType": "uint256",
							"name": "",
							"type": "uint256"
						}
					],
					"stateMutability": "view",
					"type": "function"
				},
				{
					"inputs": [
						{
							"internalType": "address[]",
							"name": "accounts",
							"type": "address[]"
						},
						{
							"internalType": "uint256[]",
							"name": "followers",
							"type": "uint256[]"
						},
						{
							"internalType": "uint256[]",
							"name": "ids",
							"type": "uint256[]"
						}
					],
					"name": "batchMint",
					"outputs": [],
					"stateMutability": "nonpayable",
					"type": "function"
				},
				{
					"inputs": [],
					"name": "currentReward",
					"outputs": [
						{
							"internalType": "uint256",
							"name": "",
							"type": "uint256"
						}
					],
					"stateMutability": "view",
					"type": "function"
				},
				{
					"inputs": [],
					"name": "decimals",
					"outputs": [
						{
							"internalType": "uint8",
							"name": "",
							"type": "uint8"
						}
					],
					"stateMutability": "view",
					"type": "function"
				},
				{
					"inputs": [
						{
							"internalType": "address",
							"name": "spender",
							"type": "address"
						},
						{
							"internalType": "uint256",
							"name": "subtractedValue",
							"type": "uint256"
						}
					],
					"name": "decreaseAllowance",
					"outputs": [
						{
							"internalType": "bool",
							"name": "",
							"type": "bool"
						}
					],
					"stateMutability": "nonpayable",
					"type": "function"
				},
				{
					"inputs": [],
					"name": "getHalvingCount",
					"outputs": [
						{
							"internalType": "uint256",
							"name": "",
							"type": "uint256"
						}
					],
					"stateMutability": "view",
					"type": "function"
				},
				{
					"inputs": [
						{
							"internalType": "uint256",
							"name": "id",
							"type": "uint256"
						}
					],
					"name": "hasMinted",
					"outputs": [
						{
							"internalType": "bool",
							"name": "",
							"type": "bool"
						}
					],
					"stateMutability": "view",
					"type": "function"
				},
				{
					"inputs": [
						{
							"internalType": "address",
							"name": "spender",
							"type": "address"
						},
						{
							"internalType": "uint256",
							"name": "addedValue",
							"type": "uint256"
						}
					],
					"name": "increaseAllowance",
					"outputs": [
						{
							"internalType": "bool",
							"name": "",
							"type": "bool"
						}
					],
					"stateMutability": "nonpayable",
					"type": "function"
				},
				{
					"inputs": [
						{
							"internalType": "address",
							"name": "account",
							"type": "address"
						},
						{
							"internalType": "uint256",
							"name": "followers",
							"type": "uint256"
						},
						{
							"internalType": "uint256",
							"name": "id",
							"type": "uint256"
						}
					],
					"name": "mint",
					"outputs": [],
					"stateMutability": "nonpayable",
					"type": "function"
				},
				{
					"inputs": [],
					"name": "name",
					"outputs": [
						{
							"internalType": "string",
							"name": "",
							"type": "string"
						}
					],
					"stateMutability": "view",
					"type": "function"
				},
				{
					"inputs": [],
					"name": "owner",
					"outputs": [
						{
							"internalType": "address",
							"name": "",
							"type": "address"
						}
					],
					"stateMutability": "view",
					"type": "function"
				},
				{
					"inputs": [],
					"name": "remainingSupply",
					"outputs": [
						{
							"internalType": "uint256",
							"name": "",
							"type": "uint256"
						}
					],
					"stateMutability": "view",
					"type": "function"
				},
				{
					"inputs": [],
					"name": "renounceOwnership",
					"outputs": [],
					"stateMutability": "nonpayable",
					"type": "function"
				},
				{
					"inputs": [],
					"name": "symbol",
					"outputs": [
						{
							"internalType": "string",
							"name": "",
							"type": "string"
						}
					],
					"stateMutability": "view",
					"type": "function"
				},
				{
					"inputs": [],
					"name": "totalSupply",
					"outputs": [
						{
							"internalType": "uint256",
							"name": "",
							"type": "uint256"
						}
					],
					"stateMutability": "view",
					"type": "function"
				},
				{
					"inputs": [
						{
							"internalType": "address",
							"name": "to",
							"type": "address"
						},
						{
							"internalType": "uint256",
							"name": "amount",
							"type": "uint256"
						}
					],
					"name": "transfer",
					"outputs": [
						{
							"internalType": "bool",
							"name": "",
							"type": "bool"
						}
					],
					"stateMutability": "nonpayable",
					"type": "function"
				},
				{
					"inputs": [
						{
							"internalType": "address",
							"name": "from",
							"type": "address"
						},
						{
							"internalType": "address",
							"name": "to",
							"type": "address"
						},
						{
							"internalType": "uint256",
							"name": "amount",
							"type": "uint256"
						}
					],
					"name": "transferFrom",
					"outputs": [
						{
							"internalType": "bool",
							"name": "",
							"type": "bool"
						}
					],
					"stateMutability": "nonpayable",
					"type": "function"
				},
				{
					"inputs": [
						{
							"internalType": "address",
							"name": "newOwner",
							"type": "address"
						}
					],
					"name": "transferOwnership",
					"outputs": [],
					"stateMutability": "nonpayable",
					"type": "function"
				}
			],
			"devdoc": {
				"kind": "dev",
				"methods": {
					"allowance(address,address)": {
						"details": "See {IERC20-allowance}."
					},
					"approve(address,uint256)": {
						"details": "See {IERC20-approve}. NOTE: If `amount` is the maximum `uint256`, the allowance is not updated on `transferFrom`. This is semantically equivalent to an infinite approval. Requirements: - `spender` cannot be the zero address."
					},
					"balanceOf(address)": {
						"details": "See {IERC20-balanceOf}."
					},
					"decimals()": {
						"details": "Returns the number of decimals used to get its user representation. For example, if `decimals` equals `2`, a balance of `505` tokens should be displayed to a user as `5.05` (`505 / 10 ** 2`). Tokens usually opt for a value of 18, imitating the relationship between Ether and Wei. This is the default value returned by this function, unless it's overridden. NOTE: This information is only used for _display_ purposes: it in no way affects any of the arithmetic of the contract, including {IERC20-balanceOf} and {IERC20-transfer}."
					},
					"decreaseAllowance(address,uint256)": {
						"details": "Atomically decreases the allowance granted to `spender` by the caller. This is an alternative to {approve} that can be used as a mitigation for problems described in {IERC20-approve}. Emits an {Approval} event indicating the updated allowance. Requirements: - `spender` cannot be the zero address. - `spender` must have allowance for the caller of at least `subtractedValue`."
					},
					"increaseAllowance(address,uint256)": {
						"details": "Atomically increases the allowance granted to `spender` by the caller. This is an alternative to {approve} that can be used as a mitigation for problems described in {IERC20-approve}. Emits an {Approval} event indicating the updated allowance. Requirements: - `spender` cannot be the zero address."
					},
					"name()": {
						"details": "Returns the name of the token."
					},
					"owner()": {
						"details": "Returns the address of the current owner."
					},
					"renounceOwnership()": {
						"details": "Leaves the contract without owner. It will not be possible to call `onlyOwner` functions. Can only be called by the current owner. NOTE: Renouncing ownership will leave the contract without an owner, thereby disabling any functionality that is only available to the owner."
					},
					"symbol()": {
						"details": "Returns the symbol of the token, usually a shorter version of the name."
					},
					"totalSupply()": {
						"details": "See {IERC20-totalSupply}."
					},
					"transfer(address,uint256)": {
						"details": "See {IERC20-transfer}. Requirements: - `to` cannot be the zero address. - the caller must have a balance of at least `amount`."
					},
					"transferFrom(address,address,uint256)": {
						"details": "See {IERC20-transferFrom}. Emits an {Approval} event indicating the updated allowance. This is not required by the EIP. See the note at the beginning of {ERC20}. NOTE: Does not update the allowance if the current allowance is the maximum `uint256`. Requirements: - `from` and `to` cannot be the zero address. - `from` must have a balance of at least `amount`. - the caller must have allowance for ``from``'s tokens of at least `amount`."
					},
					"transferOwnership(address)": {
						"details": "Transfers ownership of the contract to a new account (`newOwner`). Can only be called by the current owner."
					}
				},
				"version": 1
			},
			"evm": {
				"assembly": "    /* \"contracts/TikToken.sol\":175:8107  contract TikToken is ERC20, Ownable {... */\n  mstore(0x40, 0x80)\n    /* \"contracts/TikToken.sol\":403:418  0.8192 * 10**24 */\n  0xad78ebc5ac6200000000\n    /* \"contracts/TikToken.sol\":609:658  uint256 private _remainingSupply = _initialSupply */\n  0x06\n  sstore\n    /* \"contracts/TikToken.sol\":737:753  0.00001 * 10**24 */\n  0x8ac7230489e80000\n    /* \"contracts/TikToken.sol\":704:753  uint256 private _currentReward = 0.00001 * 10**24 */\n  0x07\n  sstore\n    /* \"contracts/TikToken.sol\":847:848  1 */\n  0x01\n    /* \"contracts/TikToken.sol\":815:848  uint256 private _halvingCount = 1 */\n  0x08\n  sstore\n    /* \"contracts/TikToken.sol\":999:1259  constructor() ERC20(\"TikToken\", \"TIK\") {... */\n  callvalue\n  dup1\n  iszero\n  tag_1\n  jumpi\n  0x00\n  dup1\n  revert\ntag_1:\n  pop\n    /* \"@openzeppelin/contracts/token/ERC20/ERC20.sol\":1980:2093  constructor(string memory name_, string memory symbol_) {... */\n  mload(0x40)\n  dup1\n  0x40\n  add\n  0x40\n  mstore\n  dup1\n  0x08\n  dup2\n  mstore\n  0x20\n  add\n  shl(0xc1, 0x2a34b5aa37b5b2b7)\n  dup2\n  mstore\n  pop\n  mload(0x40)\n  dup1\n  0x40\n  add\n  0x40\n  mstore\n  dup1\n  0x03\n  dup2\n  mstore\n  0x20\n  add\n  shl(0xe8, 0x54494b)\n  dup2\n  mstore\n  pop\n    /* \"@openzeppelin/contracts/token/ERC20/ERC20.sol\":2054:2059  name_ */\n  dup2\n    /* \"@openzeppelin/contracts/token/ERC20/ERC20.sol\":2046:2051  _name */\n  0x03\n    /* \"@openzeppelin/contracts/token/ERC20/ERC20.sol\":2046:2059  _name = name_ */\n  swap1\n  dup1\n  mload\n  swap1\n  0x20\n  add\n  swap1\n  tag_6\n  swap3\n  swap2\n  swap1\n  tag_7\n  jump\t// in\ntag_6:\n  pop\n    /* \"@openzeppelin/contracts/token/ERC20/ERC20.sol\":2069:2086  _symbol = symbol_ */\n  dup1\n  mload\n  tag_8\n  swap1\n    /* \"@openzeppelin/contracts/token/ERC20/ERC20.sol\":2069:2076  _symbol */\n  0x04\n  swap1\n    /* \"@openzeppelin/contracts/token/ERC20/ERC20.sol\":2069:2086  _symbol = symbol_ */\n  0x20\n  dup5\n  add\n  swap1\n  tag_7\n  jump\t// in\ntag_8:\n  pop\n    /* \"@openzeppelin/contracts/token/ERC20/ERC20.sol\":1980:2093  constructor(string memory name_, string memory symbol_) {... */\n  pop\n  pop\n    /* \"@openzeppelin/contracts/access/Ownable.sol\":936:968  _transferOwnership(_msgSender()) */\n  tag_10\n    /* \"@openzeppelin/contracts/access/Ownable.sol\":955:967  _msgSender() */\n  tag_11\n    /* \"@openzeppelin/contracts/access/Ownable.sol\":955:965  _msgSender */\n  shl(0x20, tag_12)\n    /* \"@openzeppelin/contracts/access/Ownable.sol\":955:967  _msgSender() */\n  0x20\n  shr\n  jump\t// in\ntag_11:\n    /* \"@openzeppelin/contracts/access/Ownable.sol\":936:954  _transferOwnership */\n  tag_13\n    /* \"@openzeppelin/contracts/access/Ownable.sol\":936:968  _transferOwnership(_msgSender()) */\n  jump\t// in\ntag_10:\n    /* \"contracts/TikToken.sol\":1049:1074  uint256 initialMintAmount */\n  0x00\n    /* \"contracts/TikToken.sol\":1077:1104  _maxSupply - _initialSupply */\n  tag_15\n    /* \"contracts/TikToken.sol\":403:418  0.8192 * 10**24 */\n  0xad78ebc5ac6200000000\n    /* \"contracts/TikToken.sol\":256:266  1 * 10**24 */\n  0xd3c21bcecceda1000000\n    /* \"contracts/TikToken.sol\":1077:1104  _maxSupply - _initialSupply */\n  tag_16\n  jump\t// in\ntag_15:\n    /* \"contracts/TikToken.sol\":1049:1104  uint256 initialMintAmount = _maxSupply - _initialSupply */\n  swap1\n  pop\n    /* \"contracts/TikToken.sol\":1186:1222  _mint(msg.sender, initialMintAmount) */\n  tag_17\n    /* \"contracts/TikToken.sol\":1192:1202  msg.sender */\n  caller\n    /* \"contracts/TikToken.sol\":1049:1104  uint256 initialMintAmount = _maxSupply - _initialSupply */\n  dup3\n    /* \"contracts/TikToken.sol\":1186:1191  _mint */\n  tag_18\n    /* \"contracts/TikToken.sol\":1186:1222  _mint(msg.sender, initialMintAmount) */\n  jump\t// in\ntag_17:\n    /* \"contracts/TikToken.sol\":1038:1259  {... */\n  pop\n    /* \"contracts/TikToken.sol\":175:8107  contract TikToken is ERC20, Ownable {... */\n  jump(tag_48)\n    /* \"@openzeppelin/contracts/utils/Context.sol\":640:736  function _msgSender() internal view virtual returns (address) {... */\ntag_12:\n    /* \"@openzeppelin/contracts/utils/Context.sol\":719:729  msg.sender */\n  caller\n  swap1\n    /* \"@openzeppelin/contracts/utils/Context.sol\":640:736  function _msgSender() internal view virtual returns (address) {... */\n  jump\t// out\n    /* \"@openzeppelin/contracts/access/Ownable.sol\":2426:2613  function _transferOwnership(address newOwner) internal virtual {... */\ntag_13:\n    /* \"@openzeppelin/contracts/access/Ownable.sol\":2518:2524  _owner */\n  0x05\n  dup1\n  sload\n  sub(shl(0xa0, 0x01), 0x01)\n    /* \"@openzeppelin/contracts/access/Ownable.sol\":2534:2551  _owner = newOwner */\n  dup4\n  dup2\n  and\n  not(sub(shl(0xa0, 0x01), 0x01))\n  dup4\n  and\n  dup2\n  or\n  swap1\n  swap4\n  sstore\n    /* \"@openzeppelin/contracts/access/Ownable.sol\":2566:2606  OwnershipTransferred(oldOwner, newOwner) */\n  mload(0x40)\n    /* \"@openzeppelin/contracts/access/Ownable.sol\":2518:2524  _owner */\n  swap2\n  and\n  swap2\n    /* \"@openzeppelin/contracts/access/Ownable.sol\":2534:2551  _owner = newOwner */\n  swap1\n    /* \"@openzeppelin/contracts/access/Ownable.sol\":2518:2524  _owner */\n  dup3\n  swap1\n    /* \"@openzeppelin/contracts/access/Ownable.sol\":2566:2606  OwnershipTransferred(oldOwner, newOwner) */\n  0x8be0079c531659141344cd1fd0a4f28419497f9722a3daafe3b4186f6b6457e0\n  swap1\n    /* \"@openzeppelin/contracts/access/Ownable.sol\":2499:2515  address oldOwner */\n  0x00\n  swap1\n    /* \"@openzeppelin/contracts/access/Ownable.sol\":2566:2606  OwnershipTransferred(oldOwner, newOwner) */\n  log3\n    /* \"@openzeppelin/contracts/access/Ownable.sol\":2489:2613  {... */\n  pop\n    /* \"@openzeppelin/contracts/access/Ownable.sol\":2426:2613  function _transferOwnership(address newOwner) internal virtual {... */\n  pop\n  jump\t// out\n    /* \"@openzeppelin/contracts/token/ERC20/ERC20.sol\":8520:9055  function _mint(address account, uint256 amount) internal virtual {... */\ntag_18:\n  sub(shl(0xa0, 0x01), 0x01)\n    /* \"@openzeppelin/contracts/token/ERC20/ERC20.sol\":8603:8624  account != address(0) */\n  dup3\n  and\n    /* \"@openzeppelin/contracts/token/ERC20/ERC20.sol\":8595:8660  require(account != address(0), \"ERC20: mint to the zero address\") */\n  tag_23\n  jumpi\n  mload(0x40)\n  shl(0xe5, 0x461bcd)\n  dup2\n  mstore\n    /* \"#utility.yul\":478:480   */\n  0x20\n    /* \"@openzeppelin/contracts/token/ERC20/ERC20.sol\":8595:8660  require(account != address(0), \"ERC20: mint to the zero address\") */\n  0x04\n  dup3\n  add\n    /* \"#utility.yul\":460:481   */\n  mstore\n    /* \"#utility.yul\":517:519   */\n  0x1f\n    /* \"#utility.yul\":497:515   */\n  0x24\n  dup3\n  add\n    /* \"#utility.yul\":490:520   */\n  mstore\n    /* \"#utility.yul\":556:589   */\n  0x45524332303a206d696e7420746f20746865207a65726f206164647265737300\n    /* \"#utility.yul\":536:554   */\n  0x44\n  dup3\n  add\n    /* \"#utility.yul\":529:590   */\n  mstore\n    /* \"#utility.yul\":607:625   */\n  0x64\n  add\n    /* \"@openzeppelin/contracts/token/ERC20/ERC20.sol\":8595:8660  require(account != address(0), \"ERC20: mint to the zero address\") */\n  mload(0x40)\n  dup1\n  swap2\n  sub\n  swap1\n  revert\ntag_23:\n    /* \"@openzeppelin/contracts/token/ERC20/ERC20.sol\":8747:8753  amount */\n  dup1\n    /* \"@openzeppelin/contracts/token/ERC20/ERC20.sol\":8731:8743  _totalSupply */\n  0x02\n  0x00\n    /* \"@openzeppelin/contracts/token/ERC20/ERC20.sol\":8731:8753  _totalSupply += amount */\n  dup3\n  dup3\n  sload\n  tag_28\n  swap2\n  swap1\n  tag_29\n  jump\t// in\ntag_28:\n  swap1\n  swap2\n  sstore\n  pop\n  pop\n  sub(shl(0xa0, 0x01), 0x01)\n    /* \"@openzeppelin/contracts/token/ERC20/ERC20.sol\":8899:8917  _balances[account] */\n  dup3\n  and\n    /* \"@openzeppelin/contracts/token/ERC20/ERC20.sol\":8899:8908  _balances */\n  0x00\n    /* \"@openzeppelin/contracts/token/ERC20/ERC20.sol\":8899:8917  _balances[account] */\n  dup2\n  dup2\n  mstore\n  0x20\n  dup2\n  dup2\n  mstore\n  0x40\n  dup1\n  dup4\n  keccak256\n    /* \"@openzeppelin/contracts/token/ERC20/ERC20.sol\":8899:8927  _balances[account] += amount */\n  dup1\n  sload\n  dup7\n  add\n  swap1\n  sstore\n    /* \"@openzeppelin/contracts/token/ERC20/ERC20.sol\":8952:8989  Transfer(address(0), account, amount) */\n  mload\n    /* \"#utility.yul\":915:940   */\n  dup5\n  dup2\n  mstore\n    /* \"@openzeppelin/contracts/token/ERC20/ERC20.sol\":8952:8989  Transfer(address(0), account, amount) */\n  0xddf252ad1be2c89b69c2b068fc378daa952ba7f163c4a11628f55a4df523b3ef\n  swap2\n    /* \"#utility.yul\":888:906   */\n  add\n    /* \"@openzeppelin/contracts/token/ERC20/ERC20.sol\":8952:8989  Transfer(address(0), account, amount) */\n  mload(0x40)\n  dup1\n  swap2\n  sub\n  swap1\n  log3\n    /* \"@openzeppelin/contracts/token/ERC20/ERC20.sol\":8520:9055  function _mint(address account, uint256 amount) internal virtual {... */\n  pop\n  pop\n  jump\t// out\n    /* \"contracts/TikToken.sol\":175:8107  contract TikToken is ERC20, Ownable {... */\ntag_7:\n  dup3\n  dup1\n  sload\n  tag_36\n  swap1\n  tag_37\n  jump\t// in\ntag_36:\n  swap1\n  0x00\n  mstore\n  keccak256(0x00, 0x20)\n  swap1\n  0x1f\n  add\n  0x20\n  swap1\n  div\n  dup2\n  add\n  swap3\n  dup3\n  tag_39\n  jumpi\n  0x00\n  dup6\n  sstore\n  jump(tag_42)\ntag_39:\n  dup3\n  0x1f\n  lt\n  tag_40\n  jumpi\n  dup1\n  mload\n  not(0xff)\n  and\n  dup4\n  dup1\n  add\n  or\n  dup6\n  sstore\n  jump(tag_42)\ntag_40:\n  dup3\n  dup1\n  add\n  0x01\n  add\n  dup6\n  sstore\n  dup3\n  iszero\n  tag_42\n  jumpi\n  swap2\n  dup3\n  add\ntag_41:\n  dup3\n  dup2\n  gt\n  iszero\n  tag_42\n  jumpi\n  dup3\n  mload\n  dup3\n  sstore\n  swap2\n  0x20\n  add\n  swap2\n  swap1\n  0x01\n  add\n  swap1\n  jump(tag_41)\ntag_42:\n  pop\n  tag_43\n  swap3\n  swap2\n  pop\n  tag_44\n  jump\t// in\ntag_43:\n  pop\n  swap1\n  jump\t// out\ntag_44:\ntag_45:\n  dup1\n  dup3\n  gt\n  iszero\n  tag_43\n  jumpi\n  0x00\n  dup2\n  sstore\n  0x01\n  add\n  jump(tag_45)\n    /* \"#utility.yul\":14:141   */\ntag_47:\n    /* \"#utility.yul\":75:85   */\n  0x4e487b71\n    /* \"#utility.yul\":70:73   */\n  0xe0\n    /* \"#utility.yul\":66:86   */\n  shl\n    /* \"#utility.yul\":63:64   */\n  0x00\n    /* \"#utility.yul\":56:87   */\n  mstore\n    /* \"#utility.yul\":106:110   */\n  0x11\n    /* \"#utility.yul\":103:104   */\n  0x04\n    /* \"#utility.yul\":96:111   */\n  mstore\n    /* \"#utility.yul\":130:134   */\n  0x24\n    /* \"#utility.yul\":127:128   */\n  0x00\n    /* \"#utility.yul\":120:135   */\n  revert\n    /* \"#utility.yul\":146:271   */\ntag_16:\n    /* \"#utility.yul\":186:190   */\n  0x00\n    /* \"#utility.yul\":214:215   */\n  dup3\n    /* \"#utility.yul\":211:212   */\n  dup3\n    /* \"#utility.yul\":208:216   */\n  lt\n    /* \"#utility.yul\":205:239   */\n  iszero\n  tag_52\n  jumpi\n    /* \"#utility.yul\":219:237   */\n  tag_52\n  tag_47\n  jump\t// in\ntag_52:\n  pop\n    /* \"#utility.yul\":256:265   */\n  sub\n  swap1\n    /* \"#utility.yul\":146:271   */\n  jump\t// out\n    /* \"#utility.yul\":636:764   */\ntag_29:\n    /* \"#utility.yul\":676:679   */\n  0x00\n    /* \"#utility.yul\":707:708   */\n  dup3\n    /* \"#utility.yul\":703:709   */\n  not\n    /* \"#utility.yul\":700:701   */\n  dup3\n    /* \"#utility.yul\":697:710   */\n  gt\n    /* \"#utility.yul\":694:733   */\n  iszero\n  tag_56\n  jumpi\n    /* \"#utility.yul\":713:731   */\n  tag_56\n  tag_47\n  jump\t// in\ntag_56:\n  pop\n    /* \"#utility.yul\":749:758   */\n  add\n  swap1\n    /* \"#utility.yul\":636:764   */\n  jump\t// out\n    /* \"#utility.yul\":951:1331   */\ntag_37:\n    /* \"#utility.yul\":1030:1031   */\n  0x01\n    /* \"#utility.yul\":1026:1038   */\n  dup2\n  dup2\n  shr\n  swap1\n    /* \"#utility.yul\":1073:1085   */\n  dup3\n  and\n  dup1\n    /* \"#utility.yul\":1094:1155   */\n  tag_59\n  jumpi\n    /* \"#utility.yul\":1148:1152   */\n  0x7f\n    /* \"#utility.yul\":1140:1146   */\n  dup3\n    /* \"#utility.yul\":1136:1153   */\n  and\n    /* \"#utility.yul\":1126:1153   */\n  swap2\n  pop\n    /* \"#utility.yul\":1094:1155   */\ntag_59:\n    /* \"#utility.yul\":1201:1203   */\n  0x20\n    /* \"#utility.yul\":1193:1199   */\n  dup3\n    /* \"#utility.yul\":1190:1204   */\n  lt\n    /* \"#utility.yul\":1170:1188   */\n  dup2\n    /* \"#utility.yul\":1167:1205   */\n  eq\n    /* \"#utility.yul\":1164:1325   */\n  iszero\n  tag_60\n  jumpi\n    /* \"#utility.yul\":1247:1257   */\n  0x4e487b71\n    /* \"#utility.yul\":1242:1245   */\n  0xe0\n    /* \"#utility.yul\":1238:1258   */\n  shl\n    /* \"#utility.yul\":1235:1236   */\n  0x00\n    /* \"#utility.yul\":1228:1259   */\n  mstore\n    /* \"#utility.yul\":1282:1286   */\n  0x22\n    /* \"#utility.yul\":1279:1280   */\n  0x04\n    /* \"#utility.yul\":1272:1287   */\n  mstore\n    /* \"#utility.yul\":1310:1314   */\n  0x24\n    /* \"#utility.yul\":1307:1308   */\n  0x00\n    /* \"#utility.yul\":1300:1315   */\n  revert\n    /* \"#utility.yul\":1164:1325   */\ntag_60:\n  pop\n    /* \"#utility.yul\":951:1331   */\n  swap2\n  swap1\n  pop\n  jump\t// out\ntag_48:\n    /* \"contracts/TikToken.sol\":175:8107  contract TikToken is ERC20, Ownable {... */\n  dataSize(sub_0)\n  dup1\n  dataOffset(sub_0)\n  0x00\n  codecopy\n  0x00\n  return\nstop\n\nsub_0: assembly {\n        /* \"contracts/TikToken.sol\":175:8107  contract TikToken is ERC20, Ownable {... */\n      mstore(0x40, 0x80)\n      callvalue\n      dup1\n      iszero\n      tag_1\n      jumpi\n      0x00\n      dup1\n      revert\n    tag_1:\n      pop\n      jumpi(tag_2, lt(calldatasize, 0x04))\n      shr(0xe0, calldataload(0x00))\n      dup1\n      0x715018a6\n      gt\n      tag_23\n      jumpi\n      dup1\n      0xd559f05b\n      gt\n      tag_24\n      jumpi\n      dup1\n      0xd559f05b\n      eq\n      tag_18\n      jumpi\n      dup1\n      0xda0239a6\n      eq\n      tag_19\n      jumpi\n      dup1\n      0xdd62ed3e\n      eq\n      tag_20\n      jumpi\n      dup1\n      0xe5b95595\n      eq\n      tag_21\n      jumpi\n      dup1\n      0xf2fde38b\n      eq\n      tag_22\n      jumpi\n      0x00\n      dup1\n      revert\n    tag_24:\n      dup1\n      0x715018a6\n      eq\n      tag_13\n      jumpi\n      dup1\n      0x8da5cb5b\n      eq\n      tag_14\n      jumpi\n      dup1\n      0x95d89b41\n      eq\n      tag_15\n      jumpi\n      dup1\n      0xa457c2d7\n      eq\n      tag_16\n      jumpi\n      dup1\n      0xa9059cbb\n      eq\n      tag_17\n      jumpi\n      0x00\n      dup1\n      revert\n    tag_23:\n      dup1\n      0x23b872dd\n      gt\n      tag_25\n      jumpi\n      dup1\n      0x23b872dd\n      eq\n      tag_8\n      jumpi\n      dup1\n      0x313ce567\n      eq\n      tag_9\n      jumpi\n      dup1\n      0x331d17c1\n      eq\n      tag_10\n      jumpi\n      dup1\n      0x39509351\n      eq\n      tag_11\n      jumpi\n      dup1\n      0x70a08231\n      eq\n      tag_12\n      jumpi\n      0x00\n      dup1\n      revert\n    tag_25:\n      dup1\n      0x06fdde03\n      eq\n      tag_3\n      jumpi\n      dup1\n      0x07621eca\n      eq\n      tag_4\n      jumpi\n      dup1\n      0x095ea7b3\n      eq\n      tag_5\n      jumpi\n      dup1\n      0x156e29f6\n      eq\n      tag_6\n      jumpi\n      dup1\n      0x18160ddd\n      eq\n      tag_7\n      jumpi\n    tag_2:\n      0x00\n      dup1\n      revert\n        /* \"@openzeppelin/contracts/token/ERC20/ERC20.sol\":2158:2256  function name() public view virtual override returns (string memory) {... */\n    tag_3:\n      tag_26\n      tag_27\n      jump\t// in\n    tag_26:\n      mload(0x40)\n      tag_28\n      swap2\n      swap1\n      tag_29\n      jump\t// in\n    tag_28:\n      mload(0x40)\n      dup1\n      swap2\n      sub\n      swap1\n      return\n        /* \"contracts/TikToken.sol\":7497:7669  function currentReward() external view returns (uint256) {... */\n    tag_4:\n        /* \"contracts/TikToken.sol\":7572:7586  _currentReward */\n      sload(0x07)\n        /* \"contracts/TikToken.sol\":7497:7669  function currentReward() external view returns (uint256) {... */\n    tag_30:\n      mload(0x40)\n        /* \"#utility.yul\":762:787   */\n      swap1\n      dup2\n      mstore\n        /* \"#utility.yul\":750:752   */\n      0x20\n        /* \"#utility.yul\":735:753   */\n      add\n        /* \"contracts/TikToken.sol\":7497:7669  function currentReward() external view returns (uint256) {... */\n      tag_28\n        /* \"#utility.yul\":616:793   */\n      jump\n        /* \"@openzeppelin/contracts/token/ERC20/ERC20.sol\":4444:4641  function approve(address spender, uint256 amount) public virtual override returns (bool) {... */\n    tag_5:\n      tag_34\n      tag_35\n      calldatasize\n      0x04\n      tag_36\n      jump\t// in\n    tag_35:\n      tag_37\n      jump\t// in\n    tag_34:\n      mload(0x40)\n        /* \"#utility.yul\":1400:1414   */\n      swap1\n      iszero\n        /* \"#utility.yul\":1393:1415   */\n      iszero\n        /* \"#utility.yul\":1375:1416   */\n      dup2\n      mstore\n        /* \"#utility.yul\":1363:1365   */\n      0x20\n        /* \"#utility.yul\":1348:1366   */\n      add\n        /* \"@openzeppelin/contracts/token/ERC20/ERC20.sol\":4444:4641  function approve(address spender, uint256 amount) public virtual override returns (bool) {... */\n      tag_28\n        /* \"#utility.yul\":1235:1422   */\n      jump\n        /* \"contracts/TikToken.sol\":2115:4503  function mint(address account, uint256 followers, uint256 id) external onlyOwner {... */\n    tag_6:\n      tag_40\n      tag_41\n      calldatasize\n      0x04\n      tag_42\n      jump\t// in\n    tag_41:\n      tag_43\n      jump\t// in\n    tag_40:\n      stop\n        /* \"@openzeppelin/contracts/token/ERC20/ERC20.sol\":3255:3361  function totalSupply() public view virtual override returns (uint256) {... */\n    tag_7:\n        /* \"@openzeppelin/contracts/token/ERC20/ERC20.sol\":3342:3354  _totalSupply */\n      sload(0x02)\n        /* \"@openzeppelin/contracts/token/ERC20/ERC20.sol\":3255:3361  function totalSupply() public view virtual override returns (uint256) {... */\n      jump(tag_30)\n        /* \"@openzeppelin/contracts/token/ERC20/ERC20.sol\":5203:5459  function transferFrom(address from, address to, uint256 amount) public virtual override returns (bool) {... */\n    tag_8:\n      tag_34\n      tag_48\n      calldatasize\n      0x04\n      tag_49\n      jump\t// in\n    tag_48:\n      tag_50\n      jump\t// in\n        /* \"contracts/TikToken.sol\":8011:8104  function decimals() public view virtual override returns (uint8) {... */\n    tag_9:\n      mload(0x40)\n        /* \"contracts/TikToken.sol\":8094:8096  24 */\n      0x18\n        /* \"#utility.yul\":2229:2265   */\n      dup2\n      mstore\n        /* \"#utility.yul\":2217:2219   */\n      0x20\n        /* \"#utility.yul\":2202:2220   */\n      add\n        /* \"contracts/TikToken.sol\":8011:8104  function decimals() public view virtual override returns (uint8) {... */\n      tag_28\n        /* \"#utility.yul\":2087:2271   */\n      jump\n        /* \"contracts/TikToken.sol\":7826:7999  function getHalvingCount() external view returns (uint256) {... */\n    tag_10:\n      tag_30\n      tag_57\n      jump\t// in\n        /* \"@openzeppelin/contracts/token/ERC20/ERC20.sol\":5854:6088  function increaseAllowance(address spender, uint256 addedValue) public virtual returns (bool) {... */\n    tag_11:\n      tag_34\n      tag_60\n      calldatasize\n      0x04\n      tag_36\n      jump\t// in\n    tag_60:\n      tag_61\n      jump\t// in\n        /* \"@openzeppelin/contracts/token/ERC20/ERC20.sol\":3419:3544  function balanceOf(address account) public view virtual override returns (uint256) {... */\n    tag_12:\n      tag_30\n      tag_64\n      calldatasize\n      0x04\n      tag_65\n      jump\t// in\n    tag_64:\n      sub(shl(0xa0, 0x01), 0x01)\n        /* \"@openzeppelin/contracts/token/ERC20/ERC20.sol\":3519:3537  _balances[account] */\n      and\n        /* \"@openzeppelin/contracts/token/ERC20/ERC20.sol\":3493:3500  uint256 */\n      0x00\n        /* \"@openzeppelin/contracts/token/ERC20/ERC20.sol\":3519:3537  _balances[account] */\n      swap1\n      dup2\n      mstore\n      0x20\n      dup2\n      swap1\n      mstore\n      0x40\n      swap1\n      keccak256\n      sload\n      swap1\n        /* \"@openzeppelin/contracts/token/ERC20/ERC20.sol\":3419:3544  function balanceOf(address account) public view virtual override returns (uint256) {... */\n      jump\n        /* \"@openzeppelin/contracts/access/Ownable.sol\":1824:1925  function renounceOwnership() public virtual onlyOwner {... */\n    tag_13:\n      tag_40\n      tag_69\n      jump\t// in\n        /* \"@openzeppelin/contracts/access/Ownable.sol\":1201:1286  function owner() public view virtual returns (address) {... */\n    tag_14:\n        /* \"@openzeppelin/contracts/access/Ownable.sol\":1273:1279  _owner */\n      sload(0x05)\n        /* \"@openzeppelin/contracts/access/Ownable.sol\":1201:1286  function owner() public view virtual returns (address) {... */\n      mload(0x40)\n      sub(shl(0xa0, 0x01), 0x01)\n        /* \"@openzeppelin/contracts/access/Ownable.sol\":1273:1279  _owner */\n      swap1\n      swap2\n      and\n        /* \"#utility.yul\":2613:2664   */\n      dup2\n      mstore\n        /* \"#utility.yul\":2601:2603   */\n      0x20\n        /* \"#utility.yul\":2586:2604   */\n      add\n        /* \"@openzeppelin/contracts/access/Ownable.sol\":1201:1286  function owner() public view virtual returns (address) {... */\n      tag_28\n        /* \"#utility.yul\":2467:2670   */\n      jump\n        /* \"@openzeppelin/contracts/token/ERC20/ERC20.sol\":2369:2471  function symbol() public view virtual override returns (string memory) {... */\n    tag_15:\n      tag_26\n      tag_75\n      jump\t// in\n        /* \"@openzeppelin/contracts/token/ERC20/ERC20.sol\":6575:7002  function decreaseAllowance(address spender, uint256 subtractedValue) public virtual returns (bool) {... */\n    tag_16:\n      tag_34\n      tag_78\n      calldatasize\n      0x04\n      tag_36\n      jump\t// in\n    tag_78:\n      tag_79\n      jump\t// in\n        /* \"@openzeppelin/contracts/token/ERC20/ERC20.sol\":3740:3929  function transfer(address to, uint256 amount) public virtual override returns (bool) {... */\n    tag_17:\n      tag_34\n      tag_82\n      calldatasize\n      0x04\n      tag_36\n      jump\t// in\n    tag_82:\n      tag_83\n      jump\t// in\n        /* \"contracts/TikToken.sol\":4545:7335  function batchMint(address[] calldata accounts, uint256[] calldata followers, uint256[] calldata ids) external onlyOwner {... */\n    tag_18:\n      tag_40\n      tag_86\n      calldatasize\n      0x04\n      tag_87\n      jump\t// in\n    tag_86:\n      tag_88\n      jump\t// in\n        /* \"contracts/TikToken.sol\":7343:7489  function remainingSupply() external view returns (uint256) {... */\n    tag_19:\n        /* \"contracts/TikToken.sol\":7420:7436  _remainingSupply */\n      sload(0x06)\n        /* \"contracts/TikToken.sol\":7343:7489  function remainingSupply() external view returns (uint256) {... */\n      jump(tag_30)\n        /* \"@openzeppelin/contracts/token/ERC20/ERC20.sol\":3987:4136  function allowance(address owner, address spender) public view virtual override returns (uint256) {... */\n    tag_20:\n      tag_30\n      tag_93\n      calldatasize\n      0x04\n      tag_94\n      jump\t// in\n    tag_93:\n      tag_95\n      jump\t// in\n        /* \"contracts/TikToken.sol\":7677:7818  function hasMinted(uint256 id) external view returns (bool) {... */\n    tag_21:\n      tag_34\n      tag_98\n      calldatasize\n      0x04\n      tag_99\n      jump\t// in\n    tag_98:\n        /* \"contracts/TikToken.sol\":7731:7735  bool */\n      0x00\n        /* \"contracts/TikToken.sol\":7755:7766  _minted[id] */\n      swap1\n      dup2\n      mstore\n        /* \"contracts/TikToken.sol\":7755:7762  _minted */\n      0x09\n        /* \"contracts/TikToken.sol\":7755:7766  _minted[id] */\n      0x20\n      mstore\n      0x40\n      swap1\n      keccak256\n      sload\n      0xff\n      and\n      swap1\n        /* \"contracts/TikToken.sol\":7677:7818  function hasMinted(uint256 id) external view returns (bool) {... */\n      jump\n        /* \"@openzeppelin/contracts/access/Ownable.sol\":2074:2272  function transferOwnership(address newOwner) public virtual onlyOwner {... */\n    tag_22:\n      tag_40\n      tag_103\n      calldatasize\n      0x04\n      tag_65\n      jump\t// in\n    tag_103:\n      tag_104\n      jump\t// in\n        /* \"@openzeppelin/contracts/token/ERC20/ERC20.sol\":2158:2256  function name() public view virtual override returns (string memory) {... */\n    tag_27:\n        /* \"@openzeppelin/contracts/token/ERC20/ERC20.sol\":2212:2225  string memory */\n      0x60\n        /* \"@openzeppelin/contracts/token/ERC20/ERC20.sol\":2244:2249  _name */\n      0x03\n        /* \"@openzeppelin/contracts/token/ERC20/ERC20.sol\":2237:2249  return _name */\n      dup1\n      sload\n      tag_106\n      swap1\n      tag_107\n      jump\t// in\n    tag_106:\n      dup1\n      0x1f\n      add\n      0x20\n      dup1\n      swap2\n      div\n      mul\n      0x20\n      add\n      mload(0x40)\n      swap1\n      dup2\n      add\n      0x40\n      mstore\n      dup1\n      swap3\n      swap2\n      swap1\n      dup2\n      dup2\n      mstore\n      0x20\n      add\n      dup3\n      dup1\n      sload\n      tag_108\n      swap1\n      tag_107\n      jump\t// in\n    tag_108:\n      dup1\n      iszero\n      tag_109\n      jumpi\n      dup1\n      0x1f\n      lt\n      tag_110\n      jumpi\n      0x0100\n      dup1\n      dup4\n      sload\n      div\n      mul\n      dup4\n      mstore\n      swap2\n      0x20\n      add\n      swap2\n      jump(tag_109)\n    tag_110:\n      dup3\n      add\n      swap2\n      swap1\n      0x00\n      mstore\n      keccak256(0x00, 0x20)\n      swap1\n    tag_111:\n      dup2\n      sload\n      dup2\n      mstore\n      swap1\n      0x01\n      add\n      swap1\n      0x20\n      add\n      dup1\n      dup4\n      gt\n      tag_111\n      jumpi\n      dup3\n      swap1\n      sub\n      0x1f\n      and\n      dup3\n      add\n      swap2\n    tag_109:\n      pop\n      pop\n      pop\n      pop\n      pop\n      swap1\n      pop\n        /* \"@openzeppelin/contracts/token/ERC20/ERC20.sol\":2158:2256  function name() public view virtual override returns (string memory) {... */\n      swap1\n      jump\t// out\n        /* \"@openzeppelin/contracts/token/ERC20/ERC20.sol\":4444:4641  function approve(address spender, uint256 amount) public virtual override returns (bool) {... */\n    tag_37:\n        /* \"@openzeppelin/contracts/token/ERC20/ERC20.sol\":4527:4531  bool */\n      0x00\n        /* \"@openzeppelin/contracts/utils/Context.sol\":719:729  msg.sender */\n      caller\n        /* \"@openzeppelin/contracts/token/ERC20/ERC20.sol\":4581:4613  _approve(owner, spender, amount) */\n      tag_116\n        /* \"@openzeppelin/contracts/utils/Context.sol\":719:729  msg.sender */\n      dup2\n        /* \"@openzeppelin/contracts/token/ERC20/ERC20.sol\":4597:4604  spender */\n      dup6\n        /* \"@openzeppelin/contracts/token/ERC20/ERC20.sol\":4606:4612  amount */\n      dup6\n        /* \"@openzeppelin/contracts/token/ERC20/ERC20.sol\":4581:4589  _approve */\n      tag_117\n        /* \"@openzeppelin/contracts/token/ERC20/ERC20.sol\":4581:4613  _approve(owner, spender, amount) */\n      jump\t// in\n    tag_116:\n        /* \"@openzeppelin/contracts/token/ERC20/ERC20.sol\":4630:4634  true */\n      0x01\n        /* \"@openzeppelin/contracts/token/ERC20/ERC20.sol\":4623:4634  return true */\n      swap2\n      pop\n      pop\n        /* \"@openzeppelin/contracts/token/ERC20/ERC20.sol\":4444:4641  function approve(address spender, uint256 amount) public virtual override returns (bool) {... */\n    tag_113:\n      swap3\n      swap2\n      pop\n      pop\n      jump\t// out\n        /* \"contracts/TikToken.sol\":2115:4503  function mint(address account, uint256 followers, uint256 id) external onlyOwner {... */\n    tag_43:\n        /* \"@openzeppelin/contracts/access/Ownable.sol\":1094:1107  _checkOwner() */\n      tag_119\n        /* \"@openzeppelin/contracts/access/Ownable.sol\":1094:1105  _checkOwner */\n      tag_120\n        /* \"@openzeppelin/contracts/access/Ownable.sol\":1094:1107  _checkOwner() */\n      jump\t// in\n    tag_119:\n        /* \"contracts/TikToken.sol\":2234:2235  0 */\n      0x00\n        /* \"contracts/TikToken.sol\":2215:2231  _remainingSupply */\n      sload(0x06)\n        /* \"contracts/TikToken.sol\":2215:2235  _remainingSupply > 0 */\n      gt\n        /* \"contracts/TikToken.sol\":2207:2262  require(_remainingSupply > 0, \"No more tokens to mint\") */\n      tag_122\n      jumpi\n      mload(0x40)\n      shl(0xe5, 0x461bcd)\n      dup2\n      mstore\n        /* \"#utility.yul\":5177:5179   */\n      0x20\n        /* \"contracts/TikToken.sol\":2207:2262  require(_remainingSupply > 0, \"No more tokens to mint\") */\n      0x04\n      dup3\n      add\n        /* \"#utility.yul\":5159:5180   */\n      mstore\n        /* \"#utility.yul\":5216:5218   */\n      0x16\n        /* \"#utility.yul\":5196:5214   */\n      0x24\n      dup3\n      add\n        /* \"#utility.yul\":5189:5219   */\n      mstore\n      shl(0x52, 0x139bc81b5bdc99481d1bdad95b9cc81d1bc81b5a5b9d)\n        /* \"#utility.yul\":5235:5253   */\n      0x44\n      dup3\n      add\n        /* \"#utility.yul\":5228:5280   */\n      mstore\n        /* \"#utility.yul\":5297:5315   */\n      0x64\n      add\n        /* \"contracts/TikToken.sol\":2207:2262  require(_remainingSupply > 0, \"No more tokens to mint\") */\n    tag_123:\n      mload(0x40)\n      dup1\n      swap2\n      sub\n      swap1\n      revert\n    tag_122:\n        /* \"contracts/TikToken.sol\":2306:2317  _minted[id] */\n      0x00\n      dup2\n      dup2\n      mstore\n        /* \"contracts/TikToken.sol\":2306:2313  _minted */\n      0x09\n        /* \"contracts/TikToken.sol\":2306:2317  _minted[id] */\n      0x20\n      mstore\n      0x40\n      swap1\n      keccak256\n      sload\n      0xff\n      and\n        /* \"contracts/TikToken.sol\":2305:2317  !_minted[id] */\n      iszero\n        /* \"contracts/TikToken.sol\":2297:2352  require(!_minted[id], \"User has already minted tokens\") */\n      tag_125\n      jumpi\n      mload(0x40)\n      shl(0xe5, 0x461bcd)\n      dup2\n      mstore\n        /* \"#utility.yul\":5528:5530   */\n      0x20\n        /* \"contracts/TikToken.sol\":2297:2352  require(!_minted[id], \"User has already minted tokens\") */\n      0x04\n      dup3\n      add\n        /* \"#utility.yul\":5510:5531   */\n      mstore\n        /* \"#utility.yul\":5567:5569   */\n      0x1e\n        /* \"#utility.yul\":5547:5565   */\n      0x24\n      dup3\n      add\n        /* \"#utility.yul\":5540:5570   */\n      mstore\n        /* \"#utility.yul\":5606:5638   */\n      0x557365722068617320616c7265616479206d696e74656420746f6b656e730000\n        /* \"#utility.yul\":5586:5604   */\n      0x44\n      dup3\n      add\n        /* \"#utility.yul\":5579:5639   */\n      mstore\n        /* \"#utility.yul\":5656:5674   */\n      0x64\n      add\n        /* \"contracts/TikToken.sol\":2297:2352  require(!_minted[id], \"User has already minted tokens\") */\n      tag_123\n        /* \"#utility.yul\":5326:5680   */\n      jump\n        /* \"contracts/TikToken.sol\":2297:2352  require(!_minted[id], \"User has already minted tokens\") */\n    tag_125:\n        /* \"contracts/TikToken.sol\":2462:2476  _currentReward */\n      sload(0x07)\n        /* \"contracts/TikToken.sol\":2401:2421  uint256 amountToMint */\n      0x00\n      swap1\n        /* \"contracts/TikToken.sol\":2462:2476  _currentReward */\n      dup1\n        /* \"contracts/TikToken.sol\":2425:2441  followers / 1000 */\n      tag_128\n        /* \"contracts/TikToken.sol\":2437:2441  1000 */\n      0x03e8\n        /* \"contracts/TikToken.sol\":2425:2434  followers */\n      dup7\n        /* \"contracts/TikToken.sol\":2425:2441  followers / 1000 */\n      tag_129\n      jump\t// in\n    tag_128:\n        /* \"contracts/TikToken.sol\":2424:2459  (followers / 1000) * _currentReward */\n      tag_130\n      swap2\n      swap1\n      tag_131\n      jump\t// in\n    tag_130:\n        /* \"contracts/TikToken.sol\":2424:2476  (followers / 1000) * _currentReward + _currentReward */\n      tag_132\n      swap2\n      swap1\n      tag_133\n      jump\t// in\n    tag_132:\n        /* \"contracts/TikToken.sol\":2401:2476  uint256 amountToMint = (followers / 1000) * _currentReward + _currentReward */\n      swap1\n      pop\n        /* \"contracts/TikToken.sol\":2532:2551  uint256 nextHalving */\n      0x00\n        /* \"contracts/TikToken.sol\":2577:2590  _halvingCount */\n      sload(0x08)\n        /* \"contracts/TikToken.sol\":2572:2573  2 */\n      0x02\n        /* \"contracts/TikToken.sol\":2572:2590  2 ** _halvingCount */\n      tag_134\n      swap2\n      swap1\n      tag_135\n      jump\t// in\n    tag_134:\n        /* \"contracts/TikToken.sol\":2554:2591  _initialSupply / (2 ** _halvingCount) */\n      tag_136\n      swap1\n        /* \"contracts/TikToken.sol\":403:418  0.8192 * 10**24 */\n      0xad78ebc5ac6200000000\n        /* \"contracts/TikToken.sol\":2554:2591  _initialSupply / (2 ** _halvingCount) */\n      tag_129\n      jump\t// in\n    tag_136:\n        /* \"contracts/TikToken.sol\":2532:2591  uint256 nextHalving = _initialSupply / (2 ** _halvingCount) */\n      swap1\n      pop\n        /* \"contracts/TikToken.sol\":2635:2658  uint256 amountToHalving */\n      0x00\n        /* \"contracts/TikToken.sol\":2680:2691  nextHalving */\n      dup2\n        /* \"contracts/TikToken.sol\":2661:2677  _remainingSupply */\n      sload(0x06)\n        /* \"contracts/TikToken.sol\":2661:2691  _remainingSupply - nextHalving */\n      tag_137\n      swap2\n      swap1\n      tag_138\n      jump\t// in\n    tag_137:\n        /* \"contracts/TikToken.sol\":2635:2691  uint256 amountToHalving = _remainingSupply - nextHalving */\n      swap1\n      pop\n        /* \"contracts/TikToken.sol\":2870:2882  amountToMint */\n      dup3\n        /* \"contracts/TikToken.sol\":2851:2866  amountToHalving */\n      dup2\n        /* \"contracts/TikToken.sol\":2851:2882  amountToHalving <= amountToMint */\n      gt\n      iszero\n        /* \"contracts/TikToken.sol\":2851:2913  amountToHalving <= amountToMint && _currentReward > _minReward */\n      dup1\n      iszero\n      tag_139\n      jumpi\n      pop\n        /* \"contracts/TikToken.sol\":525:560  0.000000000000000000000001 * 10**24 */\n      0x01\n        /* \"contracts/TikToken.sol\":2886:2900  _currentReward */\n      sload(0x07)\n        /* \"contracts/TikToken.sol\":2886:2913  _currentReward > _minReward */\n      gt\n        /* \"contracts/TikToken.sol\":2851:2913  amountToHalving <= amountToMint && _currentReward > _minReward */\n    tag_139:\n        /* \"contracts/TikToken.sol\":2847:3845  if (amountToHalving <= amountToMint && _currentReward > _minReward) {... */\n      iszero\n      tag_140\n      jumpi\n        /* \"contracts/TikToken.sol\":2945:2960  amountToHalving */\n      dup1\n        /* \"contracts/TikToken.sol\":2930:2960  amountToMint = amountToHalving */\n      swap3\n      pop\n        /* \"contracts/TikToken.sol\":3025:3051  uint256 remainingFollowers */\n      0x00\n        /* \"contracts/TikToken.sol\":3090:3104  _currentReward */\n      sload(0x07)\n        /* \"contracts/TikToken.sol\":3067:3079  amountToMint */\n      dup5\n        /* \"contracts/TikToken.sol\":3082:3086  1000 */\n      0x03e8\n        /* \"contracts/TikToken.sol\":3067:3086  amountToMint * 1000 */\n      tag_141\n      swap2\n      swap1\n      tag_131\n      jump\t// in\n    tag_141:\n        /* \"contracts/TikToken.sol\":3067:3105  amountToMint * 1000 / (_currentReward) */\n      tag_142\n      swap2\n      swap1\n      tag_129\n      jump\t// in\n    tag_142:\n        /* \"contracts/TikToken.sol\":3054:3106  followers - (amountToMint * 1000 / (_currentReward)) */\n      tag_143\n      swap1\n        /* \"contracts/TikToken.sol\":3054:3063  followers */\n      dup8\n        /* \"contracts/TikToken.sol\":3054:3106  followers - (amountToMint * 1000 / (_currentReward)) */\n      tag_138\n      jump\t// in\n    tag_143:\n        /* \"contracts/TikToken.sol\":3025:3106  uint256 remainingFollowers = followers - (amountToMint * 1000 / (_currentReward)) */\n      swap1\n      pop\n        /* \"contracts/TikToken.sol\":3163:3187  uint256 additionalReward */\n      0x00\n        /* \"contracts/TikToken.sol\":3261:3262  2 */\n      0x02\n        /* \"contracts/TikToken.sol\":3244:3258  _currentReward */\n      sload(0x07)\n        /* \"contracts/TikToken.sol\":3244:3262  _currentReward / 2 */\n      tag_144\n      swap2\n      swap1\n      tag_129\n      jump\t// in\n    tag_144:\n        /* \"contracts/TikToken.sol\":3238:3239  2 */\n      0x02\n        /* \"contracts/TikToken.sol\":3221:3235  _currentReward */\n      sload(0x07)\n        /* \"contracts/TikToken.sol\":3221:3239  _currentReward / 2 */\n      tag_145\n      swap2\n      swap1\n      tag_129\n      jump\t// in\n    tag_145:\n        /* \"contracts/TikToken.sol\":3191:3216  remainingFollowers / 1000 */\n      tag_146\n        /* \"contracts/TikToken.sol\":3212:3216  1000 */\n      0x03e8\n        /* \"contracts/TikToken.sol\":3191:3209  remainingFollowers */\n      dup6\n        /* \"contracts/TikToken.sol\":3191:3216  remainingFollowers / 1000 */\n      tag_129\n      jump\t// in\n    tag_146:\n        /* \"contracts/TikToken.sol\":3190:3240  (remainingFollowers / 1000) * (_currentReward / 2) */\n      tag_147\n      swap2\n      swap1\n      tag_131\n      jump\t// in\n    tag_147:\n        /* \"contracts/TikToken.sol\":3190:3263  (remainingFollowers / 1000) * (_currentReward / 2) + (_currentReward / 2) */\n      tag_148\n      swap2\n      swap1\n      tag_133\n      jump\t// in\n    tag_148:\n        /* \"contracts/TikToken.sol\":3163:3263  uint256 additionalReward = (remainingFollowers / 1000) * (_currentReward / 2) + (_currentReward / 2) */\n      swap1\n      pop\n        /* \"contracts/TikToken.sol\":3463:3478  nextHalving / 2 */\n      tag_149\n        /* \"contracts/TikToken.sol\":3477:3478  2 */\n      0x02\n        /* \"contracts/TikToken.sol\":3463:3474  nextHalving */\n      dup6\n        /* \"contracts/TikToken.sol\":3463:3478  nextHalving / 2 */\n      tag_129\n      jump\t// in\n    tag_149:\n        /* \"contracts/TikToken.sol\":3443:3459  additionalReward */\n      dup2\n        /* \"contracts/TikToken.sol\":3443:3478  additionalReward >= nextHalving / 2 */\n      lt\n        /* \"contracts/TikToken.sol\":3439:3739  if (additionalReward >= nextHalving / 2) {... */\n      tag_150\n      jumpi\n        /* \"contracts/TikToken.sol\":3538:3552  _currentReward */\n      sload(0x07)\n        /* \"contracts/TikToken.sol\":3519:3534  nextHalving / 2 */\n      tag_151\n        /* \"contracts/TikToken.sol\":3533:3534  2 */\n      0x02\n        /* \"contracts/TikToken.sol\":3519:3530  nextHalving */\n      dup7\n        /* \"contracts/TikToken.sol\":3519:3534  nextHalving / 2 */\n      tag_129\n      jump\t// in\n    tag_151:\n        /* \"contracts/TikToken.sol\":3518:3552  (nextHalving / 2) - _currentReward */\n      tag_152\n      swap2\n      swap1\n      tag_138\n      jump\t// in\n    tag_152:\n        /* \"contracts/TikToken.sol\":3499:3552  additionalReward = (nextHalving / 2) - _currentReward */\n      swap1\n      pop\n        /* \"contracts/TikToken.sol\":3439:3739  if (additionalReward >= nextHalving / 2) {... */\n    tag_150:\n        /* \"contracts/TikToken.sol\":3753:3785  amountToMint += additionalReward */\n      tag_153\n        /* \"contracts/TikToken.sol\":3769:3785  additionalReward */\n      dup2\n        /* \"contracts/TikToken.sol\":3753:3785  amountToMint += additionalReward */\n      dup7\n      tag_133\n      jump\t// in\n    tag_153:\n      swap5\n      pop\n        /* \"contracts/TikToken.sol\":2915:3845  {... */\n      pop\n      pop\n        /* \"contracts/TikToken.sol\":2847:3845  if (amountToHalving <= amountToMint && _currentReward > _minReward) {... */\n    tag_140:\n        /* \"contracts/TikToken.sol\":3926:3938  amountToMint */\n      dup3\n        /* \"contracts/TikToken.sol\":3907:3923  _remainingSupply */\n      sload(0x06)\n        /* \"contracts/TikToken.sol\":3907:3938  _remainingSupply < amountToMint */\n      lt\n        /* \"contracts/TikToken.sol\":3903:3998  if (_remainingSupply < amountToMint) {... */\n      iszero\n      tag_154\n      jumpi\n        /* \"contracts/TikToken.sol\":3970:3986  _remainingSupply */\n      sload(0x06)\n        /* \"contracts/TikToken.sol\":3955:3986  amountToMint = _remainingSupply */\n      swap3\n      pop\n        /* \"contracts/TikToken.sol\":3903:3998  if (_remainingSupply < amountToMint) {... */\n    tag_154:\n        /* \"contracts/TikToken.sol\":4082:4110  _mint(account, amountToMint) */\n      tag_155\n        /* \"contracts/TikToken.sol\":4088:4095  account */\n      dup7\n        /* \"contracts/TikToken.sol\":4097:4109  amountToMint */\n      dup5\n        /* \"contracts/TikToken.sol\":4082:4087  _mint */\n      tag_156\n        /* \"contracts/TikToken.sol\":4082:4110  _mint(account, amountToMint) */\n      jump\t// in\n    tag_155:\n        /* \"contracts/TikToken.sol\":4141:4153  amountToMint */\n      dup3\n        /* \"contracts/TikToken.sol\":4121:4137  _remainingSupply */\n      0x06\n      0x00\n        /* \"contracts/TikToken.sol\":4121:4153  _remainingSupply -= amountToMint */\n      dup3\n      dup3\n      sload\n      tag_157\n      swap2\n      swap1\n      tag_138\n      jump\t// in\n    tag_157:\n      swap1\n      swap2\n      sstore\n      pop\n      pop\n        /* \"contracts/TikToken.sol\":4164:4175  _minted[id] */\n      0x00\n      dup5\n      dup2\n      mstore\n        /* \"contracts/TikToken.sol\":4164:4171  _minted */\n      0x09\n        /* \"contracts/TikToken.sol\":4164:4175  _minted[id] */\n      0x20\n      mstore\n      0x40\n      swap1\n      keccak256\n        /* \"contracts/TikToken.sol\":4164:4182  _minted[id] = true */\n      dup1\n      sload\n      not(0xff)\n      and\n        /* \"contracts/TikToken.sol\":4178:4182  true */\n      0x01\n        /* \"contracts/TikToken.sol\":4164:4182  _minted[id] = true */\n      or\n      swap1\n      sstore\n        /* \"contracts/TikToken.sol\":4354:4370  _remainingSupply */\n      sload(0x06)\n        /* \"contracts/TikToken.sol\":4354:4385  _remainingSupply <= nextHalving */\n      dup3\n      lt\n      dup1\n      iszero\n      swap1\n        /* \"contracts/TikToken.sol\":4354:4416  _remainingSupply <= nextHalving && _currentReward > _minReward */\n      tag_158\n      jumpi\n      pop\n        /* \"contracts/TikToken.sol\":525:560  0.000000000000000000000001 * 10**24 */\n      0x01\n        /* \"contracts/TikToken.sol\":4389:4403  _currentReward */\n      sload(0x07)\n        /* \"contracts/TikToken.sol\":4389:4416  _currentReward > _minReward */\n      gt\n        /* \"contracts/TikToken.sol\":4354:4416  _remainingSupply <= nextHalving && _currentReward > _minReward */\n    tag_158:\n        /* \"contracts/TikToken.sol\":4350:4496  if (_remainingSupply <= nextHalving && _currentReward > _minReward) {... */\n      iszero\n      tag_159\n      jumpi\n        /* \"contracts/TikToken.sol\":4451:4453  10 */\n      0x0a\n        /* \"contracts/TikToken.sol\":4433:4447  _currentReward */\n      0x07\n      0x00\n        /* \"contracts/TikToken.sol\":4433:4453  _currentReward /= 10 */\n      dup3\n      dup3\n      sload\n      tag_160\n      swap2\n      swap1\n      tag_129\n      jump\t// in\n    tag_160:\n      swap1\n      swap2\n      sstore\n      pop\n      pop\n        /* \"contracts/TikToken.sol\":4469:4482  _halvingCount */\n      0x08\n        /* \"contracts/TikToken.sol\":4469:4484  _halvingCount++ */\n      dup1\n      sload\n      swap1\n        /* \"contracts/TikToken.sol\":4469:4482  _halvingCount */\n      0x00\n        /* \"contracts/TikToken.sol\":4469:4484  _halvingCount++ */\n      tag_161\n      dup4\n      tag_162\n      jump\t// in\n    tag_161:\n      swap2\n      swap1\n      pop\n      sstore\n      pop\n        /* \"contracts/TikToken.sol\":4350:4496  if (_remainingSupply <= nextHalving && _currentReward > _minReward) {... */\n    tag_159:\n        /* \"contracts/TikToken.sol\":2196:4503  {... */\n      pop\n      pop\n      pop\n        /* \"contracts/TikToken.sol\":2115:4503  function mint(address account, uint256 followers, uint256 id) external onlyOwner {... */\n      pop\n      pop\n      pop\n      jump\t// out\n        /* \"@openzeppelin/contracts/token/ERC20/ERC20.sol\":5203:5459  function transferFrom(address from, address to, uint256 amount) public virtual override returns (bool) {... */\n    tag_50:\n        /* \"@openzeppelin/contracts/token/ERC20/ERC20.sol\":5300:5304  bool */\n      0x00\n        /* \"@openzeppelin/contracts/utils/Context.sol\":719:729  msg.sender */\n      caller\n        /* \"@openzeppelin/contracts/token/ERC20/ERC20.sol\":5356:5394  _spendAllowance(from, spender, amount) */\n      tag_166\n        /* \"@openzeppelin/contracts/token/ERC20/ERC20.sol\":5372:5376  from */\n      dup6\n        /* \"@openzeppelin/contracts/utils/Context.sol\":719:729  msg.sender */\n      dup3\n        /* \"@openzeppelin/contracts/token/ERC20/ERC20.sol\":5387:5393  amount */\n      dup6\n        /* \"@openzeppelin/contracts/token/ERC20/ERC20.sol\":5356:5371  _spendAllowance */\n      tag_167\n        /* \"@openzeppelin/contracts/token/ERC20/ERC20.sol\":5356:5394  _spendAllowance(from, spender, amount) */\n      jump\t// in\n    tag_166:\n        /* \"@openzeppelin/contracts/token/ERC20/ERC20.sol\":5404:5431  _transfer(from, to, amount) */\n      tag_168\n        /* \"@openzeppelin/contracts/token/ERC20/ERC20.sol\":5414:5418  from */\n      dup6\n        /* \"@openzeppelin/contracts/token/ERC20/ERC20.sol\":5420:5422  to */\n      dup6\n        /* \"@openzeppelin/contracts/token/ERC20/ERC20.sol\":5424:5430  amount */\n      dup6\n        /* \"@openzeppelin/contracts/token/ERC20/ERC20.sol\":5404:5413  _transfer */\n      tag_169\n        /* \"@openzeppelin/contracts/token/ERC20/ERC20.sol\":5404:5431  _transfer(from, to, amount) */\n      jump\t// in\n    tag_168:\n      pop\n        /* \"@openzeppelin/contracts/token/ERC20/ERC20.sol\":5448:5452  true */\n      0x01\n      swap5\n        /* \"@openzeppelin/contracts/token/ERC20/ERC20.sol\":5203:5459  function transferFrom(address from, address to, uint256 amount) public virtual override returns (bool) {... */\n      swap4\n      pop\n      pop\n      pop\n      pop\n      jump\t// out\n        /* \"contracts/TikToken.sol\":7826:7999  function getHalvingCount() external view returns (uint256) {... */\n    tag_57:\n        /* \"contracts/TikToken.sol\":7876:7883  uint256 */\n      0x00\n        /* \"contracts/TikToken.sol\":7919:7920  1 */\n      0x01\n        /* \"contracts/TikToken.sol\":7903:7916  _halvingCount */\n      sload(0x08)\n        /* \"contracts/TikToken.sol\":7903:7920  _halvingCount - 1 */\n      tag_172\n      swap2\n      swap1\n      tag_138\n      jump\t// in\n    tag_172:\n        /* \"contracts/TikToken.sol\":7896:7920  return _halvingCount - 1 */\n      swap1\n      pop\n        /* \"contracts/TikToken.sol\":7826:7999  function getHalvingCount() external view returns (uint256) {... */\n      swap1\n      jump\t// out\n        /* \"@openzeppelin/contracts/token/ERC20/ERC20.sol\":5854:6088  function increaseAllowance(address spender, uint256 addedValue) public virtual returns (bool) {... */\n    tag_61:\n        /* \"@openzeppelin/contracts/token/ERC20/ERC20.sol\":5942:5946  bool */\n      0x00\n        /* \"@openzeppelin/contracts/utils/Context.sol\":719:729  msg.sender */\n      caller\n        /* \"@openzeppelin/contracts/token/ERC20/ERC20.sol\":5996:6060  _approve(owner, spender, allowance(owner, spender) + addedValue) */\n      tag_116\n        /* \"@openzeppelin/contracts/utils/Context.sol\":719:729  msg.sender */\n      dup2\n        /* \"@openzeppelin/contracts/token/ERC20/ERC20.sol\":6012:6019  spender */\n      dup6\n        /* \"@openzeppelin/contracts/token/ERC20/ERC20.sol\":6049:6059  addedValue */\n      dup6\n        /* \"@openzeppelin/contracts/token/ERC20/ERC20.sol\":6021:6046  allowance(owner, spender) */\n      tag_176\n        /* \"@openzeppelin/contracts/utils/Context.sol\":719:729  msg.sender */\n      dup4\n        /* \"@openzeppelin/contracts/token/ERC20/ERC20.sol\":6012:6019  spender */\n      dup4\n        /* \"@openzeppelin/contracts/token/ERC20/ERC20.sol\":6021:6030  allowance */\n      tag_95\n        /* \"@openzeppelin/contracts/token/ERC20/ERC20.sol\":6021:6046  allowance(owner, spender) */\n      jump\t// in\n    tag_176:\n        /* \"@openzeppelin/contracts/token/ERC20/ERC20.sol\":6021:6059  allowance(owner, spender) + addedValue */\n      tag_177\n      swap2\n      swap1\n      tag_133\n      jump\t// in\n    tag_177:\n        /* \"@openzeppelin/contracts/token/ERC20/ERC20.sol\":5996:6004  _approve */\n      tag_117\n        /* \"@openzeppelin/contracts/token/ERC20/ERC20.sol\":5996:6060  _approve(owner, spender, allowance(owner, spender) + addedValue) */\n      jump\t// in\n        /* \"@openzeppelin/contracts/access/Ownable.sol\":1824:1925  function renounceOwnership() public virtual onlyOwner {... */\n    tag_69:\n        /* \"@openzeppelin/contracts/access/Ownable.sol\":1094:1107  _checkOwner() */\n      tag_180\n        /* \"@openzeppelin/contracts/access/Ownable.sol\":1094:1105  _checkOwner */\n      tag_120\n        /* \"@openzeppelin/contracts/access/Ownable.sol\":1094:1107  _checkOwner() */\n      jump\t// in\n    tag_180:\n        /* \"@openzeppelin/contracts/access/Ownable.sol\":1888:1918  _transferOwnership(address(0)) */\n      tag_182\n        /* \"@openzeppelin/contracts/access/Ownable.sol\":1915:1916  0 */\n      0x00\n        /* \"@openzeppelin/contracts/access/Ownable.sol\":1888:1906  _transferOwnership */\n      tag_183\n        /* \"@openzeppelin/contracts/access/Ownable.sol\":1888:1918  _transferOwnership(address(0)) */\n      jump\t// in\n    tag_182:\n        /* \"@openzeppelin/contracts/access/Ownable.sol\":1824:1925  function renounceOwnership() public virtual onlyOwner {... */\n      jump\t// out\n        /* \"@openzeppelin/contracts/token/ERC20/ERC20.sol\":2369:2471  function symbol() public view virtual override returns (string memory) {... */\n    tag_75:\n        /* \"@openzeppelin/contracts/token/ERC20/ERC20.sol\":2425:2438  string memory */\n      0x60\n        /* \"@openzeppelin/contracts/token/ERC20/ERC20.sol\":2457:2464  _symbol */\n      0x04\n        /* \"@openzeppelin/contracts/token/ERC20/ERC20.sol\":2450:2464  return _symbol */\n      dup1\n      sload\n      tag_106\n      swap1\n      tag_107\n      jump\t// in\n        /* \"@openzeppelin/contracts/token/ERC20/ERC20.sol\":6575:7002  function decreaseAllowance(address spender, uint256 subtractedValue) public virtual returns (bool) {... */\n    tag_79:\n        /* \"@openzeppelin/contracts/token/ERC20/ERC20.sol\":6668:6672  bool */\n      0x00\n        /* \"@openzeppelin/contracts/utils/Context.sol\":719:729  msg.sender */\n      caller\n        /* \"@openzeppelin/contracts/token/ERC20/ERC20.sol\":6668:6672  bool */\n      dup2\n        /* \"@openzeppelin/contracts/token/ERC20/ERC20.sol\":6749:6774  allowance(owner, spender) */\n      tag_193\n        /* \"@openzeppelin/contracts/utils/Context.sol\":719:729  msg.sender */\n      dup3\n        /* \"@openzeppelin/contracts/token/ERC20/ERC20.sol\":6766:6773  spender */\n      dup7\n        /* \"@openzeppelin/contracts/token/ERC20/ERC20.sol\":6749:6758  allowance */\n      tag_95\n        /* \"@openzeppelin/contracts/token/ERC20/ERC20.sol\":6749:6774  allowance(owner, spender) */\n      jump\t// in\n    tag_193:\n        /* \"@openzeppelin/contracts/token/ERC20/ERC20.sol\":6722:6774  uint256 currentAllowance = allowance(owner, spender) */\n      swap1\n      pop\n        /* \"@openzeppelin/contracts/token/ERC20/ERC20.sol\":6812:6827  subtractedValue */\n      dup4\n        /* \"@openzeppelin/contracts/token/ERC20/ERC20.sol\":6792:6808  currentAllowance */\n      dup2\n        /* \"@openzeppelin/contracts/token/ERC20/ERC20.sol\":6792:6827  currentAllowance >= subtractedValue */\n      lt\n      iszero\n        /* \"@openzeppelin/contracts/token/ERC20/ERC20.sol\":6784:6869  require(currentAllowance >= subtractedValue, \"ERC20: decreased allowance below zero\") */\n      tag_194\n      jumpi\n      mload(0x40)\n      shl(0xe5, 0x461bcd)\n      dup2\n      mstore\n        /* \"#utility.yul\":8191:8193   */\n      0x20\n        /* \"@openzeppelin/contracts/token/ERC20/ERC20.sol\":6784:6869  require(currentAllowance >= subtractedValue, \"ERC20: decreased allowance below zero\") */\n      0x04\n      dup3\n      add\n        /* \"#utility.yul\":8173:8194   */\n      mstore\n        /* \"#utility.yul\":8230:8232   */\n      0x25\n        /* \"#utility.yul\":8210:8228   */\n      0x24\n      dup3\n      add\n        /* \"#utility.yul\":8203:8233   */\n      mstore\n        /* \"#utility.yul\":8269:8303   */\n      0x45524332303a2064656372656173656420616c6c6f77616e63652062656c6f77\n        /* \"#utility.yul\":8249:8267   */\n      0x44\n      dup3\n      add\n        /* \"#utility.yul\":8242:8304   */\n      mstore\n      shl(0xd8, 0x207a65726f)\n        /* \"#utility.yul\":8320:8338   */\n      0x64\n      dup3\n      add\n        /* \"#utility.yul\":8313:8348   */\n      mstore\n        /* \"#utility.yul\":8365:8384   */\n      0x84\n      add\n        /* \"@openzeppelin/contracts/token/ERC20/ERC20.sol\":6784:6869  require(currentAllowance >= subtractedValue, \"ERC20: decreased allowance below zero\") */\n      tag_123\n        /* \"#utility.yul\":7989:8390   */\n      jump\n        /* \"@openzeppelin/contracts/token/ERC20/ERC20.sol\":6784:6869  require(currentAllowance >= subtractedValue, \"ERC20: decreased allowance below zero\") */\n    tag_194:\n        /* \"@openzeppelin/contracts/token/ERC20/ERC20.sol\":6903:6963  _approve(owner, spender, currentAllowance - subtractedValue) */\n      tag_168\n        /* \"@openzeppelin/contracts/token/ERC20/ERC20.sol\":6912:6917  owner */\n      dup3\n        /* \"@openzeppelin/contracts/token/ERC20/ERC20.sol\":6919:6926  spender */\n      dup7\n        /* \"@openzeppelin/contracts/token/ERC20/ERC20.sol\":6947:6962  subtractedValue */\n      dup7\n        /* \"@openzeppelin/contracts/token/ERC20/ERC20.sol\":6928:6944  currentAllowance */\n      dup5\n        /* \"@openzeppelin/contracts/token/ERC20/ERC20.sol\":6928:6962  currentAllowance - subtractedValue */\n      sub\n        /* \"@openzeppelin/contracts/token/ERC20/ERC20.sol\":6903:6911  _approve */\n      tag_117\n        /* \"@openzeppelin/contracts/token/ERC20/ERC20.sol\":6903:6963  _approve(owner, spender, currentAllowance - subtractedValue) */\n      jump\t// in\n        /* \"@openzeppelin/contracts/token/ERC20/ERC20.sol\":3740:3929  function transfer(address to, uint256 amount) public virtual override returns (bool) {... */\n    tag_83:\n        /* \"@openzeppelin/contracts/token/ERC20/ERC20.sol\":3819:3823  bool */\n      0x00\n        /* \"@openzeppelin/contracts/utils/Context.sol\":719:729  msg.sender */\n      caller\n        /* \"@openzeppelin/contracts/token/ERC20/ERC20.sol\":3873:3901  _transfer(owner, to, amount) */\n      tag_116\n        /* \"@openzeppelin/contracts/utils/Context.sol\":719:729  msg.sender */\n      dup2\n        /* \"@openzeppelin/contracts/token/ERC20/ERC20.sol\":3890:3892  to */\n      dup6\n        /* \"@openzeppelin/contracts/token/ERC20/ERC20.sol\":3894:3900  amount */\n      dup6\n        /* \"@openzeppelin/contracts/token/ERC20/ERC20.sol\":3873:3882  _transfer */\n      tag_169\n        /* \"@openzeppelin/contracts/token/ERC20/ERC20.sol\":3873:3901  _transfer(owner, to, amount) */\n      jump\t// in\n        /* \"contracts/TikToken.sol\":4545:7335  function batchMint(address[] calldata accounts, uint256[] calldata followers, uint256[] calldata ids) external onlyOwner {... */\n    tag_88:\n        /* \"@openzeppelin/contracts/access/Ownable.sol\":1094:1107  _checkOwner() */\n      tag_202\n        /* \"@openzeppelin/contracts/access/Ownable.sol\":1094:1105  _checkOwner */\n      tag_120\n        /* \"@openzeppelin/contracts/access/Ownable.sol\":1094:1107  _checkOwner() */\n      jump\t// in\n    tag_202:\n        /* \"contracts/TikToken.sol\":4685:4720  accounts.length == followers.length */\n      dup5\n      dup4\n      eq\n        /* \"contracts/TikToken.sol\":4677:4748  require(accounts.length == followers.length, \"Mismatched input arrays\") */\n      tag_204\n      jumpi\n      mload(0x40)\n      shl(0xe5, 0x461bcd)\n      dup2\n      mstore\n        /* \"#utility.yul\":8597:8599   */\n      0x20\n        /* \"contracts/TikToken.sol\":4677:4748  require(accounts.length == followers.length, \"Mismatched input arrays\") */\n      0x04\n      dup3\n      add\n        /* \"#utility.yul\":8579:8600   */\n      mstore\n        /* \"#utility.yul\":8636:8638   */\n      0x17\n        /* \"#utility.yul\":8616:8634   */\n      0x24\n      dup3\n      add\n        /* \"#utility.yul\":8609:8639   */\n      mstore\n      shl(0x48, 0x4d69736d61746368656420696e70757420617272617973)\n        /* \"#utility.yul\":8655:8673   */\n      0x44\n      dup3\n      add\n        /* \"#utility.yul\":8648:8701   */\n      mstore\n        /* \"#utility.yul\":8718:8736   */\n      0x64\n      add\n        /* \"contracts/TikToken.sol\":4677:4748  require(accounts.length == followers.length, \"Mismatched input arrays\") */\n      tag_123\n        /* \"#utility.yul\":8395:8742   */\n      jump\n        /* \"contracts/TikToken.sol\":4677:4748  require(accounts.length == followers.length, \"Mismatched input arrays\") */\n    tag_204:\n        /* \"contracts/TikToken.sol\":4767:4796  accounts.length == ids.length */\n      dup5\n      dup2\n      eq\n        /* \"contracts/TikToken.sol\":4759:4824  require(accounts.length == ids.length, \"Mismatched input arrays\") */\n      tag_207\n      jumpi\n      mload(0x40)\n      shl(0xe5, 0x461bcd)\n      dup2\n      mstore\n        /* \"#utility.yul\":8597:8599   */\n      0x20\n        /* \"contracts/TikToken.sol\":4759:4824  require(accounts.length == ids.length, \"Mismatched input arrays\") */\n      0x04\n      dup3\n      add\n        /* \"#utility.yul\":8579:8600   */\n      mstore\n        /* \"#utility.yul\":8636:8638   */\n      0x17\n        /* \"#utility.yul\":8616:8634   */\n      0x24\n      dup3\n      add\n        /* \"#utility.yul\":8609:8639   */\n      mstore\n      shl(0x48, 0x4d69736d61746368656420696e70757420617272617973)\n        /* \"#utility.yul\":8655:8673   */\n      0x44\n      dup3\n      add\n        /* \"#utility.yul\":8648:8701   */\n      mstore\n        /* \"#utility.yul\":8718:8736   */\n      0x64\n      add\n        /* \"contracts/TikToken.sol\":4759:4824  require(accounts.length == ids.length, \"Mismatched input arrays\") */\n      tag_123\n        /* \"#utility.yul\":8395:8742   */\n      jump\n        /* \"contracts/TikToken.sol\":4759:4824  require(accounts.length == ids.length, \"Mismatched input arrays\") */\n    tag_207:\n        /* \"contracts/TikToken.sol\":4842:4851  uint256 i */\n      0x00\n        /* \"contracts/TikToken.sol\":4837:7328  for (uint256 i = 0; i < accounts.length; i++) {... */\n    tag_209:\n        /* \"contracts/TikToken.sol\":4857:4876  i < accounts.length */\n      dup6\n      dup2\n      lt\n        /* \"contracts/TikToken.sol\":4837:7328  for (uint256 i = 0; i < accounts.length; i++) {... */\n      iszero\n      tag_210\n      jumpi\n        /* \"contracts/TikToken.sol\":4925:4926  0 */\n      0x00\n        /* \"contracts/TikToken.sol\":4906:4922  _remainingSupply */\n      sload(0x06)\n        /* \"contracts/TikToken.sol\":4906:4926  _remainingSupply > 0 */\n      gt\n        /* \"contracts/TikToken.sol\":4898:4953  require(_remainingSupply > 0, \"No more tokens to mint\") */\n      tag_212\n      jumpi\n      mload(0x40)\n      shl(0xe5, 0x461bcd)\n      dup2\n      mstore\n        /* \"#utility.yul\":5177:5179   */\n      0x20\n        /* \"contracts/TikToken.sol\":4898:4953  require(_remainingSupply > 0, \"No more tokens to mint\") */\n      0x04\n      dup3\n      add\n        /* \"#utility.yul\":5159:5180   */\n      mstore\n        /* \"#utility.yul\":5216:5218   */\n      0x16\n        /* \"#utility.yul\":5196:5214   */\n      0x24\n      dup3\n      add\n        /* \"#utility.yul\":5189:5219   */\n      mstore\n      shl(0x52, 0x139bc81b5bdc99481d1bdad95b9cc81d1bc81b5a5b9d)\n        /* \"#utility.yul\":5235:5253   */\n      0x44\n      dup3\n      add\n        /* \"#utility.yul\":5228:5280   */\n      mstore\n        /* \"#utility.yul\":5297:5315   */\n      0x64\n      add\n        /* \"contracts/TikToken.sol\":4898:4953  require(_remainingSupply > 0, \"No more tokens to mint\") */\n      tag_123\n        /* \"#utility.yul\":4975:5321   */\n      jump\n        /* \"contracts/TikToken.sol\":4898:4953  require(_remainingSupply > 0, \"No more tokens to mint\") */\n    tag_212:\n        /* \"contracts/TikToken.sol\":5001:5008  _minted */\n      0x09\n        /* \"contracts/TikToken.sol\":5001:5016  _minted[ids[i]] */\n      0x00\n        /* \"contracts/TikToken.sol\":5009:5012  ids */\n      dup5\n      dup5\n        /* \"contracts/TikToken.sol\":5013:5014  i */\n      dup5\n        /* \"contracts/TikToken.sol\":5009:5015  ids[i] */\n      dup2\n      dup2\n      lt\n      tag_215\n      jumpi\n      tag_215\n      tag_216\n      jump\t// in\n    tag_215:\n      0x20\n      swap1\n      dup2\n      mul\n      swap3\n      swap1\n      swap3\n      add\n      calldataload\n        /* \"contracts/TikToken.sol\":5001:5016  _minted[ids[i]] */\n      dup4\n      mstore\n      pop\n      dup2\n      add\n      swap2\n      swap1\n      swap2\n      mstore\n      0x40\n      add\n      0x00\n      keccak256\n      sload\n      0xff\n      and\n        /* \"contracts/TikToken.sol\":5000:5016  !_minted[ids[i]] */\n      iszero\n        /* \"contracts/TikToken.sol\":4992:5051  require(!_minted[ids[i]], \"User has already minted tokens\") */\n      tag_217\n      jumpi\n      mload(0x40)\n      shl(0xe5, 0x461bcd)\n      dup2\n      mstore\n        /* \"#utility.yul\":5528:5530   */\n      0x20\n        /* \"contracts/TikToken.sol\":4992:5051  require(!_minted[ids[i]], \"User has already minted tokens\") */\n      0x04\n      dup3\n      add\n        /* \"#utility.yul\":5510:5531   */\n      mstore\n        /* \"#utility.yul\":5567:5569   */\n      0x1e\n        /* \"#utility.yul\":5547:5565   */\n      0x24\n      dup3\n      add\n        /* \"#utility.yul\":5540:5570   */\n      mstore\n        /* \"#utility.yul\":5606:5638   */\n      0x557365722068617320616c7265616479206d696e74656420746f6b656e730000\n        /* \"#utility.yul\":5586:5604   */\n      0x44\n      dup3\n      add\n        /* \"#utility.yul\":5579:5639   */\n      mstore\n        /* \"#utility.yul\":5656:5674   */\n      0x64\n      add\n        /* \"contracts/TikToken.sol\":4992:5051  require(!_minted[ids[i]], \"User has already minted tokens\") */\n      tag_123\n        /* \"#utility.yul\":5326:5680   */\n      jump\n        /* \"contracts/TikToken.sol\":4992:5051  require(!_minted[ids[i]], \"User has already minted tokens\") */\n    tag_217:\n        /* \"contracts/TikToken.sol\":5104:5124  uint256 amountToMint */\n      0x00\n        /* \"contracts/TikToken.sol\":5168:5182  _currentReward */\n      sload(0x07)\n        /* \"contracts/TikToken.sol\":5151:5165  _currentReward */\n      sload(0x07)\n        /* \"contracts/TikToken.sol\":5143:5147  1000 */\n      0x03e8\n        /* \"contracts/TikToken.sol\":5128:5137  followers */\n      dup9\n      dup9\n        /* \"contracts/TikToken.sol\":5138:5139  i */\n      dup7\n        /* \"contracts/TikToken.sol\":5128:5140  followers[i] */\n      dup2\n      dup2\n      lt\n      tag_220\n      jumpi\n      tag_220\n      tag_216\n      jump\t// in\n    tag_220:\n      swap1\n      pop\n      0x20\n      mul\n      add\n      calldataload\n        /* \"contracts/TikToken.sol\":5128:5147  followers[i] / 1000 */\n      tag_221\n      swap2\n      swap1\n      tag_129\n      jump\t// in\n    tag_221:\n        /* \"contracts/TikToken.sol\":5127:5165  (followers[i] / 1000) * _currentReward */\n      tag_222\n      swap2\n      swap1\n      tag_131\n      jump\t// in\n    tag_222:\n        /* \"contracts/TikToken.sol\":5127:5182  (followers[i] / 1000) * _currentReward + _currentReward */\n      tag_223\n      swap2\n      swap1\n      tag_133\n      jump\t// in\n    tag_223:\n        /* \"contracts/TikToken.sol\":5104:5182  uint256 amountToMint = (followers[i] / 1000) * _currentReward + _currentReward */\n      swap1\n      pop\n        /* \"contracts/TikToken.sol\":5242:5261  uint256 nextHalving */\n      0x00\n        /* \"contracts/TikToken.sol\":5287:5300  _halvingCount */\n      sload(0x08)\n        /* \"contracts/TikToken.sol\":5282:5283  2 */\n      0x02\n        /* \"contracts/TikToken.sol\":5282:5300  2 ** _halvingCount */\n      tag_224\n      swap2\n      swap1\n      tag_135\n      jump\t// in\n    tag_224:\n        /* \"contracts/TikToken.sol\":5264:5301  _initialSupply / (2 ** _halvingCount) */\n      tag_225\n      swap1\n        /* \"contracts/TikToken.sol\":403:418  0.8192 * 10**24 */\n      0xad78ebc5ac6200000000\n        /* \"contracts/TikToken.sol\":5264:5301  _initialSupply / (2 ** _halvingCount) */\n      tag_129\n      jump\t// in\n    tag_225:\n        /* \"contracts/TikToken.sol\":5242:5301  uint256 nextHalving = _initialSupply / (2 ** _halvingCount) */\n      swap1\n      pop\n        /* \"contracts/TikToken.sol\":5349:5372  uint256 amountToHalving */\n      0x00\n        /* \"contracts/TikToken.sol\":5394:5405  nextHalving */\n      dup2\n        /* \"contracts/TikToken.sol\":5375:5391  _remainingSupply */\n      sload(0x06)\n        /* \"contracts/TikToken.sol\":5375:5405  _remainingSupply - nextHalving */\n      tag_226\n      swap2\n      swap1\n      tag_138\n      jump\t// in\n    tag_226:\n        /* \"contracts/TikToken.sol\":5349:5405  uint256 amountToHalving = _remainingSupply - nextHalving */\n      swap1\n      pop\n        /* \"contracts/TikToken.sol\":5592:5604  amountToMint */\n      dup3\n        /* \"contracts/TikToken.sol\":5573:5588  amountToHalving */\n      dup2\n        /* \"contracts/TikToken.sol\":5573:5604  amountToHalving <= amountToMint */\n      gt\n      iszero\n        /* \"contracts/TikToken.sol\":5573:5635  amountToHalving <= amountToMint && _currentReward > _minReward */\n      dup1\n      iszero\n      tag_227\n      jumpi\n      pop\n        /* \"contracts/TikToken.sol\":525:560  0.000000000000000000000001 * 10**24 */\n      0x01\n        /* \"contracts/TikToken.sol\":5608:5622  _currentReward */\n      sload(0x07)\n        /* \"contracts/TikToken.sol\":5608:5635  _currentReward > _minReward */\n      gt\n        /* \"contracts/TikToken.sol\":5573:5635  amountToHalving <= amountToMint && _currentReward > _minReward */\n    tag_227:\n        /* \"contracts/TikToken.sol\":5569:6606  if (amountToHalving <= amountToMint && _currentReward > _minReward) {... */\n      iszero\n      tag_228\n      jumpi\n        /* \"contracts/TikToken.sol\":5671:5686  amountToHalving */\n      dup1\n        /* \"contracts/TikToken.sol\":5656:5686  amountToMint = amountToHalving */\n      swap3\n      pop\n        /* \"contracts/TikToken.sol\":5755:5781  uint256 remainingFollowers */\n      0x00\n        /* \"contracts/TikToken.sol\":5823:5837  _currentReward */\n      sload(0x07)\n        /* \"contracts/TikToken.sol\":5800:5812  amountToMint */\n      dup5\n        /* \"contracts/TikToken.sol\":5815:5819  1000 */\n      0x03e8\n        /* \"contracts/TikToken.sol\":5800:5819  amountToMint * 1000 */\n      tag_229\n      swap2\n      swap1\n      tag_131\n      jump\t// in\n    tag_229:\n        /* \"contracts/TikToken.sol\":5800:5838  amountToMint * 1000 / (_currentReward) */\n      tag_230\n      swap2\n      swap1\n      tag_129\n      jump\t// in\n    tag_230:\n        /* \"contracts/TikToken.sol\":5784:5793  followers */\n      dup10\n      dup10\n        /* \"contracts/TikToken.sol\":5794:5795  i */\n      dup8\n        /* \"contracts/TikToken.sol\":5784:5796  followers[i] */\n      dup2\n      dup2\n      lt\n      tag_232\n      jumpi\n      tag_232\n      tag_216\n      jump\t// in\n    tag_232:\n      swap1\n      pop\n      0x20\n      mul\n      add\n      calldataload\n        /* \"contracts/TikToken.sol\":5784:5839  followers[i] - (amountToMint * 1000 / (_currentReward)) */\n      tag_233\n      swap2\n      swap1\n      tag_138\n      jump\t// in\n    tag_233:\n        /* \"contracts/TikToken.sol\":5755:5839  uint256 remainingFollowers = followers[i] - (amountToMint * 1000 / (_currentReward)) */\n      swap1\n      pop\n        /* \"contracts/TikToken.sol\":5900:5924  uint256 additionalReward */\n      0x00\n        /* \"contracts/TikToken.sol\":5998:5999  2 */\n      0x02\n        /* \"contracts/TikToken.sol\":5981:5995  _currentReward */\n      sload(0x07)\n        /* \"contracts/TikToken.sol\":5981:5999  _currentReward / 2 */\n      tag_234\n      swap2\n      swap1\n      tag_129\n      jump\t// in\n    tag_234:\n        /* \"contracts/TikToken.sol\":5975:5976  2 */\n      0x02\n        /* \"contracts/TikToken.sol\":5958:5972  _currentReward */\n      sload(0x07)\n        /* \"contracts/TikToken.sol\":5958:5976  _currentReward / 2 */\n      tag_235\n      swap2\n      swap1\n      tag_129\n      jump\t// in\n    tag_235:\n        /* \"contracts/TikToken.sol\":5928:5953  remainingFollowers / 1000 */\n      tag_236\n        /* \"contracts/TikToken.sol\":5949:5953  1000 */\n      0x03e8\n        /* \"contracts/TikToken.sol\":5928:5946  remainingFollowers */\n      dup6\n        /* \"contracts/TikToken.sol\":5928:5953  remainingFollowers / 1000 */\n      tag_129\n      jump\t// in\n    tag_236:\n        /* \"contracts/TikToken.sol\":5927:5977  (remainingFollowers / 1000) * (_currentReward / 2) */\n      tag_237\n      swap2\n      swap1\n      tag_131\n      jump\t// in\n    tag_237:\n        /* \"contracts/TikToken.sol\":5927:6000  (remainingFollowers / 1000) * (_currentReward / 2) + (_currentReward / 2) */\n      tag_238\n      swap2\n      swap1\n      tag_133\n      jump\t// in\n    tag_238:\n        /* \"contracts/TikToken.sol\":5900:6000  uint256 additionalReward = (remainingFollowers / 1000) * (_currentReward / 2) + (_currentReward / 2) */\n      swap1\n      pop\n        /* \"contracts/TikToken.sol\":6208:6223  nextHalving / 2 */\n      tag_239\n        /* \"contracts/TikToken.sol\":6222:6223  2 */\n      0x02\n        /* \"contracts/TikToken.sol\":6208:6219  nextHalving */\n      dup6\n        /* \"contracts/TikToken.sol\":6208:6223  nextHalving / 2 */\n      tag_129\n      jump\t// in\n    tag_239:\n        /* \"contracts/TikToken.sol\":6188:6204  additionalReward */\n      dup2\n        /* \"contracts/TikToken.sol\":6188:6223  additionalReward >= nextHalving / 2 */\n      lt\n        /* \"contracts/TikToken.sol\":6184:6492  if (additionalReward >= nextHalving / 2) {... */\n      tag_240\n      jumpi\n        /* \"contracts/TikToken.sol\":6287:6301  _currentReward */\n      sload(0x07)\n        /* \"contracts/TikToken.sol\":6268:6283  nextHalving / 2 */\n      tag_241\n        /* \"contracts/TikToken.sol\":6282:6283  2 */\n      0x02\n        /* \"contracts/TikToken.sol\":6268:6279  nextHalving */\n      dup7\n        /* \"contracts/TikToken.sol\":6268:6283  nextHalving / 2 */\n      tag_129\n      jump\t// in\n    tag_241:\n        /* \"contracts/TikToken.sol\":6267:6301  (nextHalving / 2) - _currentReward */\n      tag_242\n      swap2\n      swap1\n      tag_138\n      jump\t// in\n    tag_242:\n        /* \"contracts/TikToken.sol\":6248:6301  additionalReward = (nextHalving / 2) - _currentReward */\n      swap1\n      pop\n        /* \"contracts/TikToken.sol\":6184:6492  if (additionalReward >= nextHalving / 2) {... */\n    tag_240:\n        /* \"contracts/TikToken.sol\":6510:6542  amountToMint += additionalReward */\n      tag_243\n        /* \"contracts/TikToken.sol\":6526:6542  additionalReward */\n      dup2\n        /* \"contracts/TikToken.sol\":6510:6542  amountToMint += additionalReward */\n      dup7\n      tag_133\n      jump\t// in\n    tag_243:\n      swap5\n      pop\n        /* \"contracts/TikToken.sol\":5637:6606  {... */\n      pop\n      pop\n        /* \"contracts/TikToken.sol\":5569:6606  if (amountToHalving <= amountToMint && _currentReward > _minReward) {... */\n    tag_228:\n        /* \"contracts/TikToken.sol\":6695:6707  amountToMint */\n      dup3\n        /* \"contracts/TikToken.sol\":6676:6692  _remainingSupply */\n      sload(0x06)\n        /* \"contracts/TikToken.sol\":6676:6707  _remainingSupply < amountToMint */\n      lt\n        /* \"contracts/TikToken.sol\":6672:6775  if (_remainingSupply < amountToMint) {... */\n      iszero\n      tag_244\n      jumpi\n        /* \"contracts/TikToken.sol\":6743:6759  _remainingSupply */\n      sload(0x06)\n        /* \"contracts/TikToken.sol\":6728:6759  amountToMint = _remainingSupply */\n      swap3\n      pop\n        /* \"contracts/TikToken.sol\":6672:6775  if (_remainingSupply < amountToMint) {... */\n    tag_244:\n        /* \"contracts/TikToken.sol\":6867:6899  _mint(accounts[i], amountToMint) */\n      tag_245\n        /* \"contracts/TikToken.sol\":6873:6881  accounts */\n      dup11\n      dup11\n        /* \"contracts/TikToken.sol\":6882:6883  i */\n      dup7\n        /* \"contracts/TikToken.sol\":6873:6884  accounts[i] */\n      dup2\n      dup2\n      lt\n      tag_247\n      jumpi\n      tag_247\n      tag_216\n      jump\t// in\n    tag_247:\n      swap1\n      pop\n      0x20\n      mul\n      add\n      0x20\n      dup2\n      add\n      swap1\n      tag_248\n      swap2\n      swap1\n      tag_65\n      jump\t// in\n    tag_248:\n        /* \"contracts/TikToken.sol\":6886:6898  amountToMint */\n      dup5\n        /* \"contracts/TikToken.sol\":6867:6872  _mint */\n      tag_156\n        /* \"contracts/TikToken.sol\":6867:6899  _mint(accounts[i], amountToMint) */\n      jump\t// in\n    tag_245:\n        /* \"contracts/TikToken.sol\":6934:6946  amountToMint */\n      dup3\n        /* \"contracts/TikToken.sol\":6914:6930  _remainingSupply */\n      0x06\n      0x00\n        /* \"contracts/TikToken.sol\":6914:6946  _remainingSupply -= amountToMint */\n      dup3\n      dup3\n      sload\n      tag_249\n      swap2\n      swap1\n      tag_138\n      jump\t// in\n    tag_249:\n      swap1\n      swap2\n      sstore\n      pop\n        /* \"contracts/TikToken.sol\":6979:6983  true */\n      0x01\n      swap1\n      pop\n        /* \"contracts/TikToken.sol\":6961:6968  _minted */\n      0x09\n        /* \"contracts/TikToken.sol\":6961:6976  _minted[ids[i]] */\n      0x00\n        /* \"contracts/TikToken.sol\":6969:6972  ids */\n      dup9\n      dup9\n        /* \"contracts/TikToken.sol\":6973:6974  i */\n      dup9\n        /* \"contracts/TikToken.sol\":6969:6975  ids[i] */\n      dup2\n      dup2\n      lt\n      tag_251\n      jumpi\n      tag_251\n      tag_216\n      jump\t// in\n    tag_251:\n      swap1\n      pop\n      0x20\n      mul\n      add\n      calldataload\n        /* \"contracts/TikToken.sol\":6961:6976  _minted[ids[i]] */\n      dup2\n      mstore\n      0x20\n      add\n      swap1\n      dup2\n      mstore\n      0x20\n      add\n      0x00\n      keccak256\n      0x00\n        /* \"contracts/TikToken.sol\":6961:6983  _minted[ids[i]] = true */\n      0x0100\n      exp\n      dup2\n      sload\n      dup2\n      0xff\n      mul\n      not\n      and\n      swap1\n      dup4\n      iszero\n      iszero\n      mul\n      or\n      swap1\n      sstore\n      pop\n        /* \"contracts/TikToken.sol\":7183:7194  nextHalving */\n      dup2\n        /* \"contracts/TikToken.sol\":7163:7179  _remainingSupply */\n      sload(0x06)\n        /* \"contracts/TikToken.sol\":7163:7194  _remainingSupply <= nextHalving */\n      gt\n      iszero\n        /* \"contracts/TikToken.sol\":7163:7225  _remainingSupply <= nextHalving && _currentReward > _minReward */\n      dup1\n      iszero\n      tag_252\n      jumpi\n      pop\n        /* \"contracts/TikToken.sol\":525:560  0.000000000000000000000001 * 10**24 */\n      0x01\n        /* \"contracts/TikToken.sol\":7198:7212  _currentReward */\n      sload(0x07)\n        /* \"contracts/TikToken.sol\":7198:7225  _currentReward > _minReward */\n      gt\n        /* \"contracts/TikToken.sol\":7163:7225  _remainingSupply <= nextHalving && _currentReward > _minReward */\n    tag_252:\n        /* \"contracts/TikToken.sol\":7159:7317  if (_remainingSupply <= nextHalving && _currentReward > _minReward) {... */\n      iszero\n      tag_253\n      jumpi\n        /* \"contracts/TikToken.sol\":7264:7266  10 */\n      0x0a\n        /* \"contracts/TikToken.sol\":7246:7260  _currentReward */\n      0x07\n      0x00\n        /* \"contracts/TikToken.sol\":7246:7266  _currentReward /= 10 */\n      dup3\n      dup3\n      sload\n      tag_254\n      swap2\n      swap1\n      tag_129\n      jump\t// in\n    tag_254:\n      swap1\n      swap2\n      sstore\n      pop\n      pop\n        /* \"contracts/TikToken.sol\":7286:7299  _halvingCount */\n      0x08\n        /* \"contracts/TikToken.sol\":7286:7301  _halvingCount++ */\n      dup1\n      sload\n      swap1\n        /* \"contracts/TikToken.sol\":7286:7299  _halvingCount */\n      0x00\n        /* \"contracts/TikToken.sol\":7286:7301  _halvingCount++ */\n      tag_255\n      dup4\n      tag_162\n      jump\t// in\n    tag_255:\n      swap2\n      swap1\n      pop\n      sstore\n      pop\n        /* \"contracts/TikToken.sol\":7159:7317  if (_remainingSupply <= nextHalving && _currentReward > _minReward) {... */\n    tag_253:\n        /* \"contracts/TikToken.sol\":4883:7328  {... */\n      pop\n      pop\n      pop\n        /* \"contracts/TikToken.sol\":4878:4881  i++ */\n      dup1\n      dup1\n      tag_256\n      swap1\n      tag_162\n      jump\t// in\n    tag_256:\n      swap2\n      pop\n      pop\n        /* \"contracts/TikToken.sol\":4837:7328  for (uint256 i = 0; i < accounts.length; i++) {... */\n      jump(tag_209)\n    tag_210:\n      pop\n        /* \"contracts/TikToken.sol\":4545:7335  function batchMint(address[] calldata accounts, uint256[] calldata followers, uint256[] calldata ids) external onlyOwner {... */\n      pop\n      pop\n      pop\n      pop\n      pop\n      pop\n      jump\t// out\n        /* \"@openzeppelin/contracts/token/ERC20/ERC20.sol\":3987:4136  function allowance(address owner, address spender) public view virtual override returns (uint256) {... */\n    tag_95:\n      sub(shl(0xa0, 0x01), 0x01)\n        /* \"@openzeppelin/contracts/token/ERC20/ERC20.sol\":4102:4120  _allowances[owner] */\n      swap2\n      dup3\n      and\n        /* \"@openzeppelin/contracts/token/ERC20/ERC20.sol\":4076:4083  uint256 */\n      0x00\n        /* \"@openzeppelin/contracts/token/ERC20/ERC20.sol\":4102:4120  _allowances[owner] */\n      swap1\n      dup2\n      mstore\n        /* \"@openzeppelin/contracts/token/ERC20/ERC20.sol\":4102:4113  _allowances */\n      0x01\n        /* \"@openzeppelin/contracts/token/ERC20/ERC20.sol\":4102:4120  _allowances[owner] */\n      0x20\n      swap1\n      dup2\n      mstore\n      0x40\n      dup1\n      dup4\n      keccak256\n        /* \"@openzeppelin/contracts/token/ERC20/ERC20.sol\":4102:4129  _allowances[owner][spender] */\n      swap4\n      swap1\n      swap5\n      and\n      dup3\n      mstore\n      swap2\n      swap1\n      swap2\n      mstore\n      keccak256\n      sload\n      swap1\n        /* \"@openzeppelin/contracts/token/ERC20/ERC20.sol\":3987:4136  function allowance(address owner, address spender) public view virtual override returns (uint256) {... */\n      jump\t// out\n        /* \"@openzeppelin/contracts/access/Ownable.sol\":2074:2272  function transferOwnership(address newOwner) public virtual onlyOwner {... */\n    tag_104:\n        /* \"@openzeppelin/contracts/access/Ownable.sol\":1094:1107  _checkOwner() */\n      tag_261\n        /* \"@openzeppelin/contracts/access/Ownable.sol\":1094:1105  _checkOwner */\n      tag_120\n        /* \"@openzeppelin/contracts/access/Ownable.sol\":1094:1107  _checkOwner() */\n      jump\t// in\n    tag_261:\n      sub(shl(0xa0, 0x01), 0x01)\n        /* \"@openzeppelin/contracts/access/Ownable.sol\":2162:2184  newOwner != address(0) */\n      dup2\n      and\n        /* \"@openzeppelin/contracts/access/Ownable.sol\":2154:2227  require(newOwner != address(0), \"Ownable: new owner is the zero address\") */\n      tag_263\n      jumpi\n      mload(0x40)\n      shl(0xe5, 0x461bcd)\n      dup2\n      mstore\n        /* \"#utility.yul\":9081:9083   */\n      0x20\n        /* \"@openzeppelin/contracts/access/Ownable.sol\":2154:2227  require(newOwner != address(0), \"Ownable: new owner is the zero address\") */\n      0x04\n      dup3\n      add\n        /* \"#utility.yul\":9063:9084   */\n      mstore\n        /* \"#utility.yul\":9120:9122   */\n      0x26\n        /* \"#utility.yul\":9100:9118   */\n      0x24\n      dup3\n      add\n        /* \"#utility.yul\":9093:9123   */\n      mstore\n        /* \"#utility.yul\":9159:9193   */\n      0x4f776e61626c653a206e6577206f776e657220697320746865207a65726f2061\n        /* \"#utility.yul\":9139:9157   */\n      0x44\n      dup3\n      add\n        /* \"#utility.yul\":9132:9194   */\n      mstore\n      shl(0xd0, 0x646472657373)\n        /* \"#utility.yul\":9210:9228   */\n      0x64\n      dup3\n      add\n        /* \"#utility.yul\":9203:9239   */\n      mstore\n        /* \"#utility.yul\":9256:9275   */\n      0x84\n      add\n        /* \"@openzeppelin/contracts/access/Ownable.sol\":2154:2227  require(newOwner != address(0), \"Ownable: new owner is the zero address\") */\n      tag_123\n        /* \"#utility.yul\":8879:9281   */\n      jump\n        /* \"@openzeppelin/contracts/access/Ownable.sol\":2154:2227  require(newOwner != address(0), \"Ownable: new owner is the zero address\") */\n    tag_263:\n        /* \"@openzeppelin/contracts/access/Ownable.sol\":2237:2265  _transferOwnership(newOwner) */\n      tag_266\n        /* \"@openzeppelin/contracts/access/Ownable.sol\":2256:2264  newOwner */\n      dup2\n        /* \"@openzeppelin/contracts/access/Ownable.sol\":2237:2255  _transferOwnership */\n      tag_183\n        /* \"@openzeppelin/contracts/access/Ownable.sol\":2237:2265  _transferOwnership(newOwner) */\n      jump\t// in\n    tag_266:\n        /* \"@openzeppelin/contracts/access/Ownable.sol\":2074:2272  function transferOwnership(address newOwner) public virtual onlyOwner {... */\n      pop\n      jump\t// out\n        /* \"@openzeppelin/contracts/token/ERC20/ERC20.sol\":10457:10797  function _approve(address owner, address spender, uint256 amount) internal virtual {... */\n    tag_117:\n      sub(shl(0xa0, 0x01), 0x01)\n        /* \"@openzeppelin/contracts/token/ERC20/ERC20.sol\":10558:10577  owner != address(0) */\n      dup4\n      and\n        /* \"@openzeppelin/contracts/token/ERC20/ERC20.sol\":10550:10618  require(owner != address(0), \"ERC20: approve from the zero address\") */\n      tag_269\n      jumpi\n      mload(0x40)\n      shl(0xe5, 0x461bcd)\n      dup2\n      mstore\n        /* \"#utility.yul\":9488:9490   */\n      0x20\n        /* \"@openzeppelin/contracts/token/ERC20/ERC20.sol\":10550:10618  require(owner != address(0), \"ERC20: approve from the zero address\") */\n      0x04\n      dup3\n      add\n        /* \"#utility.yul\":9470:9491   */\n      mstore\n        /* \"#utility.yul\":9527:9529   */\n      0x24\n        /* \"#utility.yul\":9507:9525   */\n      dup1\n      dup3\n      add\n        /* \"#utility.yul\":9500:9530   */\n      mstore\n        /* \"#utility.yul\":9566:9600   */\n      0x45524332303a20617070726f76652066726f6d20746865207a65726f20616464\n        /* \"#utility.yul\":9546:9564   */\n      0x44\n      dup3\n      add\n        /* \"#utility.yul\":9539:9601   */\n      mstore\n      shl(0xe0, 0x72657373)\n        /* \"#utility.yul\":9617:9635   */\n      0x64\n      dup3\n      add\n        /* \"#utility.yul\":9610:9644   */\n      mstore\n        /* \"#utility.yul\":9661:9680   */\n      0x84\n      add\n        /* \"@openzeppelin/contracts/token/ERC20/ERC20.sol\":10550:10618  require(owner != address(0), \"ERC20: approve from the zero address\") */\n      tag_123\n        /* \"#utility.yul\":9286:9686   */\n      jump\n        /* \"@openzeppelin/contracts/token/ERC20/ERC20.sol\":10550:10618  require(owner != address(0), \"ERC20: approve from the zero address\") */\n    tag_269:\n      sub(shl(0xa0, 0x01), 0x01)\n        /* \"@openzeppelin/contracts/token/ERC20/ERC20.sol\":10636:10657  spender != address(0) */\n      dup3\n      and\n        /* \"@openzeppelin/contracts/token/ERC20/ERC20.sol\":10628:10696  require(spender != address(0), \"ERC20: approve to the zero address\") */\n      tag_272\n      jumpi\n      mload(0x40)\n      shl(0xe5, 0x461bcd)\n      dup2\n      mstore\n        /* \"#utility.yul\":9893:9895   */\n      0x20\n        /* \"@openzeppelin/contracts/token/ERC20/ERC20.sol\":10628:10696  require(spender != address(0), \"ERC20: approve to the zero address\") */\n      0x04\n      dup3\n      add\n        /* \"#utility.yul\":9875:9896   */\n      mstore\n        /* \"#utility.yul\":9932:9934   */\n      0x22\n        /* \"#utility.yul\":9912:9930   */\n      0x24\n      dup3\n      add\n        /* \"#utility.yul\":9905:9935   */\n      mstore\n        /* \"#utility.yul\":9971:10005   */\n      0x45524332303a20617070726f766520746f20746865207a65726f206164647265\n        /* \"#utility.yul\":9951:9969   */\n      0x44\n      dup3\n      add\n        /* \"#utility.yul\":9944:10006   */\n      mstore\n      shl(0xf0, 0x7373)\n        /* \"#utility.yul\":10022:10040   */\n      0x64\n      dup3\n      add\n        /* \"#utility.yul\":10015:10047   */\n      mstore\n        /* \"#utility.yul\":10064:10083   */\n      0x84\n      add\n        /* \"@openzeppelin/contracts/token/ERC20/ERC20.sol\":10628:10696  require(spender != address(0), \"ERC20: approve to the zero address\") */\n      tag_123\n        /* \"#utility.yul\":9691:10089   */\n      jump\n        /* \"@openzeppelin/contracts/token/ERC20/ERC20.sol\":10628:10696  require(spender != address(0), \"ERC20: approve to the zero address\") */\n    tag_272:\n      sub(shl(0xa0, 0x01), 0x01)\n        /* \"@openzeppelin/contracts/token/ERC20/ERC20.sol\":10707:10725  _allowances[owner] */\n      dup4\n      dup2\n      and\n      0x00\n      dup2\n      dup2\n      mstore\n        /* \"@openzeppelin/contracts/token/ERC20/ERC20.sol\":10707:10718  _allowances */\n      0x01\n        /* \"@openzeppelin/contracts/token/ERC20/ERC20.sol\":10707:10725  _allowances[owner] */\n      0x20\n      swap1\n      dup2\n      mstore\n      0x40\n      dup1\n      dup4\n      keccak256\n        /* \"@openzeppelin/contracts/token/ERC20/ERC20.sol\":10707:10734  _allowances[owner][spender] */\n      swap5\n      dup8\n      and\n      dup1\n      dup5\n      mstore\n      swap5\n      dup3\n      mstore\n      swap2\n      dup3\n      swap1\n      keccak256\n        /* \"@openzeppelin/contracts/token/ERC20/ERC20.sol\":10707:10743  _allowances[owner][spender] = amount */\n      dup6\n      swap1\n      sstore\n        /* \"@openzeppelin/contracts/token/ERC20/ERC20.sol\":10758:10790  Approval(owner, spender, amount) */\n      swap1\n      mload\n        /* \"#utility.yul\":762:787   */\n      dup5\n      dup2\n      mstore\n        /* \"@openzeppelin/contracts/token/ERC20/ERC20.sol\":10758:10790  Approval(owner, spender, amount) */\n      0x8c5be1e5ebec7d5bd14f71427d1e84f3dd0314c0f7b2291e5b200ac8c7c3b925\n      swap2\n        /* \"#utility.yul\":735:753   */\n      add\n        /* \"@openzeppelin/contracts/token/ERC20/ERC20.sol\":10758:10790  Approval(owner, spender, amount) */\n      mload(0x40)\n      dup1\n      swap2\n      sub\n      swap1\n      log3\n        /* \"@openzeppelin/contracts/token/ERC20/ERC20.sol\":10457:10797  function _approve(address owner, address spender, uint256 amount) internal virtual {... */\n      pop\n      pop\n      pop\n      jump\t// out\n        /* \"@openzeppelin/contracts/access/Ownable.sol\":1359:1489  function _checkOwner() internal view virtual {... */\n    tag_120:\n        /* \"@openzeppelin/contracts/access/Ownable.sol\":1273:1279  _owner */\n      and(sub(shl(0xa0, 0x01), 0x01), sload(0x05))\n        /* \"@openzeppelin/contracts/utils/Context.sol\":719:729  msg.sender */\n      caller\n        /* \"@openzeppelin/contracts/access/Ownable.sol\":1422:1445  owner() == _msgSender() */\n      eq\n        /* \"@openzeppelin/contracts/access/Ownable.sol\":1414:1482  require(owner() == _msgSender(), \"Ownable: caller is not the owner\") */\n      tag_182\n      jumpi\n      mload(0x40)\n      shl(0xe5, 0x461bcd)\n      dup2\n      mstore\n        /* \"#utility.yul\":10296:10298   */\n      0x20\n        /* \"@openzeppelin/contracts/access/Ownable.sol\":1414:1482  require(owner() == _msgSender(), \"Ownable: caller is not the owner\") */\n      0x04\n      dup3\n      add\n        /* \"#utility.yul\":10278:10299   */\n      dup2\n      swap1\n      mstore\n        /* \"#utility.yul\":10315:10333   */\n      0x24\n      dup3\n      add\n        /* \"#utility.yul\":10308:10338   */\n      mstore\n        /* \"#utility.yul\":10374:10408   */\n      0x4f776e61626c653a2063616c6c6572206973206e6f7420746865206f776e6572\n        /* \"#utility.yul\":10354:10372   */\n      0x44\n      dup3\n      add\n        /* \"#utility.yul\":10347:10409   */\n      mstore\n        /* \"#utility.yul\":10426:10444   */\n      0x64\n      add\n        /* \"@openzeppelin/contracts/access/Ownable.sol\":1414:1482  require(owner() == _msgSender(), \"Ownable: caller is not the owner\") */\n      tag_123\n        /* \"#utility.yul\":10094:10450   */\n      jump\n        /* \"@openzeppelin/contracts/token/ERC20/ERC20.sol\":8520:9055  function _mint(address account, uint256 amount) internal virtual {... */\n    tag_156:\n      sub(shl(0xa0, 0x01), 0x01)\n        /* \"@openzeppelin/contracts/token/ERC20/ERC20.sol\":8603:8624  account != address(0) */\n      dup3\n      and\n        /* \"@openzeppelin/contracts/token/ERC20/ERC20.sol\":8595:8660  require(account != address(0), \"ERC20: mint to the zero address\") */\n      tag_283\n      jumpi\n      mload(0x40)\n      shl(0xe5, 0x461bcd)\n      dup2\n      mstore\n        /* \"#utility.yul\":10657:10659   */\n      0x20\n        /* \"@openzeppelin/contracts/token/ERC20/ERC20.sol\":8595:8660  require(account != address(0), \"ERC20: mint to the zero address\") */\n      0x04\n      dup3\n      add\n        /* \"#utility.yul\":10639:10660   */\n      mstore\n        /* \"#utility.yul\":10696:10698   */\n      0x1f\n        /* \"#utility.yul\":10676:10694   */\n      0x24\n      dup3\n      add\n        /* \"#utility.yul\":10669:10699   */\n      mstore\n        /* \"#utility.yul\":10735:10768   */\n      0x45524332303a206d696e7420746f20746865207a65726f206164647265737300\n        /* \"#utility.yul\":10715:10733   */\n      0x44\n      dup3\n      add\n        /* \"#utility.yul\":10708:10769   */\n      mstore\n        /* \"#utility.yul\":10786:10804   */\n      0x64\n      add\n        /* \"@openzeppelin/contracts/token/ERC20/ERC20.sol\":8595:8660  require(account != address(0), \"ERC20: mint to the zero address\") */\n      tag_123\n        /* \"#utility.yul\":10455:10810   */\n      jump\n        /* \"@openzeppelin/contracts/token/ERC20/ERC20.sol\":8595:8660  require(account != address(0), \"ERC20: mint to the zero address\") */\n    tag_283:\n        /* \"@openzeppelin/contracts/token/ERC20/ERC20.sol\":8747:8753  amount */\n      dup1\n        /* \"@openzeppelin/contracts/token/ERC20/ERC20.sol\":8731:8743  _totalSupply */\n      0x02\n      0x00\n        /* \"@openzeppelin/contracts/token/ERC20/ERC20.sol\":8731:8753  _totalSupply += amount */\n      dup3\n      dup3\n      sload\n      tag_288\n      swap2\n      swap1\n      tag_133\n      jump\t// in\n    tag_288:\n      swap1\n      swap2\n      sstore\n      pop\n      pop\n      sub(shl(0xa0, 0x01), 0x01)\n        /* \"@openzeppelin/contracts/token/ERC20/ERC20.sol\":8899:8917  _balances[account] */\n      dup3\n      and\n        /* \"@openzeppelin/contracts/token/ERC20/ERC20.sol\":8899:8908  _balances */\n      0x00\n        /* \"@openzeppelin/contracts/token/ERC20/ERC20.sol\":8899:8917  _balances[account] */\n      dup2\n      dup2\n      mstore\n      0x20\n      dup2\n      dup2\n      mstore\n      0x40\n      dup1\n      dup4\n      keccak256\n        /* \"@openzeppelin/contracts/token/ERC20/ERC20.sol\":8899:8927  _balances[account] += amount */\n      dup1\n      sload\n      dup7\n      add\n      swap1\n      sstore\n        /* \"@openzeppelin/contracts/token/ERC20/ERC20.sol\":8952:8989  Transfer(address(0), account, amount) */\n      mload\n        /* \"#utility.yul\":762:787   */\n      dup5\n      dup2\n      mstore\n        /* \"@openzeppelin/contracts/token/ERC20/ERC20.sol\":8952:8989  Transfer(address(0), account, amount) */\n      0xddf252ad1be2c89b69c2b068fc378daa952ba7f163c4a11628f55a4df523b3ef\n      swap2\n        /* \"#utility.yul\":735:753   */\n      add\n        /* \"@openzeppelin/contracts/token/ERC20/ERC20.sol\":8952:8989  Transfer(address(0), account, amount) */\n      mload(0x40)\n      dup1\n      swap2\n      sub\n      swap1\n      log3\n        /* \"@openzeppelin/contracts/token/ERC20/ERC20.sol\":8520:9055  function _mint(address account, uint256 amount) internal virtual {... */\n      pop\n      pop\n      jump\t// out\n        /* \"@openzeppelin/contracts/token/ERC20/ERC20.sol\":11078:11489  function _spendAllowance(address owner, address spender, uint256 amount) internal virtual {... */\n    tag_167:\n        /* \"@openzeppelin/contracts/token/ERC20/ERC20.sol\":11178:11202  uint256 currentAllowance */\n      0x00\n        /* \"@openzeppelin/contracts/token/ERC20/ERC20.sol\":11205:11230  allowance(owner, spender) */\n      tag_293\n        /* \"@openzeppelin/contracts/token/ERC20/ERC20.sol\":11215:11220  owner */\n      dup5\n        /* \"@openzeppelin/contracts/token/ERC20/ERC20.sol\":11222:11229  spender */\n      dup5\n        /* \"@openzeppelin/contracts/token/ERC20/ERC20.sol\":11205:11214  allowance */\n      tag_95\n        /* \"@openzeppelin/contracts/token/ERC20/ERC20.sol\":11205:11230  allowance(owner, spender) */\n      jump\t// in\n    tag_293:\n        /* \"@openzeppelin/contracts/token/ERC20/ERC20.sol\":11178:11230  uint256 currentAllowance = allowance(owner, spender) */\n      swap1\n      pop\n      not(0x00)\n        /* \"@openzeppelin/contracts/token/ERC20/ERC20.sol\":11244:11260  currentAllowance */\n      dup2\n        /* \"@openzeppelin/contracts/token/ERC20/ERC20.sol\":11244:11281  currentAllowance != type(uint256).max */\n      eq\n        /* \"@openzeppelin/contracts/token/ERC20/ERC20.sol\":11240:11483  if (currentAllowance != type(uint256).max) {... */\n      tag_298\n      jumpi\n        /* \"@openzeppelin/contracts/token/ERC20/ERC20.sol\":11325:11331  amount */\n      dup2\n        /* \"@openzeppelin/contracts/token/ERC20/ERC20.sol\":11305:11321  currentAllowance */\n      dup2\n        /* \"@openzeppelin/contracts/token/ERC20/ERC20.sol\":11305:11331  currentAllowance >= amount */\n      lt\n      iszero\n        /* \"@openzeppelin/contracts/token/ERC20/ERC20.sol\":11297:11365  require(currentAllowance >= amount, \"ERC20: insufficient allowance\") */\n      tag_295\n      jumpi\n      mload(0x40)\n      shl(0xe5, 0x461bcd)\n      dup2\n      mstore\n        /* \"#utility.yul\":11017:11019   */\n      0x20\n        /* \"@openzeppelin/contracts/token/ERC20/ERC20.sol\":11297:11365  require(currentAllowance >= amount, \"ERC20: insufficient allowance\") */\n      0x04\n      dup3\n      add\n        /* \"#utility.yul\":10999:11020   */\n      mstore\n        /* \"#utility.yul\":11056:11058   */\n      0x1d\n        /* \"#utility.yul\":11036:11054   */\n      0x24\n      dup3\n      add\n        /* \"#utility.yul\":11029:11059   */\n      mstore\n        /* \"#utility.yul\":11095:11126   */\n      0x45524332303a20696e73756666696369656e7420616c6c6f77616e6365000000\n        /* \"#utility.yul\":11075:11093   */\n      0x44\n      dup3\n      add\n        /* \"#utility.yul\":11068:11127   */\n      mstore\n        /* \"#utility.yul\":11144:11162   */\n      0x64\n      add\n        /* \"@openzeppelin/contracts/token/ERC20/ERC20.sol\":11297:11365  require(currentAllowance >= amount, \"ERC20: insufficient allowance\") */\n      tag_123\n        /* \"#utility.yul\":10815:11168   */\n      jump\n        /* \"@openzeppelin/contracts/token/ERC20/ERC20.sol\":11297:11365  require(currentAllowance >= amount, \"ERC20: insufficient allowance\") */\n    tag_295:\n        /* \"@openzeppelin/contracts/token/ERC20/ERC20.sol\":11407:11458  _approve(owner, spender, currentAllowance - amount) */\n      tag_298\n        /* \"@openzeppelin/contracts/token/ERC20/ERC20.sol\":11416:11421  owner */\n      dup5\n        /* \"@openzeppelin/contracts/token/ERC20/ERC20.sol\":11423:11430  spender */\n      dup5\n        /* \"@openzeppelin/contracts/token/ERC20/ERC20.sol\":11451:11457  amount */\n      dup5\n        /* \"@openzeppelin/contracts/token/ERC20/ERC20.sol\":11432:11448  currentAllowance */\n      dup5\n        /* \"@openzeppelin/contracts/token/ERC20/ERC20.sol\":11432:11457  currentAllowance - amount */\n      sub\n        /* \"@openzeppelin/contracts/token/ERC20/ERC20.sol\":11407:11415  _approve */\n      tag_117\n        /* \"@openzeppelin/contracts/token/ERC20/ERC20.sol\":11407:11458  _approve(owner, spender, currentAllowance - amount) */\n      jump\t// in\n    tag_298:\n        /* \"@openzeppelin/contracts/token/ERC20/ERC20.sol\":11168:11489  {... */\n      pop\n        /* \"@openzeppelin/contracts/token/ERC20/ERC20.sol\":11078:11489  function _spendAllowance(address owner, address spender, uint256 amount) internal virtual {... */\n      pop\n      pop\n      pop\n      jump\t// out\n        /* \"@openzeppelin/contracts/token/ERC20/ERC20.sol\":7456:8244  function _transfer(address from, address to, uint256 amount) internal virtual {... */\n    tag_169:\n      sub(shl(0xa0, 0x01), 0x01)\n        /* \"@openzeppelin/contracts/token/ERC20/ERC20.sol\":7552:7570  from != address(0) */\n      dup4\n      and\n        /* \"@openzeppelin/contracts/token/ERC20/ERC20.sol\":7544:7612  require(from != address(0), \"ERC20: transfer from the zero address\") */\n      tag_300\n      jumpi\n      mload(0x40)\n      shl(0xe5, 0x461bcd)\n      dup2\n      mstore\n        /* \"#utility.yul\":11375:11377   */\n      0x20\n        /* \"@openzeppelin/contracts/token/ERC20/ERC20.sol\":7544:7612  require(from != address(0), \"ERC20: transfer from the zero address\") */\n      0x04\n      dup3\n      add\n        /* \"#utility.yul\":11357:11378   */\n      mstore\n        /* \"#utility.yul\":11414:11416   */\n      0x25\n        /* \"#utility.yul\":11394:11412   */\n      0x24\n      dup3\n      add\n        /* \"#utility.yul\":11387:11417   */\n      mstore\n        /* \"#utility.yul\":11453:11487   */\n      0x45524332303a207472616e736665722066726f6d20746865207a65726f206164\n        /* \"#utility.yul\":11433:11451   */\n      0x44\n      dup3\n      add\n        /* \"#utility.yul\":11426:11488   */\n      mstore\n      shl(0xd8, 0x6472657373)\n        /* \"#utility.yul\":11504:11522   */\n      0x64\n      dup3\n      add\n        /* \"#utility.yul\":11497:11532   */\n      mstore\n        /* \"#utility.yul\":11549:11568   */\n      0x84\n      add\n        /* \"@openzeppelin/contracts/token/ERC20/ERC20.sol\":7544:7612  require(from != address(0), \"ERC20: transfer from the zero address\") */\n      tag_123\n        /* \"#utility.yul\":11173:11574   */\n      jump\n        /* \"@openzeppelin/contracts/token/ERC20/ERC20.sol\":7544:7612  require(from != address(0), \"ERC20: transfer from the zero address\") */\n    tag_300:\n      sub(shl(0xa0, 0x01), 0x01)\n        /* \"@openzeppelin/contracts/token/ERC20/ERC20.sol\":7630:7646  to != address(0) */\n      dup3\n      and\n        /* \"@openzeppelin/contracts/token/ERC20/ERC20.sol\":7622:7686  require(to != address(0), \"ERC20: transfer to the zero address\") */\n      tag_303\n      jumpi\n      mload(0x40)\n      shl(0xe5, 0x461bcd)\n      dup2\n      mstore\n        /* \"#utility.yul\":11781:11783   */\n      0x20\n        /* \"@openzeppelin/contracts/token/ERC20/ERC20.sol\":7622:7686  require(to != address(0), \"ERC20: transfer to the zero address\") */\n      0x04\n      dup3\n      add\n        /* \"#utility.yul\":11763:11784   */\n      mstore\n        /* \"#utility.yul\":11820:11822   */\n      0x23\n        /* \"#utility.yul\":11800:11818   */\n      0x24\n      dup3\n      add\n        /* \"#utility.yul\":11793:11823   */\n      mstore\n        /* \"#utility.yul\":11859:11893   */\n      0x45524332303a207472616e7366657220746f20746865207a65726f2061646472\n        /* \"#utility.yul\":11839:11857   */\n      0x44\n      dup3\n      add\n        /* \"#utility.yul\":11832:11894   */\n      mstore\n      shl(0xe8, 0x657373)\n        /* \"#utility.yul\":11910:11928   */\n      0x64\n      dup3\n      add\n        /* \"#utility.yul\":11903:11936   */\n      mstore\n        /* \"#utility.yul\":11953:11972   */\n      0x84\n      add\n        /* \"@openzeppelin/contracts/token/ERC20/ERC20.sol\":7622:7686  require(to != address(0), \"ERC20: transfer to the zero address\") */\n      tag_123\n        /* \"#utility.yul\":11579:11978   */\n      jump\n        /* \"@openzeppelin/contracts/token/ERC20/ERC20.sol\":7622:7686  require(to != address(0), \"ERC20: transfer to the zero address\") */\n    tag_303:\n      sub(shl(0xa0, 0x01), 0x01)\n        /* \"@openzeppelin/contracts/token/ERC20/ERC20.sol\":7768:7783  _balances[from] */\n      dup4\n      and\n        /* \"@openzeppelin/contracts/token/ERC20/ERC20.sol\":7746:7765  uint256 fromBalance */\n      0x00\n        /* \"@openzeppelin/contracts/token/ERC20/ERC20.sol\":7768:7783  _balances[from] */\n      swap1\n      dup2\n      mstore\n      0x20\n      dup2\n      swap1\n      mstore\n      0x40\n      swap1\n      keccak256\n      sload\n        /* \"@openzeppelin/contracts/token/ERC20/ERC20.sol\":7801:7822  fromBalance >= amount */\n      dup2\n      dup2\n      lt\n      iszero\n        /* \"@openzeppelin/contracts/token/ERC20/ERC20.sol\":7793:7865  require(fromBalance >= amount, \"ERC20: transfer amount exceeds balance\") */\n      tag_307\n      jumpi\n      mload(0x40)\n      shl(0xe5, 0x461bcd)\n      dup2\n      mstore\n        /* \"#utility.yul\":12185:12187   */\n      0x20\n        /* \"@openzeppelin/contracts/token/ERC20/ERC20.sol\":7793:7865  require(fromBalance >= amount, \"ERC20: transfer amount exceeds balance\") */\n      0x04\n      dup3\n      add\n        /* \"#utility.yul\":12167:12188   */\n      mstore\n        /* \"#utility.yul\":12224:12226   */\n      0x26\n        /* \"#utility.yul\":12204:12222   */\n      0x24\n      dup3\n      add\n        /* \"#utility.yul\":12197:12227   */\n      mstore\n        /* \"#utility.yul\":12263:12297   */\n      0x45524332303a207472616e7366657220616d6f756e7420657863656564732062\n        /* \"#utility.yul\":12243:12261   */\n      0x44\n      dup3\n      add\n        /* \"#utility.yul\":12236:12298   */\n      mstore\n      shl(0xd0, 0x616c616e6365)\n        /* \"#utility.yul\":12314:12332   */\n      0x64\n      dup3\n      add\n        /* \"#utility.yul\":12307:12343   */\n      mstore\n        /* \"#utility.yul\":12360:12379   */\n      0x84\n      add\n        /* \"@openzeppelin/contracts/token/ERC20/ERC20.sol\":7793:7865  require(fromBalance >= amount, \"ERC20: transfer amount exceeds balance\") */\n      tag_123\n        /* \"#utility.yul\":11983:12385   */\n      jump\n        /* \"@openzeppelin/contracts/token/ERC20/ERC20.sol\":7793:7865  require(fromBalance >= amount, \"ERC20: transfer amount exceeds balance\") */\n    tag_307:\n      sub(shl(0xa0, 0x01), 0x01)\n        /* \"@openzeppelin/contracts/token/ERC20/ERC20.sol\":7899:7914  _balances[from] */\n      dup5\n      dup2\n      and\n        /* \"@openzeppelin/contracts/token/ERC20/ERC20.sol\":7899:7908  _balances */\n      0x00\n        /* \"@openzeppelin/contracts/token/ERC20/ERC20.sol\":7899:7914  _balances[from] */\n      dup2\n      dup2\n      mstore\n      0x20\n      dup2\n      dup2\n      mstore\n      0x40\n      dup1\n      dup4\n      keccak256\n        /* \"@openzeppelin/contracts/token/ERC20/ERC20.sol\":7917:7937  fromBalance - amount */\n      dup8\n      dup8\n      sub\n        /* \"@openzeppelin/contracts/token/ERC20/ERC20.sol\":7899:7937  _balances[from] = fromBalance - amount */\n      swap1\n      sstore\n        /* \"@openzeppelin/contracts/token/ERC20/ERC20.sol\":8114:8127  _balances[to] */\n      swap4\n      dup8\n      and\n      dup1\n      dup4\n      mstore\n      swap2\n      dup5\n      swap1\n      keccak256\n        /* \"@openzeppelin/contracts/token/ERC20/ERC20.sol\":8114:8137  _balances[to] += amount */\n      dup1\n      sload\n      dup8\n      add\n      swap1\n      sstore\n        /* \"@openzeppelin/contracts/token/ERC20/ERC20.sol\":8163:8189  Transfer(from, to, amount) */\n      swap3\n      mload\n        /* \"#utility.yul\":762:787   */\n      dup6\n      dup2\n      mstore\n        /* \"@openzeppelin/contracts/token/ERC20/ERC20.sol\":8114:8127  _balances[to] */\n      swap1\n      swap3\n        /* \"@openzeppelin/contracts/token/ERC20/ERC20.sol\":8163:8189  Transfer(from, to, amount) */\n      0xddf252ad1be2c89b69c2b068fc378daa952ba7f163c4a11628f55a4df523b3ef\n      swap2\n        /* \"#utility.yul\":735:753   */\n      add\n        /* \"@openzeppelin/contracts/token/ERC20/ERC20.sol\":8163:8189  Transfer(from, to, amount) */\n      mload(0x40)\n      dup1\n      swap2\n      sub\n      swap1\n      log3\n        /* \"@openzeppelin/contracts/token/ERC20/ERC20.sol\":8200:8237  _afterTokenTransfer(from, to, amount) */\n      tag_298\n        /* \"@openzeppelin/contracts/token/ERC20/ERC20.sol\":12073:12164  function _beforeTokenTransfer(address from, address to, uint256 amount) internal virtual {} */\n      jump\n        /* \"@openzeppelin/contracts/access/Ownable.sol\":2426:2613  function _transferOwnership(address newOwner) internal virtual {... */\n    tag_183:\n        /* \"@openzeppelin/contracts/access/Ownable.sol\":2518:2524  _owner */\n      0x05\n      dup1\n      sload\n      sub(shl(0xa0, 0x01), 0x01)\n        /* \"@openzeppelin/contracts/access/Ownable.sol\":2534:2551  _owner = newOwner */\n      dup4\n      dup2\n      and\n      not(sub(shl(0xa0, 0x01), 0x01))\n      dup4\n      and\n      dup2\n      or\n      swap1\n      swap4\n      sstore\n        /* \"@openzeppelin/contracts/access/Ownable.sol\":2566:2606  OwnershipTransferred(oldOwner, newOwner) */\n      mload(0x40)\n        /* \"@openzeppelin/contracts/access/Ownable.sol\":2518:2524  _owner */\n      swap2\n      and\n      swap2\n        /* \"@openzeppelin/contracts/access/Ownable.sol\":2534:2551  _owner = newOwner */\n      swap1\n        /* \"@openzeppelin/contracts/access/Ownable.sol\":2518:2524  _owner */\n      dup3\n      swap1\n        /* \"@openzeppelin/contracts/access/Ownable.sol\":2566:2606  OwnershipTransferred(oldOwner, newOwner) */\n      0x8be0079c531659141344cd1fd0a4f28419497f9722a3daafe3b4186f6b6457e0\n      swap1\n        /* \"@openzeppelin/contracts/access/Ownable.sol\":2499:2515  address oldOwner */\n      0x00\n      swap1\n        /* \"@openzeppelin/contracts/access/Ownable.sol\":2566:2606  OwnershipTransferred(oldOwner, newOwner) */\n      log3\n        /* \"@openzeppelin/contracts/access/Ownable.sol\":2489:2613  {... */\n      pop\n        /* \"@openzeppelin/contracts/access/Ownable.sol\":2426:2613  function _transferOwnership(address newOwner) internal virtual {... */\n      pop\n      jump\t// out\n        /* \"#utility.yul\":14:611   */\n    tag_29:\n        /* \"#utility.yul\":126:130   */\n      0x00\n        /* \"#utility.yul\":155:157   */\n      0x20\n        /* \"#utility.yul\":184:186   */\n      dup1\n        /* \"#utility.yul\":173:182   */\n      dup4\n        /* \"#utility.yul\":166:187   */\n      mstore\n        /* \"#utility.yul\":216:222   */\n      dup4\n        /* \"#utility.yul\":210:223   */\n      mload\n        /* \"#utility.yul\":259:265   */\n      dup1\n        /* \"#utility.yul\":254:256   */\n      dup3\n        /* \"#utility.yul\":243:252   */\n      dup6\n        /* \"#utility.yul\":239:257   */\n      add\n        /* \"#utility.yul\":232:266   */\n      mstore\n        /* \"#utility.yul\":284:285   */\n      0x00\n        /* \"#utility.yul\":294:434   */\n    tag_322:\n        /* \"#utility.yul\":308:314   */\n      dup2\n        /* \"#utility.yul\":305:306   */\n      dup2\n        /* \"#utility.yul\":302:315   */\n      lt\n        /* \"#utility.yul\":294:434   */\n      iszero\n      tag_324\n      jumpi\n        /* \"#utility.yul\":403:417   */\n      dup6\n      dup2\n      add\n        /* \"#utility.yul\":399:422   */\n      dup4\n      add\n        /* \"#utility.yul\":393:423   */\n      mload\n        /* \"#utility.yul\":369:386   */\n      dup6\n      dup3\n      add\n        /* \"#utility.yul\":388:390   */\n      0x40\n        /* \"#utility.yul\":365:391   */\n      add\n        /* \"#utility.yul\":358:424   */\n      mstore\n        /* \"#utility.yul\":323:333   */\n      dup3\n      add\n        /* \"#utility.yul\":294:434   */\n      jump(tag_322)\n    tag_324:\n        /* \"#utility.yul\":452:458   */\n      dup2\n        /* \"#utility.yul\":449:450   */\n      dup2\n        /* \"#utility.yul\":446:459   */\n      gt\n        /* \"#utility.yul\":443:534   */\n      iszero\n      tag_325\n      jumpi\n        /* \"#utility.yul\":522:523   */\n      0x00\n        /* \"#utility.yul\":517:519   */\n      0x40\n        /* \"#utility.yul\":508:514   */\n      dup4\n        /* \"#utility.yul\":497:506   */\n      dup8\n        /* \"#utility.yul\":493:515   */\n      add\n        /* \"#utility.yul\":489:520   */\n      add\n        /* \"#utility.yul\":482:524   */\n      mstore\n        /* \"#utility.yul\":443:534   */\n    tag_325:\n      pop\n        /* \"#utility.yul\":595:597   */\n      0x1f\n        /* \"#utility.yul\":574:589   */\n      add\n      not(0x1f)\n        /* \"#utility.yul\":570:599   */\n      and\n        /* \"#utility.yul\":555:600   */\n      swap3\n      swap1\n      swap3\n      add\n        /* \"#utility.yul\":602:604   */\n      0x40\n        /* \"#utility.yul\":551:605   */\n      add\n      swap4\n        /* \"#utility.yul\":14:611   */\n      swap3\n      pop\n      pop\n      pop\n      jump\t// out\n        /* \"#utility.yul\":798:971   */\n    tag_315:\n        /* \"#utility.yul\":866:886   */\n      dup1\n      calldataload\n      sub(shl(0xa0, 0x01), 0x01)\n        /* \"#utility.yul\":915:946   */\n      dup2\n      and\n        /* \"#utility.yul\":905:947   */\n      dup2\n      eq\n        /* \"#utility.yul\":895:965   */\n      tag_328\n      jumpi\n        /* \"#utility.yul\":961:962   */\n      0x00\n        /* \"#utility.yul\":958:959   */\n      dup1\n        /* \"#utility.yul\":951:963   */\n      revert\n        /* \"#utility.yul\":895:965   */\n    tag_328:\n        /* \"#utility.yul\":798:971   */\n      swap2\n      swap1\n      pop\n      jump\t// out\n        /* \"#utility.yul\":976:1230   */\n    tag_36:\n        /* \"#utility.yul\":1044:1050   */\n      0x00\n        /* \"#utility.yul\":1052:1058   */\n      dup1\n        /* \"#utility.yul\":1105:1107   */\n      0x40\n        /* \"#utility.yul\":1093:1102   */\n      dup4\n        /* \"#utility.yul\":1084:1091   */\n      dup6\n        /* \"#utility.yul\":1080:1103   */\n      sub\n        /* \"#utility.yul\":1076:1108   */\n      slt\n        /* \"#utility.yul\":1073:1125   */\n      iszero\n      tag_330\n      jumpi\n        /* \"#utility.yul\":1121:1122   */\n      0x00\n        /* \"#utility.yul\":1118:1119   */\n      dup1\n        /* \"#utility.yul\":1111:1123   */\n      revert\n        /* \"#utility.yul\":1073:1125   */\n    tag_330:\n        /* \"#utility.yul\":1144:1173   */\n      tag_331\n        /* \"#utility.yul\":1163:1172   */\n      dup4\n        /* \"#utility.yul\":1144:1173   */\n      tag_315\n      jump\t// in\n    tag_331:\n        /* \"#utility.yul\":1134:1173   */\n      swap5\n        /* \"#utility.yul\":1220:1222   */\n      0x20\n        /* \"#utility.yul\":1205:1223   */\n      swap4\n      swap1\n      swap4\n      add\n        /* \"#utility.yul\":1192:1224   */\n      calldataload\n      swap4\n      pop\n      pop\n      pop\n        /* \"#utility.yul\":976:1230   */\n      jump\t// out\n        /* \"#utility.yul\":1427:1749   */\n    tag_42:\n        /* \"#utility.yul\":1504:1510   */\n      0x00\n        /* \"#utility.yul\":1512:1518   */\n      dup1\n        /* \"#utility.yul\":1520:1526   */\n      0x00\n        /* \"#utility.yul\":1573:1575   */\n      0x60\n        /* \"#utility.yul\":1561:1570   */\n      dup5\n        /* \"#utility.yul\":1552:1559   */\n      dup7\n        /* \"#utility.yul\":1548:1571   */\n      sub\n        /* \"#utility.yul\":1544:1576   */\n      slt\n        /* \"#utility.yul\":1541:1593   */\n      iszero\n      tag_334\n      jumpi\n        /* \"#utility.yul\":1589:1590   */\n      0x00\n        /* \"#utility.yul\":1586:1587   */\n      dup1\n        /* \"#utility.yul\":1579:1591   */\n      revert\n        /* \"#utility.yul\":1541:1593   */\n    tag_334:\n        /* \"#utility.yul\":1612:1641   */\n      tag_335\n        /* \"#utility.yul\":1631:1640   */\n      dup5\n        /* \"#utility.yul\":1612:1641   */\n      tag_315\n      jump\t// in\n    tag_335:\n        /* \"#utility.yul\":1602:1641   */\n      swap6\n        /* \"#utility.yul\":1688:1690   */\n      0x20\n        /* \"#utility.yul\":1673:1691   */\n      dup6\n      add\n        /* \"#utility.yul\":1660:1692   */\n      calldataload\n      swap6\n      pop\n        /* \"#utility.yul\":1739:1741   */\n      0x40\n        /* \"#utility.yul\":1724:1742   */\n      swap1\n      swap5\n      add\n        /* \"#utility.yul\":1711:1743   */\n      calldataload\n      swap4\n        /* \"#utility.yul\":1427:1749   */\n      swap3\n      pop\n      pop\n      pop\n      jump\t// out\n        /* \"#utility.yul\":1754:2082   */\n    tag_49:\n        /* \"#utility.yul\":1831:1837   */\n      0x00\n        /* \"#utility.yul\":1839:1845   */\n      dup1\n        /* \"#utility.yul\":1847:1853   */\n      0x00\n        /* \"#utility.yul\":1900:1902   */\n      0x60\n        /* \"#utility.yul\":1888:1897   */\n      dup5\n        /* \"#utility.yul\":1879:1886   */\n      dup7\n        /* \"#utility.yul\":1875:1898   */\n      sub\n        /* \"#utility.yul\":1871:1903   */\n      slt\n        /* \"#utility.yul\":1868:1920   */\n      iszero\n      tag_337\n      jumpi\n        /* \"#utility.yul\":1916:1917   */\n      0x00\n        /* \"#utility.yul\":1913:1914   */\n      dup1\n        /* \"#utility.yul\":1906:1918   */\n      revert\n        /* \"#utility.yul\":1868:1920   */\n    tag_337:\n        /* \"#utility.yul\":1939:1968   */\n      tag_338\n        /* \"#utility.yul\":1958:1967   */\n      dup5\n        /* \"#utility.yul\":1939:1968   */\n      tag_315\n      jump\t// in\n    tag_338:\n        /* \"#utility.yul\":1929:1968   */\n      swap3\n      pop\n        /* \"#utility.yul\":1987:2025   */\n      tag_339\n        /* \"#utility.yul\":2021:2023   */\n      0x20\n        /* \"#utility.yul\":2010:2019   */\n      dup6\n        /* \"#utility.yul\":2006:2024   */\n      add\n        /* \"#utility.yul\":1987:2025   */\n      tag_315\n      jump\t// in\n    tag_339:\n        /* \"#utility.yul\":1977:2025   */\n      swap2\n      pop\n        /* \"#utility.yul\":2072:2074   */\n      0x40\n        /* \"#utility.yul\":2061:2070   */\n      dup5\n        /* \"#utility.yul\":2057:2075   */\n      add\n        /* \"#utility.yul\":2044:2076   */\n      calldataload\n        /* \"#utility.yul\":2034:2076   */\n      swap1\n      pop\n        /* \"#utility.yul\":1754:2082   */\n      swap3\n      pop\n      swap3\n      pop\n      swap3\n      jump\t// out\n        /* \"#utility.yul\":2276:2462   */\n    tag_65:\n        /* \"#utility.yul\":2335:2341   */\n      0x00\n        /* \"#utility.yul\":2388:2390   */\n      0x20\n        /* \"#utility.yul\":2376:2385   */\n      dup3\n        /* \"#utility.yul\":2367:2374   */\n      dup5\n        /* \"#utility.yul\":2363:2386   */\n      sub\n        /* \"#utility.yul\":2359:2391   */\n      slt\n        /* \"#utility.yul\":2356:2408   */\n      iszero\n      tag_342\n      jumpi\n        /* \"#utility.yul\":2404:2405   */\n      0x00\n        /* \"#utility.yul\":2401:2402   */\n      dup1\n        /* \"#utility.yul\":2394:2406   */\n      revert\n        /* \"#utility.yul\":2356:2408   */\n    tag_342:\n        /* \"#utility.yul\":2427:2456   */\n      tag_343\n        /* \"#utility.yul\":2446:2455   */\n      dup3\n        /* \"#utility.yul\":2427:2456   */\n      tag_315\n      jump\t// in\n    tag_343:\n        /* \"#utility.yul\":2417:2456   */\n      swap4\n        /* \"#utility.yul\":2276:2462   */\n      swap3\n      pop\n      pop\n      pop\n      jump\t// out\n        /* \"#utility.yul\":2675:3042   */\n    tag_316:\n        /* \"#utility.yul\":2738:2746   */\n      0x00\n        /* \"#utility.yul\":2748:2754   */\n      dup1\n        /* \"#utility.yul\":2802:2805   */\n      dup4\n        /* \"#utility.yul\":2795:2799   */\n      0x1f\n        /* \"#utility.yul\":2787:2793   */\n      dup5\n        /* \"#utility.yul\":2783:2800   */\n      add\n        /* \"#utility.yul\":2779:2806   */\n      slt\n        /* \"#utility.yul\":2769:2824   */\n      tag_346\n      jumpi\n        /* \"#utility.yul\":2820:2821   */\n      0x00\n        /* \"#utility.yul\":2817:2818   */\n      dup1\n        /* \"#utility.yul\":2810:2822   */\n      revert\n        /* \"#utility.yul\":2769:2824   */\n    tag_346:\n      pop\n        /* \"#utility.yul\":2843:2863   */\n      dup2\n      calldataload\n        /* \"#utility.yul\":2886:2904   */\n      0xffffffffffffffff\n        /* \"#utility.yul\":2875:2905   */\n      dup2\n      gt\n        /* \"#utility.yul\":2872:2922   */\n      iszero\n      tag_347\n      jumpi\n        /* \"#utility.yul\":2918:2919   */\n      0x00\n        /* \"#utility.yul\":2915:2916   */\n      dup1\n        /* \"#utility.yul\":2908:2920   */\n      revert\n        /* \"#utility.yul\":2872:2922   */\n    tag_347:\n        /* \"#utility.yul\":2955:2959   */\n      0x20\n        /* \"#utility.yul\":2947:2953   */\n      dup4\n        /* \"#utility.yul\":2943:2960   */\n      add\n        /* \"#utility.yul\":2931:2960   */\n      swap2\n      pop\n        /* \"#utility.yul\":3015:3018   */\n      dup4\n        /* \"#utility.yul\":3008:3012   */\n      0x20\n        /* \"#utility.yul\":2998:3004   */\n      dup3\n        /* \"#utility.yul\":2995:2996   */\n      0x05\n        /* \"#utility.yul\":2991:3005   */\n      shl\n        /* \"#utility.yul\":2983:2989   */\n      dup6\n        /* \"#utility.yul\":2979:3006   */\n      add\n        /* \"#utility.yul\":2975:3013   */\n      add\n        /* \"#utility.yul\":2972:3019   */\n      gt\n        /* \"#utility.yul\":2969:3036   */\n      iszero\n      tag_348\n      jumpi\n        /* \"#utility.yul\":3032:3033   */\n      0x00\n        /* \"#utility.yul\":3029:3030   */\n      dup1\n        /* \"#utility.yul\":3022:3034   */\n      revert\n        /* \"#utility.yul\":2969:3036   */\n    tag_348:\n        /* \"#utility.yul\":2675:3042   */\n      swap3\n      pop\n      swap3\n      swap1\n      pop\n      jump\t// out\n        /* \"#utility.yul\":3047:4135   */\n    tag_87:\n        /* \"#utility.yul\":3205:3211   */\n      0x00\n        /* \"#utility.yul\":3213:3219   */\n      dup1\n        /* \"#utility.yul\":3221:3227   */\n      0x00\n        /* \"#utility.yul\":3229:3235   */\n      dup1\n        /* \"#utility.yul\":3237:3243   */\n      0x00\n        /* \"#utility.yul\":3245:3251   */\n      dup1\n        /* \"#utility.yul\":3298:3300   */\n      0x60\n        /* \"#utility.yul\":3286:3295   */\n      dup8\n        /* \"#utility.yul\":3277:3284   */\n      dup10\n        /* \"#utility.yul\":3273:3296   */\n      sub\n        /* \"#utility.yul\":3269:3301   */\n      slt\n        /* \"#utility.yul\":3266:3318   */\n      iszero\n      tag_350\n      jumpi\n        /* \"#utility.yul\":3314:3315   */\n      0x00\n        /* \"#utility.yul\":3311:3312   */\n      dup1\n        /* \"#utility.yul\":3304:3316   */\n      revert\n        /* \"#utility.yul\":3266:3318   */\n    tag_350:\n        /* \"#utility.yul\":3354:3363   */\n      dup7\n        /* \"#utility.yul\":3341:3364   */\n      calldataload\n        /* \"#utility.yul\":3383:3401   */\n      0xffffffffffffffff\n        /* \"#utility.yul\":3424:3426   */\n      dup1\n        /* \"#utility.yul\":3416:3422   */\n      dup3\n        /* \"#utility.yul\":3413:3427   */\n      gt\n        /* \"#utility.yul\":3410:3444   */\n      iszero\n      tag_351\n      jumpi\n        /* \"#utility.yul\":3440:3441   */\n      0x00\n        /* \"#utility.yul\":3437:3438   */\n      dup1\n        /* \"#utility.yul\":3430:3442   */\n      revert\n        /* \"#utility.yul\":3410:3444   */\n    tag_351:\n        /* \"#utility.yul\":3479:3549   */\n      tag_352\n        /* \"#utility.yul\":3541:3548   */\n      dup11\n        /* \"#utility.yul\":3532:3538   */\n      dup4\n        /* \"#utility.yul\":3521:3530   */\n      dup12\n        /* \"#utility.yul\":3517:3539   */\n      add\n        /* \"#utility.yul\":3479:3549   */\n      tag_316\n      jump\t// in\n    tag_352:\n        /* \"#utility.yul\":3568:3576   */\n      swap1\n      swap9\n      pop\n        /* \"#utility.yul\":3453:3549   */\n      swap7\n      pop\n        /* \"#utility.yul\":3656:3658   */\n      0x20\n        /* \"#utility.yul\":3641:3659   */\n      dup10\n      add\n        /* \"#utility.yul\":3628:3660   */\n      calldataload\n      swap2\n      pop\n        /* \"#utility.yul\":3672:3688   */\n      dup1\n      dup3\n      gt\n        /* \"#utility.yul\":3669:3705   */\n      iszero\n      tag_353\n      jumpi\n        /* \"#utility.yul\":3701:3702   */\n      0x00\n        /* \"#utility.yul\":3698:3699   */\n      dup1\n        /* \"#utility.yul\":3691:3703   */\n      revert\n        /* \"#utility.yul\":3669:3705   */\n    tag_353:\n        /* \"#utility.yul\":3740:3812   */\n      tag_354\n        /* \"#utility.yul\":3804:3811   */\n      dup11\n        /* \"#utility.yul\":3793:3801   */\n      dup4\n        /* \"#utility.yul\":3782:3791   */\n      dup12\n        /* \"#utility.yul\":3778:3802   */\n      add\n        /* \"#utility.yul\":3740:3812   */\n      tag_316\n      jump\t// in\n    tag_354:\n        /* \"#utility.yul\":3831:3839   */\n      swap1\n      swap7\n      pop\n        /* \"#utility.yul\":3714:3812   */\n      swap5\n      pop\n        /* \"#utility.yul\":3919:3921   */\n      0x40\n        /* \"#utility.yul\":3904:3922   */\n      dup10\n      add\n        /* \"#utility.yul\":3891:3923   */\n      calldataload\n      swap2\n      pop\n        /* \"#utility.yul\":3935:3951   */\n      dup1\n      dup3\n      gt\n        /* \"#utility.yul\":3932:3968   */\n      iszero\n      tag_355\n      jumpi\n        /* \"#utility.yul\":3964:3965   */\n      0x00\n        /* \"#utility.yul\":3961:3962   */\n      dup1\n        /* \"#utility.yul\":3954:3966   */\n      revert\n        /* \"#utility.yul\":3932:3968   */\n    tag_355:\n      pop\n        /* \"#utility.yul\":4003:4075   */\n      tag_356\n        /* \"#utility.yul\":4067:4074   */\n      dup10\n        /* \"#utility.yul\":4056:4064   */\n      dup3\n        /* \"#utility.yul\":4045:4054   */\n      dup11\n        /* \"#utility.yul\":4041:4065   */\n      add\n        /* \"#utility.yul\":4003:4075   */\n      tag_316\n      jump\t// in\n    tag_356:\n        /* \"#utility.yul\":3047:4135   */\n      swap8\n      swap11\n      swap7\n      swap10\n      pop\n      swap5\n      swap8\n      pop\n      swap3\n      swap6\n        /* \"#utility.yul\":4094:4102   */\n      swap4\n      swap5\n        /* \"#utility.yul\":3047:4135   */\n      swap3\n      pop\n      pop\n      pop\n      jump\t// out\n        /* \"#utility.yul\":4140:4400   */\n    tag_94:\n        /* \"#utility.yul\":4208:4214   */\n      0x00\n        /* \"#utility.yul\":4216:4222   */\n      dup1\n        /* \"#utility.yul\":4269:4271   */\n      0x40\n        /* \"#utility.yul\":4257:4266   */\n      dup4\n        /* \"#utility.yul\":4248:4255   */\n      dup6\n        /* \"#utility.yul\":4244:4267   */\n      sub\n        /* \"#utility.yul\":4240:4272   */\n      slt\n        /* \"#utility.yul\":4237:4289   */\n      iszero\n      tag_358\n      jumpi\n        /* \"#utility.yul\":4285:4286   */\n      0x00\n        /* \"#utility.yul\":4282:4283   */\n      dup1\n        /* \"#utility.yul\":4275:4287   */\n      revert\n        /* \"#utility.yul\":4237:4289   */\n    tag_358:\n        /* \"#utility.yul\":4308:4337   */\n      tag_359\n        /* \"#utility.yul\":4327:4336   */\n      dup4\n        /* \"#utility.yul\":4308:4337   */\n      tag_315\n      jump\t// in\n    tag_359:\n        /* \"#utility.yul\":4298:4337   */\n      swap2\n      pop\n        /* \"#utility.yul\":4356:4394   */\n      tag_360\n        /* \"#utility.yul\":4390:4392   */\n      0x20\n        /* \"#utility.yul\":4379:4388   */\n      dup5\n        /* \"#utility.yul\":4375:4393   */\n      add\n        /* \"#utility.yul\":4356:4394   */\n      tag_315\n      jump\t// in\n    tag_360:\n        /* \"#utility.yul\":4346:4394   */\n      swap1\n      pop\n        /* \"#utility.yul\":4140:4400   */\n      swap3\n      pop\n      swap3\n      swap1\n      pop\n      jump\t// out\n        /* \"#utility.yul\":4405:4585   */\n    tag_99:\n        /* \"#utility.yul\":4464:4470   */\n      0x00\n        /* \"#utility.yul\":4517:4519   */\n      0x20\n        /* \"#utility.yul\":4505:4514   */\n      dup3\n        /* \"#utility.yul\":4496:4503   */\n      dup5\n        /* \"#utility.yul\":4492:4515   */\n      sub\n        /* \"#utility.yul\":4488:4520   */\n      slt\n        /* \"#utility.yul\":4485:4537   */\n      iszero\n      tag_362\n      jumpi\n        /* \"#utility.yul\":4533:4534   */\n      0x00\n        /* \"#utility.yul\":4530:4531   */\n      dup1\n        /* \"#utility.yul\":4523:4535   */\n      revert\n        /* \"#utility.yul\":4485:4537   */\n    tag_362:\n      pop\n        /* \"#utility.yul\":4556:4579   */\n      calldataload\n      swap2\n        /* \"#utility.yul\":4405:4585   */\n      swap1\n      pop\n      jump\t// out\n        /* \"#utility.yul\":4590:4970   */\n    tag_107:\n        /* \"#utility.yul\":4669:4670   */\n      0x01\n        /* \"#utility.yul\":4665:4677   */\n      dup2\n      dup2\n      shr\n      swap1\n        /* \"#utility.yul\":4712:4724   */\n      dup3\n      and\n      dup1\n        /* \"#utility.yul\":4733:4794   */\n      tag_364\n      jumpi\n        /* \"#utility.yul\":4787:4791   */\n      0x7f\n        /* \"#utility.yul\":4779:4785   */\n      dup3\n        /* \"#utility.yul\":4775:4792   */\n      and\n        /* \"#utility.yul\":4765:4792   */\n      swap2\n      pop\n        /* \"#utility.yul\":4733:4794   */\n    tag_364:\n        /* \"#utility.yul\":4840:4842   */\n      0x20\n        /* \"#utility.yul\":4832:4838   */\n      dup3\n        /* \"#utility.yul\":4829:4843   */\n      lt\n        /* \"#utility.yul\":4809:4827   */\n      dup2\n        /* \"#utility.yul\":4806:4844   */\n      eq\n        /* \"#utility.yul\":4803:4964   */\n      iszero\n      tag_365\n      jumpi\n        /* \"#utility.yul\":4886:4896   */\n      0x4e487b71\n        /* \"#utility.yul\":4881:4884   */\n      0xe0\n        /* \"#utility.yul\":4877:4897   */\n      shl\n        /* \"#utility.yul\":4874:4875   */\n      0x00\n        /* \"#utility.yul\":4867:4898   */\n      mstore\n        /* \"#utility.yul\":4921:4925   */\n      0x22\n        /* \"#utility.yul\":4918:4919   */\n      0x04\n        /* \"#utility.yul\":4911:4926   */\n      mstore\n        /* \"#utility.yul\":4949:4953   */\n      0x24\n        /* \"#utility.yul\":4946:4947   */\n      0x00\n        /* \"#utility.yul\":4939:4954   */\n      revert\n        /* \"#utility.yul\":4803:4964   */\n    tag_365:\n      pop\n        /* \"#utility.yul\":4590:4970   */\n      swap2\n      swap1\n      pop\n      jump\t// out\n        /* \"#utility.yul\":5685:5812   */\n    tag_317:\n        /* \"#utility.yul\":5746:5756   */\n      0x4e487b71\n        /* \"#utility.yul\":5741:5744   */\n      0xe0\n        /* \"#utility.yul\":5737:5757   */\n      shl\n        /* \"#utility.yul\":5734:5735   */\n      0x00\n        /* \"#utility.yul\":5727:5758   */\n      mstore\n        /* \"#utility.yul\":5777:5781   */\n      0x11\n        /* \"#utility.yul\":5774:5775   */\n      0x04\n        /* \"#utility.yul\":5767:5782   */\n      mstore\n        /* \"#utility.yul\":5801:5805   */\n      0x24\n        /* \"#utility.yul\":5798:5799   */\n      0x00\n        /* \"#utility.yul\":5791:5806   */\n      revert\n        /* \"#utility.yul\":5817:6034   */\n    tag_129:\n        /* \"#utility.yul\":5857:5858   */\n      0x00\n        /* \"#utility.yul\":5883:5884   */\n      dup3\n        /* \"#utility.yul\":5873:6005   */\n      tag_370\n      jumpi\n        /* \"#utility.yul\":5927:5937   */\n      0x4e487b71\n        /* \"#utility.yul\":5922:5925   */\n      0xe0\n        /* \"#utility.yul\":5918:5938   */\n      shl\n        /* \"#utility.yul\":5915:5916   */\n      0x00\n        /* \"#utility.yul\":5908:5939   */\n      mstore\n        /* \"#utility.yul\":5962:5966   */\n      0x12\n        /* \"#utility.yul\":5959:5960   */\n      0x04\n        /* \"#utility.yul\":5952:5967   */\n      mstore\n        /* \"#utility.yul\":5990:5994   */\n      0x24\n        /* \"#utility.yul\":5987:5988   */\n      0x00\n        /* \"#utility.yul\":5980:5995   */\n      revert\n        /* \"#utility.yul\":5873:6005   */\n    tag_370:\n      pop\n        /* \"#utility.yul\":6019:6028   */\n      div\n      swap1\n        /* \"#utility.yul\":5817:6034   */\n      jump\t// out\n        /* \"#utility.yul\":6039:6207   */\n    tag_131:\n        /* \"#utility.yul\":6079:6086   */\n      0x00\n        /* \"#utility.yul\":6145:6146   */\n      dup2\n        /* \"#utility.yul\":6141:6142   */\n      0x00\n        /* \"#utility.yul\":6137:6143   */\n      not\n        /* \"#utility.yul\":6133:6147   */\n      div\n        /* \"#utility.yul\":6130:6131   */\n      dup4\n        /* \"#utility.yul\":6127:6148   */\n      gt\n        /* \"#utility.yul\":6122:6123   */\n      dup3\n        /* \"#utility.yul\":6115:6124   */\n      iszero\n        /* \"#utility.yul\":6108:6125   */\n      iszero\n        /* \"#utility.yul\":6104:6149   */\n      and\n        /* \"#utility.yul\":6101:6172   */\n      iszero\n      tag_373\n      jumpi\n        /* \"#utility.yul\":6152:6170   */\n      tag_373\n      tag_317\n      jump\t// in\n    tag_373:\n      pop\n        /* \"#utility.yul\":6192:6201   */\n      mul\n      swap1\n        /* \"#utility.yul\":6039:6207   */\n      jump\t// out\n        /* \"#utility.yul\":6212:6340   */\n    tag_133:\n        /* \"#utility.yul\":6252:6255   */\n      0x00\n        /* \"#utility.yul\":6283:6284   */\n      dup3\n        /* \"#utility.yul\":6279:6285   */\n      not\n        /* \"#utility.yul\":6276:6277   */\n      dup3\n        /* \"#utility.yul\":6273:6286   */\n      gt\n        /* \"#utility.yul\":6270:6309   */\n      iszero\n      tag_376\n      jumpi\n        /* \"#utility.yul\":6289:6307   */\n      tag_376\n      tag_317\n      jump\t// in\n    tag_376:\n      pop\n        /* \"#utility.yul\":6325:6334   */\n      add\n      swap1\n        /* \"#utility.yul\":6212:6340   */\n      jump\t// out\n        /* \"#utility.yul\":6345:6767   */\n    tag_318:\n        /* \"#utility.yul\":6434:6435   */\n      0x01\n        /* \"#utility.yul\":6477:6482   */\n      dup2\n        /* \"#utility.yul\":6434:6435   */\n      dup2\n        /* \"#utility.yul\":6491:6761   */\n    tag_378:\n        /* \"#utility.yul\":6512:6519   */\n      dup1\n        /* \"#utility.yul\":6502:6510   */\n      dup6\n        /* \"#utility.yul\":6499:6520   */\n      gt\n        /* \"#utility.yul\":6491:6761   */\n      iszero\n      tag_380\n      jumpi\n        /* \"#utility.yul\":6571:6575   */\n      dup2\n        /* \"#utility.yul\":6567:6568   */\n      0x00\n        /* \"#utility.yul\":6563:6569   */\n      not\n        /* \"#utility.yul\":6559:6576   */\n      div\n        /* \"#utility.yul\":6553:6557   */\n      dup3\n        /* \"#utility.yul\":6550:6577   */\n      gt\n        /* \"#utility.yul\":6547:6600   */\n      iszero\n      tag_382\n      jumpi\n        /* \"#utility.yul\":6580:6598   */\n      tag_382\n      tag_317\n      jump\t// in\n    tag_382:\n        /* \"#utility.yul\":6630:6637   */\n      dup1\n        /* \"#utility.yul\":6620:6628   */\n      dup6\n        /* \"#utility.yul\":6616:6638   */\n      and\n        /* \"#utility.yul\":6613:6668   */\n      iszero\n      tag_383\n      jumpi\n        /* \"#utility.yul\":6650:6666   */\n      swap2\n      dup2\n      mul\n      swap2\n        /* \"#utility.yul\":6613:6668   */\n    tag_383:\n        /* \"#utility.yul\":6729:6751   */\n      swap4\n      dup5\n      shr\n      swap4\n        /* \"#utility.yul\":6689:6704   */\n      swap1\n      dup1\n      mul\n      swap1\n        /* \"#utility.yul\":6491:6761   */\n      jump(tag_378)\n    tag_380:\n        /* \"#utility.yul\":6495:6498   */\n      pop\n        /* \"#utility.yul\":6345:6767   */\n      swap3\n      pop\n      swap3\n      swap1\n      pop\n      jump\t// out\n        /* \"#utility.yul\":6772:7578   */\n    tag_319:\n        /* \"#utility.yul\":6821:6826   */\n      0x00\n        /* \"#utility.yul\":6851:6859   */\n      dup3\n        /* \"#utility.yul\":6841:6921   */\n      tag_385\n      jumpi\n      pop\n        /* \"#utility.yul\":6892:6893   */\n      0x01\n        /* \"#utility.yul\":6906:6911   */\n      jump(tag_113)\n        /* \"#utility.yul\":6841:6921   */\n    tag_385:\n        /* \"#utility.yul\":6940:6944   */\n      dup2\n        /* \"#utility.yul\":6930:7006   */\n      tag_386\n      jumpi\n      pop\n        /* \"#utility.yul\":6977:6978   */\n      0x00\n        /* \"#utility.yul\":6991:6996   */\n      jump(tag_113)\n        /* \"#utility.yul\":6930:7006   */\n    tag_386:\n        /* \"#utility.yul\":7022:7026   */\n      dup2\n        /* \"#utility.yul\":7040:7041   */\n      0x01\n        /* \"#utility.yul\":7035:7094   */\n      dup2\n      eq\n      tag_388\n      jumpi\n        /* \"#utility.yul\":7108:7109   */\n      0x02\n        /* \"#utility.yul\":7103:7233   */\n      dup2\n      eq\n      tag_389\n      jumpi\n        /* \"#utility.yul\":7015:7233   */\n      jump(tag_387)\n        /* \"#utility.yul\":7035:7094   */\n    tag_388:\n        /* \"#utility.yul\":7065:7066   */\n      0x01\n        /* \"#utility.yul\":7056:7066   */\n      swap2\n      pop\n        /* \"#utility.yul\":7079:7084   */\n      pop\n      jump(tag_113)\n        /* \"#utility.yul\":7103:7233   */\n    tag_389:\n        /* \"#utility.yul\":7140:7143   */\n      0xff\n        /* \"#utility.yul\":7130:7138   */\n      dup5\n        /* \"#utility.yul\":7127:7144   */\n      gt\n        /* \"#utility.yul\":7124:7167   */\n      iszero\n      tag_391\n      jumpi\n        /* \"#utility.yul\":7147:7165   */\n      tag_391\n      tag_317\n      jump\t// in\n    tag_391:\n      pop\n      pop\n        /* \"#utility.yul\":7203:7204   */\n      0x01\n        /* \"#utility.yul\":7189:7205   */\n      dup3\n      shl\n        /* \"#utility.yul\":7218:7223   */\n      jump(tag_113)\n        /* \"#utility.yul\":7015:7233   */\n    tag_387:\n      pop\n        /* \"#utility.yul\":7317:7319   */\n      0x20\n        /* \"#utility.yul\":7307:7315   */\n      dup4\n        /* \"#utility.yul\":7304:7320   */\n      lt\n        /* \"#utility.yul\":7298:7301   */\n      0x0133\n        /* \"#utility.yul\":7292:7296   */\n      dup4\n        /* \"#utility.yul\":7289:7302   */\n      lt\n        /* \"#utility.yul\":7285:7321   */\n      and\n        /* \"#utility.yul\":7279:7281   */\n      0x4e\n        /* \"#utility.yul\":7269:7277   */\n      dup5\n        /* \"#utility.yul\":7266:7282   */\n      lt\n        /* \"#utility.yul\":7261:7263   */\n      0x0b\n        /* \"#utility.yul\":7255:7259   */\n      dup5\n        /* \"#utility.yul\":7252:7264   */\n      lt\n        /* \"#utility.yul\":7248:7283   */\n      and\n        /* \"#utility.yul\":7245:7322   */\n      or\n        /* \"#utility.yul\":7242:7401   */\n      iszero\n      tag_392\n      jumpi\n      pop\n        /* \"#utility.yul\":7354:7373   */\n      dup2\n      dup2\n      exp\n        /* \"#utility.yul\":7386:7391   */\n      jump(tag_113)\n        /* \"#utility.yul\":7242:7401   */\n    tag_392:\n        /* \"#utility.yul\":7433:7467   */\n      tag_393\n        /* \"#utility.yul\":7458:7466   */\n      dup4\n        /* \"#utility.yul\":7452:7456   */\n      dup4\n        /* \"#utility.yul\":7433:7467   */\n      tag_318\n      jump\t// in\n    tag_393:\n        /* \"#utility.yul\":7503:7509   */\n      dup1\n        /* \"#utility.yul\":7499:7500   */\n      0x00\n        /* \"#utility.yul\":7495:7501   */\n      not\n        /* \"#utility.yul\":7491:7510   */\n      div\n        /* \"#utility.yul\":7482:7489   */\n      dup3\n        /* \"#utility.yul\":7479:7511   */\n      gt\n        /* \"#utility.yul\":7476:7534   */\n      iszero\n      tag_395\n      jumpi\n        /* \"#utility.yul\":7514:7532   */\n      tag_395\n      tag_317\n      jump\t// in\n    tag_395:\n        /* \"#utility.yul\":7552:7572   */\n      mul\n      swap4\n        /* \"#utility.yul\":6772:7578   */\n      swap3\n      pop\n      pop\n      pop\n      jump\t// out\n        /* \"#utility.yul\":7583:7714   */\n    tag_135:\n        /* \"#utility.yul\":7643:7648   */\n      0x00\n        /* \"#utility.yul\":7672:7708   */\n      tag_343\n        /* \"#utility.yul\":7699:7707   */\n      dup4\n        /* \"#utility.yul\":7693:7697   */\n      dup4\n        /* \"#utility.yul\":7672:7708   */\n      tag_319\n      jump\t// in\n        /* \"#utility.yul\":7719:7844   */\n    tag_138:\n        /* \"#utility.yul\":7759:7763   */\n      0x00\n        /* \"#utility.yul\":7787:7788   */\n      dup3\n        /* \"#utility.yul\":7784:7785   */\n      dup3\n        /* \"#utility.yul\":7781:7789   */\n      lt\n        /* \"#utility.yul\":7778:7812   */\n      iszero\n      tag_400\n      jumpi\n        /* \"#utility.yul\":7792:7810   */\n      tag_400\n      tag_317\n      jump\t// in\n    tag_400:\n      pop\n        /* \"#utility.yul\":7829:7838   */\n      sub\n      swap1\n        /* \"#utility.yul\":7719:7844   */\n      jump\t// out\n        /* \"#utility.yul\":7849:7984   */\n    tag_162:\n        /* \"#utility.yul\":7888:7891   */\n      0x00\n      not(0x00)\n        /* \"#utility.yul\":7909:7926   */\n      dup3\n      eq\n        /* \"#utility.yul\":7906:7949   */\n      iszero\n      tag_403\n      jumpi\n        /* \"#utility.yul\":7929:7947   */\n      tag_403\n      tag_317\n      jump\t// in\n    tag_403:\n      pop\n        /* \"#utility.yul\":7976:7977   */\n      0x01\n        /* \"#utility.yul\":7965:7978   */\n      add\n      swap1\n        /* \"#utility.yul\":7849:7984   */\n      jump\t// out\n        /* \"#utility.yul\":8747:8874   */\n    tag_216:\n        /* \"#utility.yul\":8808:8818   */\n      0x4e487b71\n        /* \"#utility.yul\":8803:8806   */\n      0xe0\n        /* \"#utility.yul\":8799:8819   */\n      shl\n        /* \"#utility.yul\":8796:8797   */\n      0x00\n        /* \"#utility.yul\":8789:8820   */\n      mstore\n        /* \"#utility.yul\":8839:8843   */\n      0x32\n        /* \"#utility.yul\":8836:8837   */\n      0x04\n        /* \"#utility.yul\":8829:8844   */\n      mstore\n        /* \"#utility.yul\":8863:8867   */\n      0x24\n        /* \"#utility.yul\":8860:8861   */\n      0x00\n        /* \"#utility.yul\":8853:8868   */\n      revert\n\n    auxdata: 0xa2646970667358221220a48bf51f394cc4e96b77d32e771e9066b4f33d07a29096b7bb72c6af283a59f664736f6c63430008090033\n}\n",
				"bytecode": {
					"linkReferences": {},
					"object": "608060405269ad78ebc5ac6200000000600655678ac7230489e8000060075560016008553480156200003057600080fd5b50604051806040016040528060088152602001672a34b5aa37b5b2b760c11b8152506040518060400160405280600381526020016254494b60e81b8152508160039080519060200190620000869291906200020c565b5080516200009c9060049060208401906200020c565b505050620000b9620000b3620000f060201b60201c565b620000f4565b6000620000db69ad78ebc5ac620000000069d3c21bcecceda1000000620002c8565b9050620000e9338262000146565b506200033a565b3390565b600580546001600160a01b038381166001600160a01b0319831681179093556040519116919082907f8be0079c531659141344cd1fd0a4f28419497f9722a3daafe3b4186f6b6457e090600090a35050565b6001600160a01b038216620001a15760405162461bcd60e51b815260206004820152601f60248201527f45524332303a206d696e7420746f20746865207a65726f206164647265737300604482015260640160405180910390fd5b8060026000828254620001b59190620002e2565b90915550506001600160a01b038216600081815260208181526040808320805486019055518481527fddf252ad1be2c89b69c2b068fc378daa952ba7f163c4a11628f55a4df523b3ef910160405180910390a35050565b8280546200021a90620002fd565b90600052602060002090601f0160209004810192826200023e576000855562000289565b82601f106200025957805160ff191683800117855562000289565b8280016001018555821562000289579182015b82811115620002895782518255916020019190600101906200026c565b50620002979291506200029b565b5090565b5b808211156200029757600081556001016200029c565b634e487b7160e01b600052601160045260246000fd5b600082821015620002dd57620002dd620002b2565b500390565b60008219821115620002f857620002f8620002b2565b500190565b600181811c908216806200031257607f821691505b602082108114156200033457634e487b7160e01b600052602260045260246000fd5b50919050565b611471806200034a6000396000f3fe608060405234801561001057600080fd5b506004361061012c5760003560e01c8063715018a6116100ad578063d559f05b11610071578063d559f05b14610258578063da0239a61461026b578063dd62ed3e14610273578063e5b9559514610286578063f2fde38b146102a957600080fd5b8063715018a6146102075780638da5cb5b1461020f57806395d89b411461022a578063a457c2d714610232578063a9059cbb1461024557600080fd5b806323b872dd116100f457806323b872dd146101a1578063313ce567146101b4578063331d17c1146101c357806339509351146101cb57806370a08231146101de57600080fd5b806306fdde031461013157806307621eca1461014f578063095ea7b314610161578063156e29f61461018457806318160ddd14610199575b600080fd5b6101396102bc565b6040516101469190610ffb565b60405180910390f35b6007545b604051908152602001610146565b61017461016f36600461106c565b61034e565b6040519015158152602001610146565b610197610192366004611096565b610368565b005b600254610153565b6101746101af3660046110c9565b6105da565b60405160188152602001610146565b6101536105fe565b6101746101d936600461106c565b610614565b6101536101ec366004611105565b6001600160a01b031660009081526020819052604090205490565b610197610636565b6005546040516001600160a01b039091168152602001610146565b61013961064a565b61017461024036600461106c565b610659565b61017461025336600461106c565b6106d4565b610197610266366004611173565b6106e2565b600654610153565b61015361028136600461120d565b610aaa565b610174610294366004611240565b60009081526009602052604090205460ff1690565b6101976102b7366004611105565b610ad5565b6060600380546102cb90611259565b80601f01602080910402602001604051908101604052809291908181526020018280546102f790611259565b80156103445780601f1061031957610100808354040283529160200191610344565b820191906000526020600020905b81548152906001019060200180831161032757829003601f168201915b5050505050905090565b60003361035c818585610b4e565b60019150505b92915050565b610370610c72565b6000600654116103c05760405162461bcd60e51b8152602060048201526016602482015275139bc81b5bdc99481d1bdad95b9cc81d1bc81b5a5b9d60521b60448201526064015b60405180910390fd5b60008181526009602052604090205460ff161561041f5760405162461bcd60e51b815260206004820152601e60248201527f557365722068617320616c7265616479206d696e74656420746f6b656e73000060448201526064016103b7565b600754600090806104326103e8866112aa565b61043c91906112cc565b61044691906112eb565b90506000600854600261045991906113e7565b61046d9069ad78ebc5ac62000000006112aa565b905060008160065461047f91906113f3565b905082811115801561049357506001600754115b15610541578092506000600754846103e86104ae91906112cc565b6104b891906112aa565b6104c290876113f3565b9050600060026007546104d591906112aa565b60026007546104e491906112aa565b6104f06103e8856112aa565b6104fa91906112cc565b61050491906112eb565b90506105116002856112aa565b8110610532576007546105256002866112aa565b61052f91906113f3565b90505b61053c81866112eb565b945050505b8260065410156105515760065492505b61055b8684610ccc565b826006600082825461056d91906113f3565b90915550506000848152600960205260409020805460ff19166001179055600654821080159061059f57506001600754115b156105d257600a600760008282546105b791906112aa565b9091555050600880549060006105cc8361140a565b91905055505b505050505050565b6000336105e8858285610d8b565b6105f3858585610e05565b506001949350505050565b6000600160085461060f91906113f3565b905090565b60003361035c8185856106278383610aaa565b61063191906112eb565b610b4e565b61063e610c72565b6106486000610fa9565b565b6060600480546102cb90611259565b600033816106678286610aaa565b9050838110156106c75760405162461bcd60e51b815260206004820152602560248201527f45524332303a2064656372656173656420616c6c6f77616e63652062656c6f77604482015264207a65726f60d81b60648201526084016103b7565b6105f38286868403610b4e565b60003361035c818585610e05565b6106ea610c72565b8483146107335760405162461bcd60e51b81526020600482015260176024820152764d69736d61746368656420696e7075742061727261797360481b60448201526064016103b7565b84811461077c5760405162461bcd60e51b81526020600482015260176024820152764d69736d61746368656420696e7075742061727261797360481b60448201526064016103b7565b60005b85811015610aa1576000600654116107d25760405162461bcd60e51b8152602060048201526016602482015275139bc81b5bdc99481d1bdad95b9cc81d1bc81b5a5b9d60521b60448201526064016103b7565b600960008484848181106107e8576107e8611425565b602090810292909201358352508101919091526040016000205460ff16156108525760405162461bcd60e51b815260206004820152601e60248201527f557365722068617320616c7265616479206d696e74656420746f6b656e73000060448201526064016103b7565b60006007546007546103e888888681811061086f5761086f611425565b9050602002013561088091906112aa565b61088a91906112cc565b61089491906112eb565b9050600060085460026108a791906113e7565b6108bb9069ad78ebc5ac62000000006112aa565b90506000816006546108cd91906113f3565b90508281111580156108e157506001600754115b156109a8578092506000600754846103e86108fc91906112cc565b61090691906112aa565b89898781811061091857610918611425565b9050602002013561092991906113f3565b90506000600260075461093c91906112aa565b600260075461094b91906112aa565b6109576103e8856112aa565b61096191906112cc565b61096b91906112eb565b90506109786002856112aa565b81106109995760075461098c6002866112aa565b61099691906113f3565b90505b6109a381866112eb565b945050505b8260065410156109b85760065492505b6109e88a8a868181106109cd576109cd611425565b90506020020160208101906109e29190611105565b84610ccc565b82600660008282546109fa91906113f3565b909155506001905060096000888888818110610a1857610a18611425565b90506020020135815260200190815260200160002060006101000a81548160ff0219169083151502179055508160065411158015610a5857506001600754115b15610a8b57600a60076000828254610a7091906112aa565b909155505060088054906000610a858361140a565b91905055505b5050508080610a999061140a565b91505061077f565b50505050505050565b6001600160a01b03918216600090815260016020908152604080832093909416825291909152205490565b610add610c72565b6001600160a01b038116610b425760405162461bcd60e51b815260206004820152602660248201527f4f776e61626c653a206e6577206f776e657220697320746865207a65726f206160448201526564647265737360d01b60648201526084016103b7565b610b4b81610fa9565b50565b6001600160a01b038316610bb05760405162461bcd60e51b8152602060048201526024808201527f45524332303a20617070726f76652066726f6d20746865207a65726f206164646044820152637265737360e01b60648201526084016103b7565b6001600160a01b038216610c115760405162461bcd60e51b815260206004820152602260248201527f45524332303a20617070726f766520746f20746865207a65726f206164647265604482015261737360f01b60648201526084016103b7565b6001600160a01b0383811660008181526001602090815260408083209487168084529482529182902085905590518481527f8c5be1e5ebec7d5bd14f71427d1e84f3dd0314c0f7b2291e5b200ac8c7c3b925910160405180910390a3505050565b6005546001600160a01b031633146106485760405162461bcd60e51b815260206004820181905260248201527f4f776e61626c653a2063616c6c6572206973206e6f7420746865206f776e657260448201526064016103b7565b6001600160a01b038216610d225760405162461bcd60e51b815260206004820152601f60248201527f45524332303a206d696e7420746f20746865207a65726f20616464726573730060448201526064016103b7565b8060026000828254610d3491906112eb565b90915550506001600160a01b038216600081815260208181526040808320805486019055518481527fddf252ad1be2c89b69c2b068fc378daa952ba7f163c4a11628f55a4df523b3ef910160405180910390a35050565b6000610d978484610aaa565b90506000198114610dff5781811015610df25760405162461bcd60e51b815260206004820152601d60248201527f45524332303a20696e73756666696369656e7420616c6c6f77616e636500000060448201526064016103b7565b610dff8484848403610b4e565b50505050565b6001600160a01b038316610e695760405162461bcd60e51b815260206004820152602560248201527f45524332303a207472616e736665722066726f6d20746865207a65726f206164604482015264647265737360d81b60648201526084016103b7565b6001600160a01b038216610ecb5760405162461bcd60e51b815260206004820152602360248201527f45524332303a207472616e7366657220746f20746865207a65726f206164647260448201526265737360e81b60648201526084016103b7565b6001600160a01b03831660009081526020819052604090205481811015610f435760405162461bcd60e51b815260206004820152602660248201527f45524332303a207472616e7366657220616d6f756e7420657863656564732062604482015265616c616e636560d01b60648201526084016103b7565b6001600160a01b03848116600081815260208181526040808320878703905593871680835291849020805487019055925185815290927fddf252ad1be2c89b69c2b068fc378daa952ba7f163c4a11628f55a4df523b3ef910160405180910390a3610dff565b600580546001600160a01b038381166001600160a01b0319831681179093556040519116919082907f8be0079c531659141344cd1fd0a4f28419497f9722a3daafe3b4186f6b6457e090600090a35050565b600060208083528351808285015260005b818110156110285785810183015185820160400152820161100c565b8181111561103a576000604083870101525b50601f01601f1916929092016040019392505050565b80356001600160a01b038116811461106757600080fd5b919050565b6000806040838503121561107f57600080fd5b61108883611050565b946020939093013593505050565b6000806000606084860312156110ab57600080fd5b6110b484611050565b95602085013595506040909401359392505050565b6000806000606084860312156110de57600080fd5b6110e784611050565b92506110f560208501611050565b9150604084013590509250925092565b60006020828403121561111757600080fd5b61112082611050565b9392505050565b60008083601f84011261113957600080fd5b50813567ffffffffffffffff81111561115157600080fd5b6020830191508360208260051b850101111561116c57600080fd5b9250929050565b6000806000806000806060878903121561118c57600080fd5b863567ffffffffffffffff808211156111a457600080fd5b6111b08a838b01611127565b909850965060208901359150808211156111c957600080fd5b6111d58a838b01611127565b909650945060408901359150808211156111ee57600080fd5b506111fb89828a01611127565b979a9699509497509295939492505050565b6000806040838503121561122057600080fd5b61122983611050565b915061123760208401611050565b90509250929050565b60006020828403121561125257600080fd5b5035919050565b600181811c9082168061126d57607f821691505b6020821081141561128e57634e487b7160e01b600052602260045260246000fd5b50919050565b634e487b7160e01b600052601160045260246000fd5b6000826112c757634e487b7160e01b600052601260045260246000fd5b500490565b60008160001904831182151516156112e6576112e6611294565b500290565b600082198211156112fe576112fe611294565b500190565b600181815b8085111561133e57816000190482111561132457611324611294565b8085161561133157918102915b93841c9390800290611308565b509250929050565b60008261135557506001610362565b8161136257506000610362565b816001811461137857600281146113825761139e565b6001915050610362565b60ff84111561139357611393611294565b50506001821b610362565b5060208310610133831016604e8410600b84101617156113c1575081810a610362565b6113cb8383611303565b80600019048211156113df576113df611294565b029392505050565b60006111208383611346565b60008282101561140557611405611294565b500390565b600060001982141561141e5761141e611294565b5060010190565b634e487b7160e01b600052603260045260246000fdfea2646970667358221220a48bf51f394cc4e96b77d32e771e9066b4f33d07a29096b7bb72c6af283a59f664736f6c63430008090033",
					"opcodes": "PUSH1 0x80 PUSH1 0x40 MSTORE PUSH10 0xAD78EBC5AC6200000000 PUSH1 0x6 SSTORE PUSH8 0x8AC7230489E80000 PUSH1 0x7 SSTORE PUSH1 0x1 PUSH1 0x8 SSTORE CALLVALUE DUP1 ISZERO PUSH3 0x30 JUMPI PUSH1 0x0 DUP1 REVERT JUMPDEST POP PUSH1 0x40 MLOAD DUP1 PUSH1 0x40 ADD PUSH1 0x40 MSTORE DUP1 PUSH1 0x8 DUP2 MSTORE PUSH1 0x20 ADD PUSH8 0x2A34B5AA37B5B2B7 PUSH1 0xC1 SHL DUP2 MSTORE POP PUSH1 0x40 MLOAD DUP1 PUSH1 0x40 ADD PUSH1 0x40 MSTORE DUP1 PUSH1 0x3 DUP2 MSTORE PUSH1 0x20 ADD PUSH3 0x54494B PUSH1 0xE8 SHL DUP2 MSTORE POP DUP2 PUSH1 0x3 SWAP1 DUP1 MLOAD SWAP1 PUSH1 0x20 ADD SWAP1 PUSH3 0x86 SWAP3 SWAP2 SWAP1 PUSH3 0x20C JUMP JUMPDEST POP DUP1 MLOAD PUSH3 0x9C SWAP1 PUSH1 0x4 SWAP1 PUSH1 0x20 DUP5 ADD SWAP1 PUSH3 0x20C JUMP JUMPDEST POP POP POP PUSH3 0xB9 PUSH3 0xB3 PUSH3 0xF0 PUSH1 0x20 SHL PUSH1 0x20 SHR JUMP JUMPDEST PUSH3 0xF4 JUMP JUMPDEST PUSH1 0x0 PUSH3 0xDB PUSH10 0xAD78EBC5AC6200000000 PUSH10 0xD3C21BCECCEDA1000000 PUSH3 0x2C8 JUMP JUMPDEST SWAP1 POP PUSH3 0xE9 CALLER DUP3 PUSH3 0x146 JUMP JUMPDEST POP PUSH3 0x33A JUMP JUMPDEST CALLER SWAP1 JUMP JUMPDEST PUSH1 0x5 DUP1 SLOAD PUSH1 0x1 PUSH1 0x1 PUSH1 0xA0 SHL SUB DUP4 DUP2 AND PUSH1 0x1 PUSH1 0x1 PUSH1 0xA0 SHL SUB NOT DUP4 AND DUP2 OR SWAP1 SWAP4 SSTORE PUSH1 0x40 MLOAD SWAP2 AND SWAP2 SWAP1 DUP3 SWAP1 PUSH32 0x8BE0079C531659141344CD1FD0A4F28419497F9722A3DAAFE3B4186F6B6457E0 SWAP1 PUSH1 0x0 SWAP1 LOG3 POP POP JUMP JUMPDEST PUSH1 0x1 PUSH1 0x1 PUSH1 0xA0 SHL SUB DUP3 AND PUSH3 0x1A1 JUMPI PUSH1 0x40 MLOAD PUSH3 0x461BCD PUSH1 0xE5 SHL DUP2 MSTORE PUSH1 0x20 PUSH1 0x4 DUP3 ADD MSTORE PUSH1 0x1F PUSH1 0x24 DUP3 ADD MSTORE PUSH32 0x45524332303A206D696E7420746F20746865207A65726F206164647265737300 PUSH1 0x44 DUP3 ADD MSTORE PUSH1 0x64 ADD PUSH1 0x40 MLOAD DUP1 SWAP2 SUB SWAP1 REVERT JUMPDEST DUP1 PUSH1 0x2 PUSH1 0x0 DUP3 DUP3 SLOAD PUSH3 0x1B5 SWAP2 SWAP1 PUSH3 0x2E2 JUMP JUMPDEST SWAP1 SWAP2 SSTORE POP POP PUSH1 0x1 PUSH1 0x1 PUSH1 0xA0 SHL SUB DUP3 AND PUSH1 0x0 DUP2 DUP2 MSTORE PUSH1 0x20 DUP2 DUP2 MSTORE PUSH1 0x40 DUP1 DUP4 KECCAK256 DUP1 SLOAD DUP7 ADD SWAP1 SSTORE MLOAD DUP5 DUP2 MSTORE PUSH32 0xDDF252AD1BE2C89B69C2B068FC378DAA952BA7F163C4A11628F55A4DF523B3EF SWAP2 ADD PUSH1 0x40 MLOAD DUP1 SWAP2 SUB SWAP1 LOG3 POP POP JUMP JUMPDEST DUP3 DUP1 SLOAD PUSH3 0x21A SWAP1 PUSH3 0x2FD JUMP JUMPDEST SWAP1 PUSH1 0x0 MSTORE PUSH1 0x20 PUSH1 0x0 KECCAK256 SWAP1 PUSH1 0x1F ADD PUSH1 0x20 SWAP1 DIV DUP2 ADD SWAP3 DUP3 PUSH3 0x23E JUMPI PUSH1 0x0 DUP6 SSTORE PUSH3 0x289 JUMP JUMPDEST DUP3 PUSH1 0x1F LT PUSH3 0x259 JUMPI DUP1 MLOAD PUSH1 0xFF NOT AND DUP4 DUP1 ADD OR DUP6 SSTORE PUSH3 0x289 JUMP JUMPDEST DUP3 DUP1 ADD PUSH1 0x1 ADD DUP6 SSTORE DUP3 ISZERO PUSH3 0x289 JUMPI SWAP2 DUP3 ADD JUMPDEST DUP3 DUP2 GT ISZERO PUSH3 0x289 JUMPI DUP3 MLOAD DUP3 SSTORE SWAP2 PUSH1 0x20 ADD SWAP2 SWAP1 PUSH1 0x1 ADD SWAP1 PUSH3 0x26C JUMP JUMPDEST POP PUSH3 0x297 SWAP3 SWAP2 POP PUSH3 0x29B JUMP JUMPDEST POP SWAP1 JUMP JUMPDEST JUMPDEST DUP1 DUP3 GT ISZERO PUSH3 0x297 JUMPI PUSH1 0x0 DUP2 SSTORE PUSH1 0x1 ADD PUSH3 0x29C JUMP JUMPDEST PUSH4 0x4E487B71 PUSH1 0xE0 SHL PUSH1 0x0 MSTORE PUSH1 0x11 PUSH1 0x4 MSTORE PUSH1 0x24 PUSH1 0x0 REVERT JUMPDEST PUSH1 0x0 DUP3 DUP3 LT ISZERO PUSH3 0x2DD JUMPI PUSH3 0x2DD PUSH3 0x2B2 JUMP JUMPDEST POP SUB SWAP1 JUMP JUMPDEST PUSH1 0x0 DUP3 NOT DUP3 GT ISZERO PUSH3 0x2F8 JUMPI PUSH3 0x2F8 PUSH3 0x2B2 JUMP JUMPDEST POP ADD SWAP1 JUMP JUMPDEST PUSH1 0x1 DUP2 DUP2 SHR SWAP1 DUP3 AND DUP1 PUSH3 0x312 JUMPI PUSH1 0x7F DUP3 AND SWAP2 POP JUMPDEST PUSH1 0x20 DUP3 LT DUP2 EQ ISZERO PUSH3 0x334 JUMPI PUSH4 0x4E487B71 PUSH1 0xE0 SHL PUSH1 0x0 MSTORE PUSH1 0x22 PUSH1 0x4 MSTORE PUSH1 0x24 PUSH1 0x0 REVERT JUMPDEST POP SWAP2 SWAP1 POP JUMP JUMPDEST PUSH2 0x1471 DUP1 PUSH3 0x34A PUSH1 0x0 CODECOPY PUSH1 0x0 RETURN INVALID PUSH1 0x80 PUSH1 0x40 MSTORE CALLVALUE DUP1 ISZERO PUSH2 0x10 JUMPI PUSH1 0x0 DUP1 REVERT JUMPDEST POP PUSH1 0x4 CALLDATASIZE LT PUSH2 0x12C JUMPI PUSH1 0x0 CALLDATALOAD PUSH1 0xE0 SHR DUP1 PUSH4 0x715018A6 GT PUSH2 0xAD JUMPI DUP1 PUSH4 0xD559F05B GT PUSH2 0x71 JUMPI DUP1 PUSH4 0xD559F05B EQ PUSH2 0x258 JUMPI DUP1 PUSH4 0xDA0239A6 EQ PUSH2 0x26B JUMPI DUP1 PUSH4 0xDD62ED3E EQ PUSH2 0x273 JUMPI DUP1 PUSH4 0xE5B95595 EQ PUSH2 0x286 JUMPI DUP1 PUSH4 0xF2FDE38B EQ PUSH2 0x2A9 JUMPI PUSH1 0x0 DUP1 REVERT JUMPDEST DUP1 PUSH4 0x715018A6 EQ PUSH2 0x207 JUMPI DUP1 PUSH4 0x8DA5CB5B EQ PUSH2 0x20F JUMPI DUP1 PUSH4 0x95D89B41 EQ PUSH2 0x22A JUMPI DUP1 PUSH4 0xA457C2D7 EQ PUSH2 0x232 JUMPI DUP1 PUSH4 0xA9059CBB EQ PUSH2 0x245 JUMPI PUSH1 0x0 DUP1 REVERT JUMPDEST DUP1 PUSH4 0x23B872DD GT PUSH2 0xF4 JUMPI DUP1 PUSH4 0x23B872DD EQ PUSH2 0x1A1 JUMPI DUP1 PUSH4 0x313CE567 EQ PUSH2 0x1B4 JUMPI DUP1 PUSH4 0x331D17C1 EQ PUSH2 0x1C3 JUMPI DUP1 PUSH4 0x39509351 EQ PUSH2 0x1CB JUMPI DUP1 PUSH4 0x70A08231 EQ PUSH2 0x1DE JUMPI PUSH1 0x0 DUP1 REVERT JUMPDEST DUP1 PUSH4 0x6FDDE03 EQ PUSH2 0x131 JUMPI DUP1 PUSH4 0x7621ECA EQ PUSH2 0x14F JUMPI DUP1 PUSH4 0x95EA7B3 EQ PUSH2 0x161 JUMPI DUP1 PUSH4 0x156E29F6 EQ PUSH2 0x184 JUMPI DUP1 PUSH4 0x18160DDD EQ PUSH2 0x199 JUMPI JUMPDEST PUSH1 0x0 DUP1 REVERT JUMPDEST PUSH2 0x139 PUSH2 0x2BC JUMP JUMPDEST PUSH1 0x40 MLOAD PUSH2 0x146 SWAP2 SWAP1 PUSH2 0xFFB JUMP JUMPDEST PUSH1 0x40 MLOAD DUP1 SWAP2 SUB SWAP1 RETURN JUMPDEST PUSH1 0x7 SLOAD JUMPDEST PUSH1 0x40 MLOAD SWAP1 DUP2 MSTORE PUSH1 0x20 ADD PUSH2 0x146 JUMP JUMPDEST PUSH2 0x174 PUSH2 0x16F CALLDATASIZE PUSH1 0x4 PUSH2 0x106C JUMP JUMPDEST PUSH2 0x34E JUMP JUMPDEST PUSH1 0x40 MLOAD SWAP1 ISZERO ISZERO DUP2 MSTORE PUSH1 0x20 ADD PUSH2 0x146 JUMP JUMPDEST PUSH2 0x197 PUSH2 0x192 CALLDATASIZE PUSH1 0x4 PUSH2 0x1096 JUMP JUMPDEST PUSH2 0x368 JUMP JUMPDEST STOP JUMPDEST PUSH1 0x2 SLOAD PUSH2 0x153 JUMP JUMPDEST PUSH2 0x174 PUSH2 0x1AF CALLDATASIZE PUSH1 0x4 PUSH2 0x10C9 JUMP JUMPDEST PUSH2 0x5DA JUMP JUMPDEST PUSH1 0x40 MLOAD PUSH1 0x18 DUP2 MSTORE PUSH1 0x20 ADD PUSH2 0x146 JUMP JUMPDEST PUSH2 0x153 PUSH2 0x5FE JUMP JUMPDEST PUSH2 0x174 PUSH2 0x1D9 CALLDATASIZE PUSH1 0x4 PUSH2 0x106C JUMP JUMPDEST PUSH2 0x614 JUMP JUMPDEST PUSH2 0x153 PUSH2 0x1EC CALLDATASIZE PUSH1 0x4 PUSH2 0x1105 JUMP JUMPDEST PUSH1 0x1 PUSH1 0x1 PUSH1 0xA0 SHL SUB AND PUSH1 0x0 SWAP1 DUP2 MSTORE PUSH1 0x20 DUP2 SWAP1 MSTORE PUSH1 0x40 SWAP1 KECCAK256 SLOAD SWAP1 JUMP JUMPDEST PUSH2 0x197 PUSH2 0x636 JUMP JUMPDEST PUSH1 0x5 SLOAD PUSH1 0x40 MLOAD PUSH1 0x1 PUSH1 0x1 PUSH1 0xA0 SHL SUB SWAP1 SWAP2 AND DUP2 MSTORE PUSH1 0x20 ADD PUSH2 0x146 JUMP JUMPDEST PUSH2 0x139 PUSH2 0x64A JUMP JUMPDEST PUSH2 0x174 PUSH2 0x240 CALLDATASIZE PUSH1 0x4 PUSH2 0x106C JUMP JUMPDEST PUSH2 0x659 JUMP JUMPDEST PUSH2 0x174 PUSH2 0x253 CALLDATASIZE PUSH1 0x4 PUSH2 0x106C JUMP JUMPDEST PUSH2 0x6D4 JUMP JUMPDEST PUSH2 0x197 PUSH2 0x266 CALLDATASIZE PUSH1 0x4 PUSH2 0x1173 JUMP JUMPDEST PUSH2 0x6E2 JUMP JUMPDEST PUSH1 0x6 SLOAD PUSH2 0x153 JUMP JUMPDEST PUSH2 0x153 PUSH2 0x281 CALLDATASIZE PUSH1 0x4 PUSH2 0x120D JUMP JUMPDEST PUSH2 0xAAA JUMP JUMPDEST PUSH2 0x174 PUSH2 0x294 CALLDATASIZE PUSH1 0x4 PUSH2 0x1240 JUMP JUMPDEST PUSH1 0x0 SWAP1 DUP2 MSTORE PUSH1 0x9 PUSH1 0x20 MSTORE PUSH1 0x40 SWAP1 KECCAK256 SLOAD PUSH1 0xFF AND SWAP1 JUMP JUMPDEST PUSH2 0x197 PUSH2 0x2B7 CALLDATASIZE PUSH1 0x4 PUSH2 0x1105 JUMP JUMPDEST PUSH2 0xAD5 JUMP JUMPDEST PUSH1 0x60 PUSH1 0x3 DUP1 SLOAD PUSH2 0x2CB SWAP1 PUSH2 0x1259 JUMP JUMPDEST DUP1 PUSH1 0x1F ADD PUSH1 0x20 DUP1 SWAP2 DIV MUL PUSH1 0x20 ADD PUSH1 0x40 MLOAD SWAP1 DUP2 ADD PUSH1 0x40 MSTORE DUP1 SWAP3 SWAP2 SWAP1 DUP2 DUP2 MSTORE PUSH1 0x20 ADD DUP3 DUP1 SLOAD PUSH2 0x2F7 SWAP1 PUSH2 0x1259 JUMP JUMPDEST DUP1 ISZERO PUSH2 0x344 JUMPI DUP1 PUSH1 0x1F LT PUSH2 0x319 JUMPI PUSH2 0x100 DUP1 DUP4 SLOAD DIV MUL DUP4 MSTORE SWAP2 PUSH1 0x20 ADD SWAP2 PUSH2 0x344 JUMP JUMPDEST DUP3 ADD SWAP2 SWAP1 PUSH1 0x0 MSTORE PUSH1 0x20 PUSH1 0x0 KECCAK256 SWAP1 JUMPDEST DUP2 SLOAD DUP2 MSTORE SWAP1 PUSH1 0x1 ADD SWAP1 PUSH1 0x20 ADD DUP1 DUP4 GT PUSH2 0x327 JUMPI DUP3 SWAP1 SUB PUSH1 0x1F AND DUP3 ADD SWAP2 JUMPDEST POP POP POP POP POP SWAP1 POP SWAP1 JUMP JUMPDEST PUSH1 0x0 CALLER PUSH2 0x35C DUP2 DUP6 DUP6 PUSH2 0xB4E JUMP JUMPDEST PUSH1 0x1 SWAP2 POP POP JUMPDEST SWAP3 SWAP2 POP POP JUMP JUMPDEST PUSH2 0x370 PUSH2 0xC72 JUMP JUMPDEST PUSH1 0x0 PUSH1 0x6 SLOAD GT PUSH2 0x3C0 JUMPI PUSH1 0x40 MLOAD PUSH3 0x461BCD PUSH1 0xE5 SHL DUP2 MSTORE PUSH1 0x20 PUSH1 0x4 DUP3 ADD MSTORE PUSH1 0x16 PUSH1 0x24 DUP3 ADD MSTORE PUSH22 0x139BC81B5BDC99481D1BDAD95B9CC81D1BC81B5A5B9D PUSH1 0x52 SHL PUSH1 0x44 DUP3 ADD MSTORE PUSH1 0x64 ADD JUMPDEST PUSH1 0x40 MLOAD DUP1 SWAP2 SUB SWAP1 REVERT JUMPDEST PUSH1 0x0 DUP2 DUP2 MSTORE PUSH1 0x9 PUSH1 0x20 MSTORE PUSH1 0x40 SWAP1 KECCAK256 SLOAD PUSH1 0xFF AND ISZERO PUSH2 0x41F JUMPI PUSH1 0x40 MLOAD PUSH3 0x461BCD PUSH1 0xE5 SHL DUP2 MSTORE PUSH1 0x20 PUSH1 0x4 DUP3 ADD MSTORE PUSH1 0x1E PUSH1 0x24 DUP3 ADD MSTORE PUSH32 0x557365722068617320616C7265616479206D696E74656420746F6B656E730000 PUSH1 0x44 DUP3 ADD MSTORE PUSH1 0x64 ADD PUSH2 0x3B7 JUMP JUMPDEST PUSH1 0x7 SLOAD PUSH1 0x0 SWAP1 DUP1 PUSH2 0x432 PUSH2 0x3E8 DUP7 PUSH2 0x12AA JUMP JUMPDEST PUSH2 0x43C SWAP2 SWAP1 PUSH2 0x12CC JUMP JUMPDEST PUSH2 0x446 SWAP2 SWAP1 PUSH2 0x12EB JUMP JUMPDEST SWAP1 POP PUSH1 0x0 PUSH1 0x8 SLOAD PUSH1 0x2 PUSH2 0x459 SWAP2 SWAP1 PUSH2 0x13E7 JUMP JUMPDEST PUSH2 0x46D SWAP1 PUSH10 0xAD78EBC5AC6200000000 PUSH2 0x12AA JUMP JUMPDEST SWAP1 POP PUSH1 0x0 DUP2 PUSH1 0x6 SLOAD PUSH2 0x47F SWAP2 SWAP1 PUSH2 0x13F3 JUMP JUMPDEST SWAP1 POP DUP3 DUP2 GT ISZERO DUP1 ISZERO PUSH2 0x493 JUMPI POP PUSH1 0x1 PUSH1 0x7 SLOAD GT JUMPDEST ISZERO PUSH2 0x541 JUMPI DUP1 SWAP3 POP PUSH1 0x0 PUSH1 0x7 SLOAD DUP5 PUSH2 0x3E8 PUSH2 0x4AE SWAP2 SWAP1 PUSH2 0x12CC JUMP JUMPDEST PUSH2 0x4B8 SWAP2 SWAP1 PUSH2 0x12AA JUMP JUMPDEST PUSH2 0x4C2 SWAP1 DUP8 PUSH2 0x13F3 JUMP JUMPDEST SWAP1 POP PUSH1 0x0 PUSH1 0x2 PUSH1 0x7 SLOAD PUSH2 0x4D5 SWAP2 SWAP1 PUSH2 0x12AA JUMP JUMPDEST PUSH1 0x2 PUSH1 0x7 SLOAD PUSH2 0x4E4 SWAP2 SWAP1 PUSH2 0x12AA JUMP JUMPDEST PUSH2 0x4F0 PUSH2 0x3E8 DUP6 PUSH2 0x12AA JUMP JUMPDEST PUSH2 0x4FA SWAP2 SWAP1 PUSH2 0x12CC JUMP JUMPDEST PUSH2 0x504 SWAP2 SWAP1 PUSH2 0x12EB JUMP JUMPDEST SWAP1 POP PUSH2 0x511 PUSH1 0x2 DUP6 PUSH2 0x12AA JUMP JUMPDEST DUP2 LT PUSH2 0x532 JUMPI PUSH1 0x7 SLOAD PUSH2 0x525 PUSH1 0x2 DUP7 PUSH2 0x12AA JUMP JUMPDEST PUSH2 0x52F SWAP2 SWAP1 PUSH2 0x13F3 JUMP JUMPDEST SWAP1 POP JUMPDEST PUSH2 0x53C DUP2 DUP7 PUSH2 0x12EB JUMP JUMPDEST SWAP5 POP POP POP JUMPDEST DUP3 PUSH1 0x6 SLOAD LT ISZERO PUSH2 0x551 JUMPI PUSH1 0x6 SLOAD SWAP3 POP JUMPDEST PUSH2 0x55B DUP7 DUP5 PUSH2 0xCCC JUMP JUMPDEST DUP3 PUSH1 0x6 PUSH1 0x0 DUP3 DUP3 SLOAD PUSH2 0x56D SWAP2 SWAP1 PUSH2 0x13F3 JUMP JUMPDEST SWAP1 SWAP2 SSTORE POP POP PUSH1 0x0 DUP5 DUP2 MSTORE PUSH1 0x9 PUSH1 0x20 MSTORE PUSH1 0x40 SWAP1 KECCAK256 DUP1 SLOAD PUSH1 0xFF NOT AND PUSH1 0x1 OR SWAP1 SSTORE PUSH1 0x6 SLOAD DUP3 LT DUP1 ISZERO SWAP1 PUSH2 0x59F JUMPI POP PUSH1 0x1 PUSH1 0x7 SLOAD GT JUMPDEST ISZERO PUSH2 0x5D2 JUMPI PUSH1 0xA PUSH1 0x7 PUSH1 0x0 DUP3 DUP3 SLOAD PUSH2 0x5B7 SWAP2 SWAP1 PUSH2 0x12AA JUMP JUMPDEST SWAP1 SWAP2 SSTORE POP POP PUSH1 0x8 DUP1 SLOAD SWAP1 PUSH1 0x0 PUSH2 0x5CC DUP4 PUSH2 0x140A JUMP JUMPDEST SWAP2 SWAP1 POP SSTORE POP JUMPDEST POP POP POP POP POP POP JUMP JUMPDEST PUSH1 0x0 CALLER PUSH2 0x5E8 DUP6 DUP3 DUP6 PUSH2 0xD8B JUMP JUMPDEST PUSH2 0x5F3 DUP6 DUP6 DUP6 PUSH2 0xE05 JUMP JUMPDEST POP PUSH1 0x1 SWAP5 SWAP4 POP POP POP POP JUMP JUMPDEST PUSH1 0x0 PUSH1 0x1 PUSH1 0x8 SLOAD PUSH2 0x60F SWAP2 SWAP1 PUSH2 0x13F3 JUMP JUMPDEST SWAP1 POP SWAP1 JUMP JUMPDEST PUSH1 0x0 CALLER PUSH2 0x35C DUP2 DUP6 DUP6 PUSH2 0x627 DUP4 DUP4 PUSH2 0xAAA JUMP JUMPDEST PUSH2 0x631 SWAP2 SWAP1 PUSH2 0x12EB JUMP JUMPDEST PUSH2 0xB4E JUMP JUMPDEST PUSH2 0x63E PUSH2 0xC72 JUMP JUMPDEST PUSH2 0x648 PUSH1 0x0 PUSH2 0xFA9 JUMP JUMPDEST JUMP JUMPDEST PUSH1 0x60 PUSH1 0x4 DUP1 SLOAD PUSH2 0x2CB SWAP1 PUSH2 0x1259 JUMP JUMPDEST PUSH1 0x0 CALLER DUP2 PUSH2 0x667 DUP3 DUP7 PUSH2 0xAAA JUMP JUMPDEST SWAP1 POP DUP4 DUP2 LT ISZERO PUSH2 0x6C7 JUMPI PUSH1 0x40 MLOAD PUSH3 0x461BCD PUSH1 0xE5 SHL DUP2 MSTORE PUSH1 0x20 PUSH1 0x4 DUP3 ADD MSTORE PUSH1 0x25 PUSH1 0x24 DUP3 ADD MSTORE PUSH32 0x45524332303A2064656372656173656420616C6C6F77616E63652062656C6F77 PUSH1 0x44 DUP3 ADD MSTORE PUSH5 0x207A65726F PUSH1 0xD8 SHL PUSH1 0x64 DUP3 ADD MSTORE PUSH1 0x84 ADD PUSH2 0x3B7 JUMP JUMPDEST PUSH2 0x5F3 DUP3 DUP7 DUP7 DUP5 SUB PUSH2 0xB4E JUMP JUMPDEST PUSH1 0x0 CALLER PUSH2 0x35C DUP2 DUP6 DUP6 PUSH2 0xE05 JUMP JUMPDEST PUSH2 0x6EA PUSH2 0xC72 JUMP JUMPDEST DUP5 DUP4 EQ PUSH2 0x733 JUMPI PUSH1 0x40 MLOAD PUSH3 0x461BCD PUSH1 0xE5 SHL DUP2 MSTORE PUSH1 0x20 PUSH1 0x4 DUP3 ADD MSTORE PUSH1 0x17 PUSH1 0x24 DUP3 ADD MSTORE PUSH23 0x4D69736D61746368656420696E70757420617272617973 PUSH1 0x48 SHL PUSH1 0x44 DUP3 ADD MSTORE PUSH1 0x64 ADD PUSH2 0x3B7 JUMP JUMPDEST DUP5 DUP2 EQ PUSH2 0x77C JUMPI PUSH1 0x40 MLOAD PUSH3 0x461BCD PUSH1 0xE5 SHL DUP2 MSTORE PUSH1 0x20 PUSH1 0x4 DUP3 ADD MSTORE PUSH1 0x17 PUSH1 0x24 DUP3 ADD MSTORE PUSH23 0x4D69736D61746368656420696E70757420617272617973 PUSH1 0x48 SHL PUSH1 0x44 DUP3 ADD MSTORE PUSH1 0x64 ADD PUSH2 0x3B7 JUMP JUMPDEST PUSH1 0x0 JUMPDEST DUP6 DUP2 LT ISZERO PUSH2 0xAA1 JUMPI PUSH1 0x0 PUSH1 0x6 SLOAD GT PUSH2 0x7D2 JUMPI PUSH1 0x40 MLOAD PUSH3 0x461BCD PUSH1 0xE5 SHL DUP2 MSTORE PUSH1 0x20 PUSH1 0x4 DUP3 ADD MSTORE PUSH1 0x16 PUSH1 0x24 DUP3 ADD MSTORE PUSH22 0x139BC81B5BDC99481D1BDAD95B9CC81D1BC81B5A5B9D PUSH1 0x52 SHL PUSH1 0x44 DUP3 ADD MSTORE PUSH1 0x64 ADD PUSH2 0x3B7 JUMP JUMPDEST PUSH1 0x9 PUSH1 0x0 DUP5 DUP5 DUP5 DUP2 DUP2 LT PUSH2 0x7E8 JUMPI PUSH2 0x7E8 PUSH2 0x1425 JUMP JUMPDEST PUSH1 0x20 SWAP1 DUP2 MUL SWAP3 SWAP1 SWAP3 ADD CALLDATALOAD DUP4 MSTORE POP DUP2 ADD SWAP2 SWAP1 SWAP2 MSTORE PUSH1 0x40 ADD PUSH1 0x0 KECCAK256 SLOAD PUSH1 0xFF AND ISZERO PUSH2 0x852 JUMPI PUSH1 0x40 MLOAD PUSH3 0x461BCD PUSH1 0xE5 SHL DUP2 MSTORE PUSH1 0x20 PUSH1 0x4 DUP3 ADD MSTORE PUSH1 0x1E PUSH1 0x24 DUP3 ADD MSTORE PUSH32 0x557365722068617320616C7265616479206D696E74656420746F6B656E730000 PUSH1 0x44 DUP3 ADD MSTORE PUSH1 0x64 ADD PUSH2 0x3B7 JUMP JUMPDEST PUSH1 0x0 PUSH1 0x7 SLOAD PUSH1 0x7 SLOAD PUSH2 0x3E8 DUP9 DUP9 DUP7 DUP2 DUP2 LT PUSH2 0x86F JUMPI PUSH2 0x86F PUSH2 0x1425 JUMP JUMPDEST SWAP1 POP PUSH1 0x20 MUL ADD CALLDATALOAD PUSH2 0x880 SWAP2 SWAP1 PUSH2 0x12AA JUMP JUMPDEST PUSH2 0x88A SWAP2 SWAP1 PUSH2 0x12CC JUMP JUMPDEST PUSH2 0x894 SWAP2 SWAP1 PUSH2 0x12EB JUMP JUMPDEST SWAP1 POP PUSH1 0x0 PUSH1 0x8 SLOAD PUSH1 0x2 PUSH2 0x8A7 SWAP2 SWAP1 PUSH2 0x13E7 JUMP JUMPDEST PUSH2 0x8BB SWAP1 PUSH10 0xAD78EBC5AC6200000000 PUSH2 0x12AA JUMP JUMPDEST SWAP1 POP PUSH1 0x0 DUP2 PUSH1 0x6 SLOAD PUSH2 0x8CD SWAP2 SWAP1 PUSH2 0x13F3 JUMP JUMPDEST SWAP1 POP DUP3 DUP2 GT ISZERO DUP1 ISZERO PUSH2 0x8E1 JUMPI POP PUSH1 0x1 PUSH1 0x7 SLOAD GT JUMPDEST ISZERO PUSH2 0x9A8 JUMPI DUP1 SWAP3 POP PUSH1 0x0 PUSH1 0x7 SLOAD DUP5 PUSH2 0x3E8 PUSH2 0x8FC SWAP2 SWAP1 PUSH2 0x12CC JUMP JUMPDEST PUSH2 0x906 SWAP2 SWAP1 PUSH2 0x12AA JUMP JUMPDEST DUP10 DUP10 DUP8 DUP2 DUP2 LT PUSH2 0x918 JUMPI PUSH2 0x918 PUSH2 0x1425 JUMP JUMPDEST SWAP1 POP PUSH1 0x20 MUL ADD CALLDATALOAD PUSH2 0x929 SWAP2 SWAP1 PUSH2 0x13F3 JUMP JUMPDEST SWAP1 POP PUSH1 0x0 PUSH1 0x2 PUSH1 0x7 SLOAD PUSH2 0x93C SWAP2 SWAP1 PUSH2 0x12AA JUMP JUMPDEST PUSH1 0x2 PUSH1 0x7 SLOAD PUSH2 0x94B SWAP2 SWAP1 PUSH2 0x12AA JUMP JUMPDEST PUSH2 0x957 PUSH2 0x3E8 DUP6 PUSH2 0x12AA JUMP JUMPDEST PUSH2 0x961 SWAP2 SWAP1 PUSH2 0x12CC JUMP JUMPDEST PUSH2 0x96B SWAP2 SWAP1 PUSH2 0x12EB JUMP JUMPDEST SWAP1 POP PUSH2 0x978 PUSH1 0x2 DUP6 PUSH2 0x12AA JUMP JUMPDEST DUP2 LT PUSH2 0x999 JUMPI PUSH1 0x7 SLOAD PUSH2 0x98C PUSH1 0x2 DUP7 PUSH2 0x12AA JUMP JUMPDEST PUSH2 0x996 SWAP2 SWAP1 PUSH2 0x13F3 JUMP JUMPDEST SWAP1 POP JUMPDEST PUSH2 0x9A3 DUP2 DUP7 PUSH2 0x12EB JUMP JUMPDEST SWAP5 POP POP POP JUMPDEST DUP3 PUSH1 0x6 SLOAD LT ISZERO PUSH2 0x9B8 JUMPI PUSH1 0x6 SLOAD SWAP3 POP JUMPDEST PUSH2 0x9E8 DUP11 DUP11 DUP7 DUP2 DUP2 LT PUSH2 0x9CD JUMPI PUSH2 0x9CD PUSH2 0x1425 JUMP JUMPDEST SWAP1 POP PUSH1 0x20 MUL ADD PUSH1 0x20 DUP2 ADD SWAP1 PUSH2 0x9E2 SWAP2 SWAP1 PUSH2 0x1105 JUMP JUMPDEST DUP5 PUSH2 0xCCC JUMP JUMPDEST DUP3 PUSH1 0x6 PUSH1 0x0 DUP3 DUP3 SLOAD PUSH2 0x9FA SWAP2 SWAP1 PUSH2 0x13F3 JUMP JUMPDEST SWAP1 SWAP2 SSTORE POP PUSH1 0x1 SWAP1 POP PUSH1 0x9 PUSH1 0x0 DUP9 DUP9 DUP9 DUP2 DUP2 LT PUSH2 0xA18 JUMPI PUSH2 0xA18 PUSH2 0x1425 JUMP JUMPDEST SWAP1 POP PUSH1 0x20 MUL ADD CALLDATALOAD DUP2 MSTORE PUSH1 0x20 ADD SWAP1 DUP2 MSTORE PUSH1 0x20 ADD PUSH1 0x0 KECCAK256 PUSH1 0x0 PUSH2 0x100 EXP DUP2 SLOAD DUP2 PUSH1 0xFF MUL NOT AND SWAP1 DUP4 ISZERO ISZERO MUL OR SWAP1 SSTORE POP DUP2 PUSH1 0x6 SLOAD GT ISZERO DUP1 ISZERO PUSH2 0xA58 JUMPI POP PUSH1 0x1 PUSH1 0x7 SLOAD GT JUMPDEST ISZERO PUSH2 0xA8B JUMPI PUSH1 0xA PUSH1 0x7 PUSH1 0x0 DUP3 DUP3 SLOAD PUSH2 0xA70 SWAP2 SWAP1 PUSH2 0x12AA JUMP JUMPDEST SWAP1 SWAP2 SSTORE POP POP PUSH1 0x8 DUP1 SLOAD SWAP1 PUSH1 0x0 PUSH2 0xA85 DUP4 PUSH2 0x140A JUMP JUMPDEST SWAP2 SWAP1 POP SSTORE POP JUMPDEST POP POP POP DUP1 DUP1 PUSH2 0xA99 SWAP1 PUSH2 0x140A JUMP JUMPDEST SWAP2 POP POP PUSH2 0x77F JUMP JUMPDEST POP POP POP POP POP POP POP JUMP JUMPDEST PUSH1 0x1 PUSH1 0x1 PUSH1 0xA0 SHL SUB SWAP2 DUP3 AND PUSH1 0x0 SWAP1 DUP2 MSTORE PUSH1 0x1 PUSH1 0x20 SWAP1 DUP2 MSTORE PUSH1 0x40 DUP1 DUP4 KECCAK256 SWAP4 SWAP1 SWAP5 AND DUP3 MSTORE SWAP2 SWAP1 SWAP2 MSTORE KECCAK256 SLOAD SWAP1 JUMP JUMPDEST PUSH2 0xADD PUSH2 0xC72 JUMP JUMPDEST PUSH1 0x1 PUSH1 0x1 PUSH1 0xA0 SHL SUB DUP2 AND PUSH2 0xB42 JUMPI PUSH1 0x40 MLOAD PUSH3 0x461BCD PUSH1 0xE5 SHL DUP2 MSTORE PUSH1 0x20 PUSH1 0x4 DUP3 ADD MSTORE PUSH1 0x26 PUSH1 0x24 DUP3 ADD MSTORE PUSH32 0x4F776E61626C653A206E6577206F776E657220697320746865207A65726F2061 PUSH1 0x44 DUP3 ADD MSTORE PUSH6 0x646472657373 PUSH1 0xD0 SHL PUSH1 0x64 DUP3 ADD MSTORE PUSH1 0x84 ADD PUSH2 0x3B7 JUMP JUMPDEST PUSH2 0xB4B DUP2 PUSH2 0xFA9 JUMP JUMPDEST POP JUMP JUMPDEST PUSH1 0x1 PUSH1 0x1 PUSH1 0xA0 SHL SUB DUP4 AND PUSH2 0xBB0 JUMPI PUSH1 0x40 MLOAD PUSH3 0x461BCD PUSH1 0xE5 SHL DUP2 MSTORE PUSH1 0x20 PUSH1 0x4 DUP3 ADD MSTORE PUSH1 0x24 DUP1 DUP3 ADD MSTORE PUSH32 0x45524332303A20617070726F76652066726F6D20746865207A65726F20616464 PUSH1 0x44 DUP3 ADD MSTORE PUSH4 0x72657373 PUSH1 0xE0 SHL PUSH1 0x64 DUP3 ADD MSTORE PUSH1 0x84 ADD PUSH2 0x3B7 JUMP JUMPDEST PUSH1 0x1 PUSH1 0x1 PUSH1 0xA0 SHL SUB DUP3 AND PUSH2 0xC11 JUMPI PUSH1 0x40 MLOAD PUSH3 0x461BCD PUSH1 0xE5 SHL DUP2 MSTORE PUSH1 0x20 PUSH1 0x4 DUP3 ADD MSTORE PUSH1 0x22 PUSH1 0x24 DUP3 ADD MSTORE PUSH32 0x45524332303A20617070726F766520746F20746865207A65726F206164647265 PUSH1 0x44 DUP3 ADD MSTORE PUSH2 0x7373 PUSH1 0xF0 SHL PUSH1 0x64 DUP3 ADD MSTORE PUSH1 0x84 ADD PUSH2 0x3B7 JUMP JUMPDEST PUSH1 0x1 PUSH1 0x1 PUSH1 0xA0 SHL SUB DUP4 DUP2 AND PUSH1 0x0 DUP2 DUP2 MSTORE PUSH1 0x1 PUSH1 0x20 SWAP1 DUP2 MSTORE PUSH1 0x40 DUP1 DUP4 KECCAK256 SWAP5 DUP8 AND DUP1 DUP5 MSTORE SWAP5 DUP3 MSTORE SWAP2 DUP3 SWAP1 KECCAK256 DUP6 SWAP1 SSTORE SWAP1 MLOAD DUP5 DUP2 MSTORE PUSH32 0x8C5BE1E5EBEC7D5BD14F71427D1E84F3DD0314C0F7B2291E5B200AC8C7C3B925 SWAP2 ADD PUSH1 0x40 MLOAD DUP1 SWAP2 SUB SWAP1 LOG3 POP POP POP JUMP JUMPDEST PUSH1 0x5 SLOAD PUSH1 0x1 PUSH1 0x1 PUSH1 0xA0 SHL SUB AND CALLER EQ PUSH2 0x648 JUMPI PUSH1 0x40 MLOAD PUSH3 0x461BCD PUSH1 0xE5 SHL DUP2 MSTORE PUSH1 0x20 PUSH1 0x4 DUP3 ADD DUP2 SWAP1 MSTORE PUSH1 0x24 DUP3 ADD MSTORE PUSH32 0x4F776E61626C653A2063616C6C6572206973206E6F7420746865206F776E6572 PUSH1 0x44 DUP3 ADD MSTORE PUSH1 0x64 ADD PUSH2 0x3B7 JUMP JUMPDEST PUSH1 0x1 PUSH1 0x1 PUSH1 0xA0 SHL SUB DUP3 AND PUSH2 0xD22 JUMPI PUSH1 0x40 MLOAD PUSH3 0x461BCD PUSH1 0xE5 SHL DUP2 MSTORE PUSH1 0x20 PUSH1 0x4 DUP3 ADD MSTORE PUSH1 0x1F PUSH1 0x24 DUP3 ADD MSTORE PUSH32 0x45524332303A206D696E7420746F20746865207A65726F206164647265737300 PUSH1 0x44 DUP3 ADD MSTORE PUSH1 0x64 ADD PUSH2 0x3B7 JUMP JUMPDEST DUP1 PUSH1 0x2 PUSH1 0x0 DUP3 DUP3 SLOAD PUSH2 0xD34 SWAP2 SWAP1 PUSH2 0x12EB JUMP JUMPDEST SWAP1 SWAP2 SSTORE POP POP PUSH1 0x1 PUSH1 0x1 PUSH1 0xA0 SHL SUB DUP3 AND PUSH1 0x0 DUP2 DUP2 MSTORE PUSH1 0x20 DUP2 DUP2 MSTORE PUSH1 0x40 DUP1 DUP4 KECCAK256 DUP1 SLOAD DUP7 ADD SWAP1 SSTORE MLOAD DUP5 DUP2 MSTORE PUSH32 0xDDF252AD1BE2C89B69C2B068FC378DAA952BA7F163C4A11628F55A4DF523B3EF SWAP2 ADD PUSH1 0x40 MLOAD DUP1 SWAP2 SUB SWAP1 LOG3 POP POP JUMP JUMPDEST PUSH1 0x0 PUSH2 0xD97 DUP5 DUP5 PUSH2 0xAAA JUMP JUMPDEST SWAP1 POP PUSH1 0x0 NOT DUP2 EQ PUSH2 0xDFF JUMPI DUP2 DUP2 LT ISZERO PUSH2 0xDF2 JUMPI PUSH1 0x40 MLOAD PUSH3 0x461BCD PUSH1 0xE5 SHL DUP2 MSTORE PUSH1 0x20 PUSH1 0x4 DUP3 ADD MSTORE PUSH1 0x1D PUSH1 0x24 DUP3 ADD MSTORE PUSH32 0x45524332303A20696E73756666696369656E7420616C6C6F77616E6365000000 PUSH1 0x44 DUP3 ADD MSTORE PUSH1 0x64 ADD PUSH2 0x3B7 JUMP JUMPDEST PUSH2 0xDFF DUP5 DUP5 DUP5 DUP5 SUB PUSH2 0xB4E JUMP JUMPDEST POP POP POP POP JUMP JUMPDEST PUSH1 0x1 PUSH1 0x1 PUSH1 0xA0 SHL SUB DUP4 AND PUSH2 0xE69 JUMPI PUSH1 0x40 MLOAD PUSH3 0x461BCD PUSH1 0xE5 SHL DUP2 MSTORE PUSH1 0x20 PUSH1 0x4 DUP3 ADD MSTORE PUSH1 0x25 PUSH1 0x24 DUP3 ADD MSTORE PUSH32 0x45524332303A207472616E736665722066726F6D20746865207A65726F206164 PUSH1 0x44 DUP3 ADD MSTORE PUSH5 0x6472657373 PUSH1 0xD8 SHL PUSH1 0x64 DUP3 ADD MSTORE PUSH1 0x84 ADD PUSH2 0x3B7 JUMP JUMPDEST PUSH1 0x1 PUSH1 0x1 PUSH1 0xA0 SHL SUB DUP3 AND PUSH2 0xECB JUMPI PUSH1 0x40 MLOAD PUSH3 0x461BCD PUSH1 0xE5 SHL DUP2 MSTORE PUSH1 0x20 PUSH1 0x4 DUP3 ADD MSTORE PUSH1 0x23 PUSH1 0x24 DUP3 ADD MSTORE PUSH32 0x45524332303A207472616E7366657220746F20746865207A65726F2061646472 PUSH1 0x44 DUP3 ADD MSTORE PUSH3 0x657373 PUSH1 0xE8 SHL PUSH1 0x64 DUP3 ADD MSTORE PUSH1 0x84 ADD PUSH2 0x3B7 JUMP JUMPDEST PUSH1 0x1 PUSH1 0x1 PUSH1 0xA0 SHL SUB DUP4 AND PUSH1 0x0 SWAP1 DUP2 MSTORE PUSH1 0x20 DUP2 SWAP1 MSTORE PUSH1 0x40 SWAP1 KECCAK256 SLOAD DUP2 DUP2 LT ISZERO PUSH2 0xF43 JUMPI PUSH1 0x40 MLOAD PUSH3 0x461BCD PUSH1 0xE5 SHL DUP2 MSTORE PUSH1 0x20 PUSH1 0x4 DUP3 ADD MSTORE PUSH1 0x26 PUSH1 0x24 DUP3 ADD MSTORE PUSH32 0x45524332303A207472616E7366657220616D6F756E7420657863656564732062 PUSH1 0x44 DUP3 ADD MSTORE PUSH6 0x616C616E6365 PUSH1 0xD0 SHL PUSH1 0x64 DUP3 ADD MSTORE PUSH1 0x84 ADD PUSH2 0x3B7 JUMP JUMPDEST PUSH1 0x1 PUSH1 0x1 PUSH1 0xA0 SHL SUB DUP5 DUP2 AND PUSH1 0x0 DUP2 DUP2 MSTORE PUSH1 0x20 DUP2 DUP2 MSTORE PUSH1 0x40 DUP1 DUP4 KECCAK256 DUP8 DUP8 SUB SWAP1 SSTORE SWAP4 DUP8 AND DUP1 DUP4 MSTORE SWAP2 DUP5 SWAP1 KECCAK256 DUP1 SLOAD DUP8 ADD SWAP1 SSTORE SWAP3 MLOAD DUP6 DUP2 MSTORE SWAP1 SWAP3 PUSH32 0xDDF252AD1BE2C89B69C2B068FC378DAA952BA7F163C4A11628F55A4DF523B3EF SWAP2 ADD PUSH1 0x40 MLOAD DUP1 SWAP2 SUB SWAP1 LOG3 PUSH2 0xDFF JUMP JUMPDEST PUSH1 0x5 DUP1 SLOAD PUSH1 0x1 PUSH1 0x1 PUSH1 0xA0 SHL SUB DUP4 DUP2 AND PUSH1 0x1 PUSH1 0x1 PUSH1 0xA0 SHL SUB NOT DUP4 AND DUP2 OR SWAP1 SWAP4 SSTORE PUSH1 0x40 MLOAD SWAP2 AND SWAP2 SWAP1 DUP3 SWAP1 PUSH32 0x8BE0079C531659141344CD1FD0A4F28419497F9722A3DAAFE3B4186F6B6457E0 SWAP1 PUSH1 0x0 SWAP1 LOG3 POP POP JUMP JUMPDEST PUSH1 0x0 PUSH1 0x20 DUP1 DUP4 MSTORE DUP4 MLOAD DUP1 DUP3 DUP6 ADD MSTORE PUSH1 0x0 JUMPDEST DUP2 DUP2 LT ISZERO PUSH2 0x1028 JUMPI DUP6 DUP2 ADD DUP4 ADD MLOAD DUP6 DUP3 ADD PUSH1 0x40 ADD MSTORE DUP3 ADD PUSH2 0x100C JUMP JUMPDEST DUP2 DUP2 GT ISZERO PUSH2 0x103A JUMPI PUSH1 0x0 PUSH1 0x40 DUP4 DUP8 ADD ADD MSTORE JUMPDEST POP PUSH1 0x1F ADD PUSH1 0x1F NOT AND SWAP3 SWAP1 SWAP3 ADD PUSH1 0x40 ADD SWAP4 SWAP3 POP POP POP JUMP JUMPDEST DUP1 CALLDATALOAD PUSH1 0x1 PUSH1 0x1 PUSH1 0xA0 SHL SUB DUP2 AND DUP2 EQ PUSH2 0x1067 JUMPI PUSH1 0x0 DUP1 REVERT JUMPDEST SWAP2 SWAP1 POP JUMP JUMPDEST PUSH1 0x0 DUP1 PUSH1 0x40 DUP4 DUP6 SUB SLT ISZERO PUSH2 0x107F JUMPI PUSH1 0x0 DUP1 REVERT JUMPDEST PUSH2 0x1088 DUP4 PUSH2 0x1050 JUMP JUMPDEST SWAP5 PUSH1 0x20 SWAP4 SWAP1 SWAP4 ADD CALLDATALOAD SWAP4 POP POP POP JUMP JUMPDEST PUSH1 0x0 DUP1 PUSH1 0x0 PUSH1 0x60 DUP5 DUP7 SUB SLT ISZERO PUSH2 0x10AB JUMPI PUSH1 0x0 DUP1 REVERT JUMPDEST PUSH2 0x10B4 DUP5 PUSH2 0x1050 JUMP JUMPDEST SWAP6 PUSH1 0x20 DUP6 ADD CALLDATALOAD SWAP6 POP PUSH1 0x40 SWAP1 SWAP5 ADD CALLDATALOAD SWAP4 SWAP3 POP POP POP JUMP JUMPDEST PUSH1 0x0 DUP1 PUSH1 0x0 PUSH1 0x60 DUP5 DUP7 SUB SLT ISZERO PUSH2 0x10DE JUMPI PUSH1 0x0 DUP1 REVERT JUMPDEST PUSH2 0x10E7 DUP5 PUSH2 0x1050 JUMP JUMPDEST SWAP3 POP PUSH2 0x10F5 PUSH1 0x20 DUP6 ADD PUSH2 0x1050 JUMP JUMPDEST SWAP2 POP PUSH1 0x40 DUP5 ADD CALLDATALOAD SWAP1 POP SWAP3 POP SWAP3 POP SWAP3 JUMP JUMPDEST PUSH1 0x0 PUSH1 0x20 DUP3 DUP5 SUB SLT ISZERO PUSH2 0x1117 JUMPI PUSH1 0x0 DUP1 REVERT JUMPDEST PUSH2 0x1120 DUP3 PUSH2 0x1050 JUMP JUMPDEST SWAP4 SWAP3 POP POP POP JUMP JUMPDEST PUSH1 0x0 DUP1 DUP4 PUSH1 0x1F DUP5 ADD SLT PUSH2 0x1139 JUMPI PUSH1 0x0 DUP1 REVERT JUMPDEST POP DUP2 CALLDATALOAD PUSH8 0xFFFFFFFFFFFFFFFF DUP2 GT ISZERO PUSH2 0x1151 JUMPI PUSH1 0x0 DUP1 REVERT JUMPDEST PUSH1 0x20 DUP4 ADD SWAP2 POP DUP4 PUSH1 0x20 DUP3 PUSH1 0x5 SHL DUP6 ADD ADD GT ISZERO PUSH2 0x116C JUMPI PUSH1 0x0 DUP1 REVERT JUMPDEST SWAP3 POP SWAP3 SWAP1 POP JUMP JUMPDEST PUSH1 0x0 DUP1 PUSH1 0x0 DUP1 PUSH1 0x0 DUP1 PUSH1 0x60 DUP8 DUP10 SUB SLT ISZERO PUSH2 0x118C JUMPI PUSH1 0x0 DUP1 REVERT JUMPDEST DUP7 CALLDATALOAD PUSH8 0xFFFFFFFFFFFFFFFF DUP1 DUP3 GT ISZERO PUSH2 0x11A4 JUMPI PUSH1 0x0 DUP1 REVERT JUMPDEST PUSH2 0x11B0 DUP11 DUP4 DUP12 ADD PUSH2 0x1127 JUMP JUMPDEST SWAP1 SWAP9 POP SWAP7 POP PUSH1 0x20 DUP10 ADD CALLDATALOAD SWAP2 POP DUP1 DUP3 GT ISZERO PUSH2 0x11C9 JUMPI PUSH1 0x0 DUP1 REVERT JUMPDEST PUSH2 0x11D5 DUP11 DUP4 DUP12 ADD PUSH2 0x1127 JUMP JUMPDEST SWAP1 SWAP7 POP SWAP5 POP PUSH1 0x40 DUP10 ADD CALLDATALOAD SWAP2 POP DUP1 DUP3 GT ISZERO PUSH2 0x11EE JUMPI PUSH1 0x0 DUP1 REVERT JUMPDEST POP PUSH2 0x11FB DUP10 DUP3 DUP11 ADD PUSH2 0x1127 JUMP JUMPDEST SWAP8 SWAP11 SWAP7 SWAP10 POP SWAP5 SWAP8 POP SWAP3 SWAP6 SWAP4 SWAP5 SWAP3 POP POP POP JUMP JUMPDEST PUSH1 0x0 DUP1 PUSH1 0x40 DUP4 DUP6 SUB SLT ISZERO PUSH2 0x1220 JUMPI PUSH1 0x0 DUP1 REVERT JUMPDEST PUSH2 0x1229 DUP4 PUSH2 0x1050 JUMP JUMPDEST SWAP2 POP PUSH2 0x1237 PUSH1 0x20 DUP5 ADD PUSH2 0x1050 JUMP JUMPDEST SWAP1 POP SWAP3 POP SWAP3 SWAP1 POP JUMP JUMPDEST PUSH1 0x0 PUSH1 0x20 DUP3 DUP5 SUB SLT ISZERO PUSH2 0x1252 JUMPI PUSH1 0x0 DUP1 REVERT JUMPDEST POP CALLDATALOAD SWAP2 SWAP1 POP JUMP JUMPDEST PUSH1 0x1 DUP2 DUP2 SHR SWAP1 DUP3 AND DUP1 PUSH2 0x126D JUMPI PUSH1 0x7F DUP3 AND SWAP2 POP JUMPDEST PUSH1 0x20 DUP3 LT DUP2 EQ ISZERO PUSH2 0x128E JUMPI PUSH4 0x4E487B71 PUSH1 0xE0 SHL PUSH1 0x0 MSTORE PUSH1 0x22 PUSH1 0x4 MSTORE PUSH1 0x24 PUSH1 0x0 REVERT JUMPDEST POP SWAP2 SWAP1 POP JUMP JUMPDEST PUSH4 0x4E487B71 PUSH1 0xE0 SHL PUSH1 0x0 MSTORE PUSH1 0x11 PUSH1 0x4 MSTORE PUSH1 0x24 PUSH1 0x0 REVERT JUMPDEST PUSH1 0x0 DUP3 PUSH2 0x12C7 JUMPI PUSH4 0x4E487B71 PUSH1 0xE0 SHL PUSH1 0x0 MSTORE PUSH1 0x12 PUSH1 0x4 MSTORE PUSH1 0x24 PUSH1 0x0 REVERT JUMPDEST POP DIV SWAP1 JUMP JUMPDEST PUSH1 0x0 DUP2 PUSH1 0x0 NOT DIV DUP4 GT DUP3 ISZERO ISZERO AND ISZERO PUSH2 0x12E6 JUMPI PUSH2 0x12E6 PUSH2 0x1294 JUMP JUMPDEST POP MUL SWAP1 JUMP JUMPDEST PUSH1 0x0 DUP3 NOT DUP3 GT ISZERO PUSH2 0x12FE JUMPI PUSH2 0x12FE PUSH2 0x1294 JUMP JUMPDEST POP ADD SWAP1 JUMP JUMPDEST PUSH1 0x1 DUP2 DUP2 JUMPDEST DUP1 DUP6 GT ISZERO PUSH2 0x133E JUMPI DUP2 PUSH1 0x0 NOT DIV DUP3 GT ISZERO PUSH2 0x1324 JUMPI PUSH2 0x1324 PUSH2 0x1294 JUMP JUMPDEST DUP1 DUP6 AND ISZERO PUSH2 0x1331 JUMPI SWAP2 DUP2 MUL SWAP2 JUMPDEST SWAP4 DUP5 SHR SWAP4 SWAP1 DUP1 MUL SWAP1 PUSH2 0x1308 JUMP JUMPDEST POP SWAP3 POP SWAP3 SWAP1 POP JUMP JUMPDEST PUSH1 0x0 DUP3 PUSH2 0x1355 JUMPI POP PUSH1 0x1 PUSH2 0x362 JUMP JUMPDEST DUP2 PUSH2 0x1362 JUMPI POP PUSH1 0x0 PUSH2 0x362 JUMP JUMPDEST DUP2 PUSH1 0x1 DUP2 EQ PUSH2 0x1378 JUMPI PUSH1 0x2 DUP2 EQ PUSH2 0x1382 JUMPI PUSH2 0x139E JUMP JUMPDEST PUSH1 0x1 SWAP2 POP POP PUSH2 0x362 JUMP JUMPDEST PUSH1 0xFF DUP5 GT ISZERO PUSH2 0x1393 JUMPI PUSH2 0x1393 PUSH2 0x1294 JUMP JUMPDEST POP POP PUSH1 0x1 DUP3 SHL PUSH2 0x362 JUMP JUMPDEST POP PUSH1 0x20 DUP4 LT PUSH2 0x133 DUP4 LT AND PUSH1 0x4E DUP5 LT PUSH1 0xB DUP5 LT AND OR ISZERO PUSH2 0x13C1 JUMPI POP DUP2 DUP2 EXP PUSH2 0x362 JUMP JUMPDEST PUSH2 0x13CB DUP4 DUP4 PUSH2 0x1303 JUMP JUMPDEST DUP1 PUSH1 0x0 NOT DIV DUP3 GT ISZERO PUSH2 0x13DF JUMPI PUSH2 0x13DF PUSH2 0x1294 JUMP JUMPDEST MUL SWAP4 SWAP3 POP POP POP JUMP JUMPDEST PUSH1 0x0 PUSH2 0x1120 DUP4 DUP4 PUSH2 0x1346 JUMP JUMPDEST PUSH1 0x0 DUP3 DUP3 LT ISZERO PUSH2 0x1405 JUMPI PUSH2 0x1405 PUSH2 0x1294 JUMP JUMPDEST POP SUB SWAP1 JUMP JUMPDEST PUSH1 0x0 PUSH1 0x0 NOT DUP3 EQ ISZERO PUSH2 0x141E JUMPI PUSH2 0x141E PUSH2 0x1294 JUMP JUMPDEST POP PUSH1 0x1 ADD SWAP1 JUMP JUMPDEST PUSH4 0x4E487B71 PUSH1 0xE0 SHL PUSH1 0x0 MSTORE PUSH1 0x32 PUSH1 0x4 MSTORE PUSH1 0x24 PUSH1 0x0 REVERT INVALID LOG2 PUSH5 0x6970667358 0x22 SLT KECCAK256 LOG4 DUP12 CREATE2 0x1F CODECOPY 0x4C 0xC4 0xE9 PUSH12 0x77D32E771E9066B4F33D07A2 SWAP1 SWAP7 0xB7 0xBB PUSH19 0xC6AF283A59F664736F6C634300080900330000 "
				},
				"gasEstimates": {
					"creation": {
						"codeDepositCost": "1046600",
						"executionCost": "infinite",
						"totalCost": "infinite"
					},
					"external": {
						"allowance(address,address)": "infinite",
						"approve(address,uint256)": "24673",
						"balanceOf(address)": "2651",
						"batchMint(address[],uint256[],uint256[])": "infinite",
						"currentReward()": "2327",
						"decimals()": "222",
						"decreaseAllowance(address,uint256)": "27039",
						"getHalvingCount()": "2452",
						"hasMinted(uint256)": "2538",
						"increaseAllowance(address,uint256)": "27071",
						"mint(address,uint256,uint256)": "infinite",
						"name()": "infinite",
						"owner()": "2346",
						"remainingSupply()": "2336",
						"renounceOwnership()": "infinite",
						"symbol()": "infinite",
						"totalSupply()": "2404",
						"transfer(address,uint256)": "51161",
						"transferFrom(address,address,uint256)": "infinite",
						"transferOwnership(address)": "28446"
					}
				},
				"methodIdentifiers": {
					"allowance(address,address)": "dd62ed3e",
					"approve(address,uint256)": "095ea7b3",
					"balanceOf(address)": "70a08231",
					"batchMint(address[],uint256[],uint256[])": "d559f05b",
					"currentReward()": "07621eca",
					"decimals()": "313ce567",
					"decreaseAllowance(address,uint256)": "a457c2d7",
					"getHalvingCount()": "331d17c1",
					"hasMinted(uint256)": "e5b95595",
					"increaseAllowance(address,uint256)": "39509351",
					"mint(address,uint256,uint256)": "156e29f6",
					"name()": "06fdde03",
					"owner()": "8da5cb5b",
					"remainingSupply()": "da0239a6",
					"renounceOwnership()": "715018a6",
					"symbol()": "95d89b41",
					"totalSupply()": "18160ddd",
					"transfer(address,uint256)": "a9059cbb",
					"transferFrom(address,address,uint256)": "23b872dd",
					"transferOwnership(address)": "f2fde38b"
				}
			},
			"storageLayout": {
				"storage": [
					{
						"astId": 128,
						"contract": "contracts/TikToken.sol:TikToken",
						"label": "_balances",
						"offset": 0,
						"slot": "0",
						"type": "t_mapping(t_address,t_uint256)"
					},
					{
						"astId": 134,
						"contract": "contracts/TikToken.sol:TikToken",
						"label": "_allowances",
						"offset": 0,
						"slot": "1",
						"type": "t_mapping(t_address,t_mapping(t_address,t_uint256))"
					},
					{
						"astId": 136,
						"contract": "contracts/TikToken.sol:TikToken",
						"label": "_totalSupply",
						"offset": 0,
						"slot": "2",
						"type": "t_uint256"
					},
					{
						"astId": 138,
						"contract": "contracts/TikToken.sol:TikToken",
						"label": "_name",
						"offset": 0,
						"slot": "3",
						"type": "t_string_storage"
					},
					{
						"astId": 140,
						"contract": "contracts/TikToken.sol:TikToken",
						"label": "_symbol",
						"offset": 0,
						"slot": "4",
						"type": "t_string_storage"
					},
					{
						"astId": 7,
						"contract": "contracts/TikToken.sol:TikToken",
						"label": "_owner",
						"offset": 0,
						"slot": "5",
						"type": "t_address"
					},
					{
						"astId": 856,
						"contract": "contracts/TikToken.sol:TikToken",
						"label": "_remainingSupply",
						"offset": 0,
						"slot": "6",
						"type": "t_uint256"
					},
					{
						"astId": 863,
						"contract": "contracts/TikToken.sol:TikToken",
						"label": "_currentReward",
						"offset": 0,
						"slot": "7",
						"type": "t_uint256"
					},
					{
						"astId": 866,
						"contract": "contracts/TikToken.sol:TikToken",
						"label": "_halvingCount",
						"offset": 0,
						"slot": "8",
						"type": "t_uint256"
					},
					{
						"astId": 870,
						"contract": "contracts/TikToken.sol:TikToken",
						"label": "_minted",
						"offset": 0,
						"slot": "9",
						"type": "t_mapping(t_uint256,t_bool)"
					}
				],
				"types": {
					"t_address": {
						"encoding": "inplace",
						"label": "address",
						"numberOfBytes": "20"
					},
					"t_bool": {
						"encoding": "inplace",
						"label": "bool",
						"numberOfBytes": "1"
					},
					"t_mapping(t_address,t_mapping(t_address,t_uint256))": {
						"encoding": "mapping",
						"key": "t_address",
						"label": "mapping(address => mapping(address => uint256))",
						"numberOfBytes": "32",
						"value": "t_mapping(t_address,t_uint256)"
					},
					"t_mapping(t_address,t_uint256)": {
						"encoding": "mapping",
						"key": "t_address",
						"label": "mapping(address => uint256)",
						"numberOfBytes": "32",
						"value": "t_uint256"
					},
					"t_mapping(t_uint256,t_bool)": {
						"encoding": "mapping",
						"key": "t_uint256",
						"label": "mapping(uint256 => bool)",
						"numberOfBytes": "32",
						"value": "t_bool"
					},
					"t_string_storage": {
						"encoding": "bytes",
						"label": "string",
						"numberOfBytes": "32"
					},
					"t_uint256": {
						"encoding": "inplace",
						"label": "uint256",
						"numberOfBytes": "32"
					}
				}
			},
			"userdoc": {
				"kind": "user",
				"methods": {
					"mint(address,uint256,uint256)": {
						"notice": "The minting function is designed to give a large amount of tokens to early adopters and cut the rewards so that there is a fair distribution of tokens and that even if people are late to the party they can earn some TikTokens. At the time of contract deployment there will be 0.8192 tokens remaining and every time this number halves (until it reaches 0.0001) the rewards get cut by 1 decimal place Every user will have the opportunity to earn 0.00001 tokens per 1000 followers (0.01 per 1M followers) before the first halving cycle.  After the first halving cycle the rewards will be 0.000001 per 1000 followers (0.001 per 1M followers) and this process will continue every time the remaining supply halves until the rewards get to be 0.000000000000000000000001 per 1000 followers as the minimum rewards."
					}
				},
				"version": 1
			}
		}
	}
}